{
  "contractName": "AdvertisementController",
  "abi": [
    {
      "inputs": [],
      "stateMutability": "nonpayable",
      "type": "constructor"
    },
    {
      "anonymous": false,
      "inputs": [
        {
          "indexed": false,
          "internalType": "address",
          "name": "advertisement",
          "type": "address"
        }
      ],
      "name": "AddedNewAdvertisement",
      "type": "event"
    },
    {
      "anonymous": false,
      "inputs": [
        {
          "indexed": false,
          "internalType": "address",
          "name": "advertisement",
          "type": "address"
        }
      ],
      "name": "DeletedAdvertisement",
      "type": "event"
    },
    {
      "inputs": [
        {
          "internalType": "address",
          "name": "",
          "type": "address"
        }
      ],
      "name": "PUAddresses",
      "outputs": [
        {
          "internalType": "address",
          "name": "",
          "type": "address"
        }
      ],
      "stateMutability": "view",
      "type": "function",
      "constant": true
    },
    {
      "inputs": [
        {
          "internalType": "address payable",
          "name": "_PU",
          "type": "address"
        },
        {
          "internalType": "uint256",
          "name": "_bandwidth",
          "type": "uint256"
        },
        {
          "internalType": "uint256",
          "name": "_minBidValue",
          "type": "uint256"
        },
        {
          "internalType": "uint256",
          "name": "_depositValue",
          "type": "uint256"
        }
      ],
      "name": "deployNewAdvertisement",
      "outputs": [],
      "stateMutability": "nonpayable",
      "type": "function"
    },
    {
      "inputs": [
        {
          "internalType": "address",
          "name": "advertisementAddress",
          "type": "address"
        }
      ],
      "name": "deleteAdvertisement",
      "outputs": [],
      "stateMutability": "nonpayable",
      "type": "function"
    }
  ],
  "bytecode": "0x608060405234801561001057600080fd5b50336000806101000a81548173ffffffffffffffffffffffffffffffffffffffff021916908373ffffffffffffffffffffffffffffffffffffffff160217905550613d50806100606000396000f3fe60806040523480156200001157600080fd5b5060043610620000465760003560e01c80630731d242146200004b578063b4a1adf11462000081578063dfd0d5ff14620000a1575b600080fd5b620000696004803603810190620000639190620006fa565b620000c1565b6040516200007891906200086b565b60405180910390f35b6200009f6004803603810190620000999190620006fa565b620000f4565b005b620000bf6004803603810190620000b9919062000726565b62000578565b005b60016020528060005260406000206000915054906101000a900473ffffffffffffffffffffffffffffffffffffffff1681565b6000819050600160008373ffffffffffffffffffffffffffffffffffffffff1673ffffffffffffffffffffffffffffffffffffffff16815260200190815260200160002060009054906101000a900473ffffffffffffffffffffffffffffffffffffffff1673ffffffffffffffffffffffffffffffffffffffff163373ffffffffffffffffffffffffffffffffffffffff161480620001de575060008054906101000a900473ffffffffffffffffffffffffffffffffffffffff1673ffffffffffffffffffffffffffffffffffffffff163373ffffffffffffffffffffffffffffffffffffffff16145b62000220576040517f08c379a00000000000000000000000000000000000000000000000000000000081526004016200021790620008f7565b60405180910390fd5b60008173ffffffffffffffffffffffffffffffffffffffff1663cc689c556040518163ffffffff1660e01b815260040160206040518083038186803b1580156200026957600080fd5b505afa1580156200027e573d6000803e3d6000fd5b505050506040513d601f19601f82011682018060405250810190620002a49190620007be565b4211801562000335575060008273ffffffffffffffffffffffffffffffffffffffff1663cc689c556040518163ffffffff1660e01b815260040160206040518083038186803b158015620002f757600080fd5b505afa1580156200030c573d6000803e3d6000fd5b505050506040513d601f19601f82011682018060405250810190620003329190620007be565b14155b905080620004765760038081111562000377577f4e487b7100000000000000000000000000000000000000000000000000000000600052602160045260246000fd5b8273ffffffffffffffffffffffffffffffffffffffff1663378aa7016040518163ffffffff1660e01b815260040160206040518083038186803b158015620003be57600080fd5b505afa158015620003d3573d6000803e3d6000fd5b505050506040513d601f19601f82011682018060405250810190620003f9919062000792565b600381111562000432577f4e487b7100000000000000000000000000000000000000000000000000000000600052602160045260246000fd5b1462000475576040517f08c379a00000000000000000000000000000000000000000000000000000000081526004016200046c90620008d5565b60405180910390fd5b5b8173ffffffffffffffffffffffffffffffffffffffff1663bd124a4d6040518163ffffffff1660e01b8152600401600060405180830381600087803b158015620004bf57600080fd5b505af1158015620004d4573d6000803e3d6000fd5b50505050600160008473ffffffffffffffffffffffffffffffffffffffff1673ffffffffffffffffffffffffffffffffffffffff16815260200190815260200160002060006101000a81549073ffffffffffffffffffffffffffffffffffffffff02191690557f170f97f8dcdbe41332d2857a56e79ce77d97f8bdd37ecec64690f4c976ee5915836040516200056b91906200086b565b60405180910390a1505050565b6000848484846040516200058c9062000679565b6200059b949392919062000888565b604051809103906000f080158015620005b8573d6000803e3d6000fd5b50905084600160008373ffffffffffffffffffffffffffffffffffffffff1673ffffffffffffffffffffffffffffffffffffffff16815260200190815260200160002060006101000a81548173ffffffffffffffffffffffffffffffffffffffff021916908373ffffffffffffffffffffffffffffffffffffffff1602179055507f78114b5c75166dd6a6c173629d9699decc00f8ffbe7c4154d9a66beeaffa106f816040516200066a91906200086b565b60405180910390a15050505050565b61327b8062000aa083390190565b600081359050620006988162000a40565b92915050565b600081359050620006af8162000a5a565b92915050565b600081519050620006c68162000a74565b92915050565b600081359050620006dd8162000a85565b92915050565b600081519050620006f48162000a85565b92915050565b6000602082840312156200070d57600080fd5b60006200071d8482850162000687565b91505092915050565b600080600080608085870312156200073d57600080fd5b60006200074d878288016200069e565b94505060206200076087828801620006cc565b93505060406200077387828801620006cc565b92505060606200078687828801620006cc565b91505092959194509250565b600060208284031215620007a557600080fd5b6000620007b584828501620006b5565b91505092915050565b600060208284031215620007d157600080fd5b6000620007e184828501620006e3565b91505092915050565b620007f5816200093e565b82525050565b62000806816200092a565b82525050565b60006200081b604a8362000919565b915062000828826200097c565b606082019050919050565b60006200084260348362000919565b91506200084f82620009f1565b604082019050919050565b620008658162000972565b82525050565b6000602082019050620008826000830184620007fb565b92915050565b60006080820190506200089f6000830187620007ea565b620008ae60208301866200085a565b620008bd60408301856200085a565b620008cc60608301846200085a565b95945050505050565b60006020820190508181036000830152620008f0816200080c565b9050919050565b60006020820190508181036000830152620009128162000833565b9050919050565b600082825260208201905092915050565b6000620009378262000952565b9050919050565b60006200094b8262000952565b9050919050565b600073ffffffffffffffffffffffffffffffffffffffff82169050919050565b6000819050919050565b7f43616e6e6f742064656c657465206164766572746973656d656e74206265666f60008201527f72652074686520746f6b656e206861732065787069726564206f72206265656e60208201527f2072657472696576656400000000000000000000000000000000000000000000604082015250565b7f43616e206f6e6c792062652064656c657465642062792061646d696e206f722060008201527f746865206164766572746973656d656e74205055000000000000000000000000602082015250565b62000a4b816200092a565b811462000a5757600080fd5b50565b62000a65816200093e565b811462000a7157600080fd5b50565b6004811062000a8257600080fd5b50565b62000a908162000972565b811462000a9c57600080fd5b5056fe60806040523480156200001157600080fd5b506040516200327b3803806200327b83398181016040528101906200003791906200027f565b336000806101000a81548173ffffffffffffffffffffffffffffffffffffffff021916908373ffffffffffffffffffffffffffffffffffffffff1602179055506040518060e0016040528060006003811115620000bd577f4e487b7100000000000000000000000000000000000000000000000000000000600052602160045260246000fd5b81526020018573ffffffffffffffffffffffffffffffffffffffff168152602001848152602001600184620000f39190620004ac565b8152602001600183620001079190620004ac565b815260200162015180426200011d91906200044f565b81526020016202a300426200013391906200044f565b815250600160008201518160000160006101000a81548160ff021916908360038111156200018a577f4e487b7100000000000000000000000000000000000000000000000000000000600052602160045260246000fd5b021790555060208201518160000160016101000a81548173ffffffffffffffffffffffffffffffffffffffff021916908373ffffffffffffffffffffffffffffffffffffffff16021790555060408201518160010155606082015181600201556080820151816003015560a0820151816004015560c082015181600501559050507f4ddc7019ab01ff1209484ef93fbfa9d2f755b1039ebbcb3055ec82fd79535aca6001426040516200023f92919062000421565b60405180910390a150505050620006c8565b600081519050620002628162000694565b92915050565b6000815190506200027981620006ae565b92915050565b600080600080608085870312156200029657600080fd5b6000620002a68782880162000251565b9450506020620002b98782880162000268565b9350506040620002cc8782880162000268565b9250506060620002df8782880162000268565b91505092959194509250565b620002f68162000544565b82525050565b620003078162000597565b82525050565b60e0820160008083015490506200032481620005ab565b620003336000860182620002fc565b506200033f81620005e7565b6200034e6020860182620002eb565b50600183015490506200036181620005c9565b620003706040860182620003ff565b50600283015490506200038381620005c9565b620003926060860182620003ff565b5060038301549050620003a581620005c9565b620003b46080860182620003ff565b5060048301549050620003c781620005c9565b620003d660a0860182620003ff565b5060058301549050620003e981620005c9565b620003f860c0860182620003ff565b5050505050565b6200040a816200058d565b82525050565b6200041b816200058d565b82525050565b6000610100820190506200043960008301856200030d565b6200044860e083018462000410565b9392505050565b60006200045c826200058d565b915062000469836200058d565b9250827fffffffffffffffffffffffffffffffffffffffffffffffffffffffffffffffff03821115620004a157620004a062000605565b5b828201905092915050565b6000620004b9826200058d565b9150620004c6836200058d565b9250817fffffffffffffffffffffffffffffffffffffffffffffffffffffffffffffffff048311821515161562000502576200050162000605565b5b828202905092915050565b600073ffffffffffffffffffffffffffffffffffffffff82169050919050565b600060ff82169050919050565b6000819050919050565b600062000551826200056d565b9050919050565b600081905062000568826200067d565b919050565b600073ffffffffffffffffffffffffffffffffffffffff82169050919050565b6000819050919050565b6000620005a48262000558565b9050919050565b6000620005c2620005bc8362000663565b6200052d565b9050919050565b6000620005e0620005da8362000663565b6200053a565b9050919050565b6000620005fe620005f88362000670565b6200050d565b9050919050565b7f4e487b7100000000000000000000000000000000000000000000000000000000600052601160045260246000fd5b7f4e487b7100000000000000000000000000000000000000000000000000000000600052602160045260246000fd5b60008160001c9050919050565b60008160081c9050919050565b6004811062000691576200069062000634565b5b50565b6200069f8162000544565b8114620006ab57600080fd5b50565b620006b9816200058d565b8114620006c557600080fd5b50565b612ba380620006d86000396000f3fe6080604052600436106100c25760003560e01c8063736560e41161007f578063bd124a4d11610059578063bd124a4d1461025a578063cc689c5514610271578063dfbf53ae1461029c578063e2c1b689146102c8576100c2565b8063736560e4146101d057806376842a781461020d578063ae610d581461023e576100c2565b8063066a168f146100c75780631b347aae146100f0578063378aa7011461011b5780635894dd6d1461014657806362ea82db1461015d578063720502441461019f575b600080fd5b3480156100d357600080fd5b506100ee60048036038101906100e99190611bfe565b6102df565b005b3480156100fc57600080fd5b50610105610735565b6040516101129190612411565b60405180910390f35b34801561012757600080fd5b50610130610a97565b60405161013d9190612104565b60405180910390f35b34801561015257600080fd5b5061015b610ab1565b005b34801561016957600080fd5b50610184600480360381019061017f9190611b83565b610d00565b604051610196969594939291906120a3565b60405180910390f35b3480156101ab57600080fd5b506101b4610d56565b6040516101c7979695949392919061218e565b60405180910390f35b3480156101dc57600080fd5b506101f760048036038101906101f29190611bd5565b610dce565b6040516102049190611fe3565b60405180910390f35b34801561021957600080fd5b50610222610e0d565b604051610235979695949392919061211f565b60405180910390f35b61025860048036038101906102539190611bac565b610e6a565b005b34801561026657600080fd5b5061026f61114e565b005b34801561027d57600080fd5b5061028661121a565b6040516102939190612455565b60405180910390f35b3480156102a857600080fd5b506102b1611289565b6040516102bf929190611ffe565b60405180910390f35b3480156102d457600080fd5b506102dd6112bb565b005b600180600381111561031a577f4e487b7100000000000000000000000000000000000000000000000000000000600052602160045260246000fd5b600160000160009054906101000a900460ff166003811115610365577f4e487b7100000000000000000000000000000000000000000000000000000000600052602160045260246000fd5b146103a5576040517f08c379a000000000000000000000000000000000000000000000000000000000815260040161039c90612307565b60405180910390fd5b6001600501548042106103ed576040517f08c379a00000000000000000000000000000000000000000000000000000000081526004016103e4906121fd565b60405180910390fd5b600960003373ffffffffffffffffffffffffffffffffffffffff1673ffffffffffffffffffffffffffffffffffffffff16815260200190815260200160002060000160009054906101000a900460ff1661047c576040517f08c379a0000000000000000000000000000000000000000000000000000000008152600401610473906122e7565b60405180910390fd5b6001600201548510156104c4576040517f08c379a00000000000000000000000000000000000000000000000000000000081526004016104bb90612347565b60405180910390fd5b600960003373ffffffffffffffffffffffffffffffffffffffff1673ffffffffffffffffffffffffffffffffffffffff1681526020019081526020016000206005015484866105139190612543565b1115610554576040517f08c379a000000000000000000000000000000000000000000000000000000000815260040161054b9061225d565b60405180910390fd5b600085858560405160200161056b93929190611faa565b60405160208183030381529060405280519060200120905080600960003373ffffffffffffffffffffffffffffffffffffffff1673ffffffffffffffffffffffffffffffffffffffff1681526020019081526020016000206001015414610607576040517f08c379a00000000000000000000000000000000000000000000000000000000081526004016105fe90612367565b60405180910390fd5b6001600960003373ffffffffffffffffffffffffffffffffffffffff1673ffffffffffffffffffffffffffffffffffffffff16815260200190815260200160002060040160006101000a81548160ff02191690831515021790555085600960003373ffffffffffffffffffffffffffffffffffffffff1673ffffffffffffffffffffffffffffffffffffffff1681526020019081526020016000206002018190555084600960003373ffffffffffffffffffffffffffffffffffffffff1673ffffffffffffffffffffffffffffffffffffffff168152602001908152602001600020600301819055507f270c4f52a30d5e536ebfac48bc6f06c044e6c40116d702e65f23823565452d7333878742604051610725949392919061205e565b60405180910390a1505050505050565b61073d611a7f565b6002806003811115610778577f4e487b7100000000000000000000000000000000000000000000000000000000600052602160045260246000fd5b600160000160009054906101000a900460ff1660038111156107c3577f4e487b7100000000000000000000000000000000000000000000000000000000600052602160045260246000fd5b14610803576040517f08c379a00000000000000000000000000000000000000000000000000000000081526004016107fa90612307565b60405180910390fd5b60016005015480421161084b576040517f08c379a0000000000000000000000000000000000000000000000000000000008152600401610842906123f1565b60405180910390fd5b600760000160009054906101000a900473ffffffffffffffffffffffffffffffffffffffff1673ffffffffffffffffffffffffffffffffffffffff163373ffffffffffffffffffffffffffffffffffffffff16146108de576040517f08c379a00000000000000000000000000000000000000000000000000000000081526004016108d590612327565b60405180910390fd5b6003600160000160006101000a81548160ff0219169083600381111561092d577f4e487b7100000000000000000000000000000000000000000000000000000000600052602160045260246000fd5b02179055507f7ed3e08f4e01cb0fc3643e34bcfd45247dec68ed4414209bda9f5e5eab13d0fd3342604051610963929190611ffe565b60405180910390a1600a60003373ffffffffffffffffffffffffffffffffffffffff1673ffffffffffffffffffffffffffffffffffffffff1681526020019081526020016000206040518060a00160405290816000820160009054906101000a900473ffffffffffffffffffffffffffffffffffffffff1673ffffffffffffffffffffffffffffffffffffffff1673ffffffffffffffffffffffffffffffffffffffff1681526020016001820160009054906101000a900473ffffffffffffffffffffffffffffffffffffffff1673ffffffffffffffffffffffffffffffffffffffff1673ffffffffffffffffffffffffffffffffffffffff16815260200160028201548152602001600382015481526020016004820160009054906101000a900460ff1615151515815250509250505090565b6000600160000160009054906101000a900460ff16905090565b6000806003811115610aec577f4e487b7100000000000000000000000000000000000000000000000000000000600052602160045260246000fd5b600160000160009054906101000a900460ff166003811115610b37577f4e487b7100000000000000000000000000000000000000000000000000000000600052602160045260246000fd5b14610b77576040517f08c379a0000000000000000000000000000000000000000000000000000000008152600401610b6e90612307565b60405180910390fd5b600160040154804211610bbf576040517f08c379a0000000000000000000000000000000000000000000000000000000008152600401610bb6906123f1565b60405180910390fd5b6000600b805490501415610c5d576003600160000160006101000a81548160ff02191690836003811115610c1c577f4e487b7100000000000000000000000000000000000000000000000000000000600052602160045260246000fd5b02179055507f215e9d9e456ceefab5946acf862721c0170084995701b08308363dbf4666dd6442604051610c5091906123c3565b60405180910390a1610cfc565b60018060000160006101000a81548160ff02191690836003811115610cab577f4e487b7100000000000000000000000000000000000000000000000000000000600052602160045260246000fd5b02179055507f3dbdd4835dda2d2ea64f4793b53cbfa0bd395cc2bdb266568ccfedbf2f9fde4b600160000160009054906101000a900460ff1642604051610cf3929190612387565b60405180910390a15b5050565b60096020528060005260406000206000915090508060000160009054906101000a900460ff16908060010154908060020154908060030154908060040160009054906101000a900460ff16908060050154905086565b6000806000806000806000600160000160009054906101000a900460ff16600160000160019054906101000a900473ffffffffffffffffffffffffffffffffffffffff166001800154600160020154600160030154600160040154600160050154965096509650965096509650965090919293949596565b600b8181548110610dde57600080fd5b906000526020600020016000915054906101000a900473ffffffffffffffffffffffffffffffffffffffff1681565b60018060000160009054906101000a900460ff16908060000160019054906101000a900473ffffffffffffffffffffffffffffffffffffffff16908060010154908060020154908060030154908060040154908060050154905087565b6000806003811115610ea5577f4e487b7100000000000000000000000000000000000000000000000000000000600052602160045260246000fd5b600160000160009054906101000a900460ff166003811115610ef0577f4e487b7100000000000000000000000000000000000000000000000000000000600052602160045260246000fd5b14610f30576040517f08c379a0000000000000000000000000000000000000000000000000000000008152600401610f2790612307565b60405180910390fd5b600160040154804210610f78576040517f08c379a0000000000000000000000000000000000000000000000000000000008152600401610f6f906121fd565b60405180910390fd5b600160030154341015610fc0576040517f08c379a0000000000000000000000000000000000000000000000000000000008152600401610fb79061221d565b60405180910390fd5b6040518060c001604052806001151581526020018481526020016000815260200160008152602001600015158152602001600134610ffe9190612543565b815250600960003373ffffffffffffffffffffffffffffffffffffffff1673ffffffffffffffffffffffffffffffffffffffff16815260200190815260200160002060008201518160000160006101000a81548160ff02191690831515021790555060208201518160010155604082015181600201556060820151816003015560808201518160040160006101000a81548160ff02191690831515021790555060a08201518160050155905050600b339080600181540180825580915050600190039060005260206000200160009091909190916101000a81548173ffffffffffffffffffffffffffffffffffffffff021916908373ffffffffffffffffffffffffffffffffffffffff1602179055507fb7a0ff6cc8dfcd966d5d6a3a6da8bd9690d9e2b641687f28ac0f0e28a47c891333344260405161114193929190612027565b60405180910390a1505050565b60008054906101000a900473ffffffffffffffffffffffffffffffffffffffff1673ffffffffffffffffffffffffffffffffffffffff163373ffffffffffffffffffffffffffffffffffffffff16146111dc576040517f08c379a00000000000000000000000000000000000000000000000000000000081526004016111d39061223d565b60405180910390fd5b600160000160019054906101000a900473ffffffffffffffffffffffffffffffffffffffff1673ffffffffffffffffffffffffffffffffffffffff16ff5b6000600a6000600760000160009054906101000a900473ffffffffffffffffffffffffffffffffffffffff1673ffffffffffffffffffffffffffffffffffffffff1673ffffffffffffffffffffffffffffffffffffffff16815260200190815260200160002060030154905090565b60078060000160009054906101000a900473ffffffffffffffffffffffffffffffffffffffff16908060010154905082565b600160050154804211611303576040517f08c379a00000000000000000000000000000000000000000000000000000000081526004016112fa906123f1565b60405180910390fd5b600180600381111561133e577f4e487b7100000000000000000000000000000000000000000000000000000000600052602160045260246000fd5b600160000160009054906101000a900460ff166003811115611389577f4e487b7100000000000000000000000000000000000000000000000000000000600052602160045260246000fd5b146113c9576040517f08c379a00000000000000000000000000000000000000000000000000000000081526004016113c090612307565b60405180910390fd5b6000805b600b805490508110156114b65760096000600b8381548110611418577f4e487b7100000000000000000000000000000000000000000000000000000000600052603260045260246000fd5b9060005260206000200160009054906101000a900473ffffffffffffffffffffffffffffffffffffffff1673ffffffffffffffffffffffffffffffffffffffff1673ffffffffffffffffffffffffffffffffffffffff16815260200190815260200160002060040160009054906101000a900460ff16156114a3576001826114a091906124ed565b91505b80806114ae906126f7565b9150506113cd565b506000811415611550576003600160000160006101000a81548160ff0219169083600381111561150f577f4e487b7100000000000000000000000000000000000000000000000000000000600052602160045260246000fd5b02179055507f215e9d9e456ceefab5946acf862721c0170084995701b08308363dbf4666dd6442604051611543919061227d565b60405180910390a16115f8565b6002600160000160006101000a81548160ff0219169083600381111561159f577f4e487b7100000000000000000000000000000000000000000000000000000000600052602160045260246000fd5b02179055507f3dbdd4835dda2d2ea64f4793b53cbfa0bd395cc2bdb266568ccfedbf2f9fde4b600160000160009054906101000a900460ff16426040516115e79291906122ab565b60405180910390a16115f76115fd565b5b505050565b6002806003811115611638577f4e487b7100000000000000000000000000000000000000000000000000000000600052602160045260246000fd5b600160000160009054906101000a900460ff166003811115611683577f4e487b7100000000000000000000000000000000000000000000000000000000600052602160045260246000fd5b146116c3576040517f08c379a00000000000000000000000000000000000000000000000000000000081526004016116ba90612307565b60405180910390fd5b60008060005b600b80549050811015611852576000600b8281548110611712577f4e487b7100000000000000000000000000000000000000000000000000000000600052603260045260246000fd5b9060005260206000200160009054906101000a900473ffffffffffffffffffffffffffffffffffffffff169050600960008273ffffffffffffffffffffffffffffffffffffffff1673ffffffffffffffffffffffffffffffffffffffff16815260200190815260200160002060040160009054906101000a900460ff16611799575061183f565b6000600960008373ffffffffffffffffffffffffffffffffffffffff1673ffffffffffffffffffffffffffffffffffffffff16815260200190815260200160002060030154600960008473ffffffffffffffffffffffffffffffffffffffff1673ffffffffffffffffffffffffffffffffffffffff1681526020019081526020016000206002015461182b9190612543565b90508381111561183c578194508093505b50505b808061184a906126f7565b9150506116c9565b5060405180604001604052808373ffffffffffffffffffffffffffffffffffffffff16815260200182815250600760008201518160000160006101000a81548173ffffffffffffffffffffffffffffffffffffffff021916908373ffffffffffffffffffffffffffffffffffffffff160217905550602082015181600101559050507ff759f57bf4b808b6e91a1c291d1cc81e47f24aa62e8cf7f6cc30b23822e9ac2b60074260405161190692919061242c565b60405180910390a16040518060a001604052808373ffffffffffffffffffffffffffffffffffffffff1681526020013073ffffffffffffffffffffffffffffffffffffffff16815260200160018001548152602001626ebe004261196a91906124ed565b815260200160001515815250600a60008473ffffffffffffffffffffffffffffffffffffffff1673ffffffffffffffffffffffffffffffffffffffff16815260200190815260200160002060008201518160000160006101000a81548173ffffffffffffffffffffffffffffffffffffffff021916908373ffffffffffffffffffffffffffffffffffffffff16021790555060208201518160010160006101000a81548173ffffffffffffffffffffffffffffffffffffffff021916908373ffffffffffffffffffffffffffffffffffffffff160217905550604082015181600201556060820151816003015560808201518160040160006101000a81548160ff021916908315150217905550905050505050565b6040518060a00160405280600073ffffffffffffffffffffffffffffffffffffffff168152602001600073ffffffffffffffffffffffffffffffffffffffff16815260200160008152602001600081526020016000151581525090565b6000611aef611aea84612495565b612470565b905082815260208101848484011115611b0757600080fd5b611b12848285612650565b509392505050565b600081359050611b2981612b28565b92915050565b600081359050611b3e81612b3f565b92915050565b600082601f830112611b5557600080fd5b8135611b65848260208601611adc565b91505092915050565b600081359050611b7d81612b56565b92915050565b600060208284031215611b9557600080fd5b6000611ba384828501611b1a565b91505092915050565b600060208284031215611bbe57600080fd5b6000611bcc84828501611b2f565b91505092915050565b600060208284031215611be757600080fd5b6000611bf584828501611b6e565b91505092915050565b600080600060608486031215611c1357600080fd5b6000611c2186828701611b6e565b9350506020611c3286828701611b6e565b925050604084013567ffffffffffffffff811115611c4f57600080fd5b611c5b86828701611b44565b9150509250925092565b611c6e816125d9565b82525050565b611c7d816125c7565b82525050565b611c8c816125c7565b82525050565b611c9b816125eb565b82525050565b611caa816125eb565b82525050565b611cb9816125f7565b82525050565b611cc88161263e565b82525050565b6000611cd9826124c6565b611ce381856124e2565b9350611cf381856020860161265f565b80840191505092915050565b6000611d0c6019836124d1565b9150611d17826127f5565b602082019050919050565b6000611d2f6018836124d1565b9150611d3a8261281e565b602082019050919050565b6000611d526031836124d1565b9150611d5d82612847565b604082019050919050565b6000611d756033836124d1565b9150611d8082612896565b604082019050919050565b6000611d986022836124d1565b9150611da3826128e5565b604082019050919050565b6000611dbb6013836124d1565b9150611dc682612934565b602082019050919050565b6000611dde602d836124d1565b9150611de98261295d565b604082019050919050565b6000611e01600d836124d1565b9150611e0c826129ac565b602082019050919050565b6000611e24602c836124d1565b9150611e2f826129d5565b604082019050919050565b6000611e476014836124d1565b9150611e5282612a24565b602082019050919050565b6000611e6a602a836124d1565b9150611e7582612a4d565b604082019050919050565b6000611e8d600d836124d1565b9150611e9882612a9c565b602082019050919050565b6000611eb0602e836124d1565b9150611ebb82612ac5565b604082019050919050565b60a082016000820151611edc6000850182611c74565b506020820151611eef6020850182611c74565b506040820151611f026040850182611f75565b506060820151611f156060850182611f75565b506080820151611f286080850182611c92565b50505050565b604082016000808301549050611f4381612692565b611f506000860182611c74565b5060018301549050611f61816126ac565b611f6e6020860182611f75565b5050505050565b611f7e81612634565b82525050565b611f8d81612634565b82525050565b611fa4611f9f82612634565b612740565b82525050565b6000611fb68286611f93565b602082019150611fc68285611f93565b602082019150611fd68284611cce565b9150819050949350505050565b6000602082019050611ff86000830184611c83565b92915050565b60006040820190506120136000830185611c83565b6120206020830184611f84565b9392505050565b600060608201905061203c6000830186611c83565b6120496020830185611f84565b6120566040830184611f84565b949350505050565b60006080820190506120736000830187611c83565b6120806020830186611f84565b61208d6040830185611f84565b61209a6060830184611f84565b95945050505050565b600060c0820190506120b86000830189611ca1565b6120c56020830188611cb0565b6120d26040830187611f84565b6120df6060830186611f84565b6120ec6080830185611ca1565b6120f960a0830184611f84565b979650505050505050565b60006020820190506121196000830184611cbf565b92915050565b600060e082019050612134600083018a611cbf565b6121416020830189611c65565b61214e6040830188611f84565b61215b6060830187611f84565b6121686080830186611f84565b61217560a0830185611f84565b61218260c0830184611f84565b98975050505050505050565b600060e0820190506121a3600083018a611cbf565b6121b06020830189611c83565b6121bd6040830188611f84565b6121ca6060830187611f84565b6121d76080830186611f84565b6121e460a0830185611f84565b6121f160c0830184611f84565b98975050505050505050565b6000602082019050818103600083015261221681611cff565b9050919050565b6000602082019050818103600083015261223681611d22565b9050919050565b6000602082019050818103600083015261225681611d45565b9050919050565b6000602082019050818103600083015261227681611d68565b9050919050565b6000604082019050818103600083015261229681611d8b565b90506122a56020830184611f84565b92915050565b600060608201905081810360008301526122c481611dae565b90506122d36020830185611cbf565b6122e06040830184611f84565b9392505050565b6000602082019050818103600083015261230081611dd1565b9050919050565b6000602082019050818103600083015261232081611df4565b9050919050565b6000602082019050818103600083015261234081611e17565b9050919050565b6000602082019050818103600083015261236081611e3a565b9050919050565b6000602082019050818103600083015261238081611e5d565b9050919050565b600060608201905081810360008301526123a081611e80565b90506123af6020830185611cbf565b6123bc6040830184611f84565b9392505050565b600060408201905081810360008301526123dc81611e80565b90506123eb6020830184611f84565b92915050565b6000602082019050818103600083015261240a81611ea3565b9050919050565b600060a0820190506124266000830184611ec6565b92915050565b60006060820190506124416000830185611f2e565b61244e6040830184611f84565b9392505050565b600060208201905061246a6000830184611f84565b92915050565b600061247a61248b565b905061248682826126c6565b919050565b6000604051905090565b600067ffffffffffffffff8211156124b0576124af6127a8565b5b6124b9826127d7565b9050602081019050919050565b600081519050919050565b600082825260208201905092915050565b600081905092915050565b60006124f882612634565b915061250383612634565b9250827fffffffffffffffffffffffffffffffffffffffffffffffffffffffffffffffff038211156125385761253761274a565b5b828201905092915050565b600061254e82612634565b915061255983612634565b9250817fffffffffffffffffffffffffffffffffffffffffffffffffffffffffffffffff04831182151516156125925761259161274a565b5b828202905092915050565b600073ffffffffffffffffffffffffffffffffffffffff82169050919050565b6000819050919050565b60006125d282612614565b9050919050565b60006125e482612614565b9050919050565b60008115159050919050565b6000819050919050565b600081905061260f82612b14565b919050565b600073ffffffffffffffffffffffffffffffffffffffff82169050919050565b6000819050919050565b600061264982612601565b9050919050565b82818337600083830152505050565b60005b8381101561267d578082015181840152602081019050612662565b8381111561268c576000848401525b50505050565b60006126a56126a0836127e8565b61259d565b9050919050565b60006126bf6126ba836127e8565b6125bd565b9050919050565b6126cf826127d7565b810181811067ffffffffffffffff821117156126ee576126ed6127a8565b5b80604052505050565b600061270282612634565b91507fffffffffffffffffffffffffffffffffffffffffffffffffffffffffffffffff8214156127355761273461274a565b5b600182019050919050565b6000819050919050565b7f4e487b7100000000000000000000000000000000000000000000000000000000600052601160045260246000fd5b7f4e487b7100000000000000000000000000000000000000000000000000000000600052602160045260246000fd5b7f4e487b7100000000000000000000000000000000000000000000000000000000600052604160045260246000fd5b6000601f19601f8301169050919050565b60008160001c9050919050565b7f43616e6e6f742062696420616674657220646561646c696e6500000000000000600082015250565b7f4465706f7369742076616c756520697320746f6f206c6f770000000000000000600082015250565b7f596f7520617265206e6f7420616c6c6f77656420746f2064656c65746520746860008201527f6973206164766572746973656d656e7421000000000000000000000000000000602082015250565b7f52657665616c6564206269642076616c75657320646f6573206e6f74206d617460008201527f6368207769746820746865206465706f73697400000000000000000000000000602082015250565b7f4269642072657665616c696e6720726f756e642c206e6f2076616c696420626960008201527f6473000000000000000000000000000000000000000000000000000000000000602082015250565b7f4269642072657665616c696e6720726f756e6400000000000000000000000000600082015250565b7f54686973206163636f756e7420686173206e6f742062696420696e207468652060008201527f62696464696e6720726f756e6400000000000000000000000000000000000000602082015250565b7f496e76616c696420737461746500000000000000000000000000000000000000600082015250565b7f596f7520617265206e6f74207468652077696e6e6572206f662074686520616460008201527f766572746973656d656e74210000000000000000000000000000000000000000602082015250565b7f4269642076616c756520697320746f6f206c6f77000000000000000000000000600082015250565b7f2041637475616c2062696420616e642072657665616c696e672062696420646f60008201527f206e6f74206d6174636800000000000000000000000000000000000000000000602082015250565b7f42696464696e6720726f756e6400000000000000000000000000000000000000600082015250565b7f43616e6e6f7420706572666f726d207468697320616374696f6e206265666f7260008201527f652074686520646561646c696e65000000000000000000000000000000000000602082015250565b60048110612b2557612b24612779565b5b50565b612b31816125c7565b8114612b3c57600080fd5b50565b612b48816125f7565b8114612b5357600080fd5b50565b612b5f81612634565b8114612b6a57600080fd5b5056fea2646970667358221220d9340e70ef0942f1936579575690f46c2114ead9de6e1094024eeaffa2db654764736f6c63430008010033a264697066735822122062081f3ed8a9a9a28d1d6b929e6133b1d8972d8a33c02d4eb0b057450a7f694064736f6c63430008010033",
  "immutableReferences": {},
  "source": "// SPDX-License-Identifier: MIT\r\npragma solidity ^0.8.1;\r\n\r\nimport \"./Advertisement.sol\";\r\n\r\ncontract AdvertisementController {\r\n    //Defining the state variables of advertisement controller Contract\r\n\r\n    address private admin; \r\n    //Declare a variable to store the address of owner of the contract who is going to deploy the contract\r\n    \r\n    mapping(address => address) public PUAddresses;\r\n    //Through this mapping the advertisement address is map to PU address to look up the PU address associated with a given advertisement address.\r\n\r\n    event AddedNewAdvertisement(address advertisement);\r\n    //Declare an event to emit, when a new advertisement is added to the system by taking the address of newly created advertisement\r\n    \r\n    event DeletedAdvertisement(address advertisement);\r\n    //Declare an event to emit, when a aution is deleted from the system by taking the address of newly created advertisement\r\n\r\n    constructor() {\r\n        admin = msg.sender;\r\n    }\r\n\r\n    //fuction with these parameters\r\n    function deployNewAdvertisement(\r\n        address payable _PU, \r\n        uint _bandwidth, \r\n        uint _minBidValue,\r\n        uint _depositValue\r\n    ) public {\r\n        // New instance of advertisement is created here\r\n        Advertisement newAdvertisement = new Advertisement(\r\n            _PU, \r\n            _bandwidth, \r\n            _minBidValue, \r\n            _depositValue\r\n        );\r\n        \r\n        //This line associates the PU's address with the address of the newly created advertisement contract\r\n        PUAddresses[address(newAdvertisement)] = _PU;\r\n\r\n       //emitted to notify external entities that a new advertisement has been successfully added.\r\n        emit AddedNewAdvertisement(address(newAdvertisement));\r\n    }\r\n\r\n    /// Advertisement cannot be deleted until either:\r\n    ///     (1) Token has been retrieved\r\n    ///     (2) Token has expired\r\n    ///     (3) Advertisement has closed with no bids\r\n    /// Advertisement can only be deleted by admin or by the advertisement PU\r\n    \r\n     \r\n     // Function to delete an advertisement\r\n     function deleteAdvertisement(address advertisementAddress) public {\r\n         // Get the Advertisement contract instance using the provided address\r\n         Advertisement advertisement = Advertisement(advertisementAddress);\r\n\r\n         // Ensure that only the admin or the PU associated with the advertisement can delete it\r\n         require(msg.sender == PUAddresses[advertisementAddress] || msg.sender == admin, \"Can only be deleted by admin or the advertisement PU\");\r\n        \r\n         // Check if the token associated with the advertisement has expired or has been retrieved\r\n         bool tokenExpired = block.timestamp > advertisement.getTokenValidUntil() && advertisement.getTokenValidUntil() != 0;\r\n         // If the token has not expired or been retrieved, ensure that the advertisement is in a state ready for deletion\r\n         if (!tokenExpired) {\r\n             require(advertisement.getCurrentState() == Advertisement.State.ReadyForDeletion, \"Cannot delete advertisement before the token has expired or been retrieved\");\r\n         }\r\n        \r\n         // Call the deleteAdvertisement function of the Advertisement contract to delete it\r\n         advertisement.deleteAdvertisement();\r\n         // Remove the advertisement address from the list of PU addresses\r\n         delete PUAddresses[advertisementAddress];\r\n\r\n         // Emit an event indicating the deletion of the advertisement\r\n         emit DeletedAdvertisement(advertisementAddress);\r\n     }\r\n\r\n     // Function to get the current timestamp\r\n     function currentTime() internal view virtual returns(uint) {\r\n         return block.timestamp;\r\n     }\r\n\r\n     // Function to get the address of the admin\r\n     function getAdmin() internal view returns(address) {\r\n         return admin;\r\n     }\r\n}",
  "sourcePath": "C:\\Users\\Sampavi Sivakumaran\\Desktop\\FYP\\Blockchain_Based_Spectrum_Sharing_for_5G_and_Beyond\\contracts\\AdvertisementController.sol",
  "compiler": {
    "name": "solc",
    "version": "0.8.1+commit.df193b15.Emscripten.clang"
  },
  "schemaVersion": "3.4.16",
  "updatedAt": "2024-05-09T03:46:00.537Z",
  "networkType": "ethereum",
  "devdoc": {
    "kind": "dev",
    "methods": {},
    "version": 1
  },
  "userdoc": {
    "kind": "user",
    "methods": {
      "deleteAdvertisement(address)": {
        "notice": "Advertisement cannot be deleted until either:     (1) Token has been retrieved     (2) Token has expired     (3) Advertisement has closed with no bids Advertisement can only be deleted by admin or by the advertisement PU"
      }
    },
    "version": 1
  }
}