{
  "contractName": "Auction",
  "abi": [
    {
      "inputs": [
        {
          "internalType": "address payable",
          "name": "_PU",
          "type": "address"
        },
        {
          "internalType": "uint256",
          "name": "_bandwidth",
          "type": "uint256"
        },
        {
          "internalType": "uint256",
          "name": "_minBidValue",
          "type": "uint256"
        },
        {
          "internalType": "uint256",
          "name": "_depositValue",
          "type": "uint256"
        }
      ],
      "stateMutability": "nonpayable",
      "type": "constructor"
    },
    {
      "anonymous": false,
      "inputs": [
        {
          "components": [
            {
              "internalType": "address",
              "name": "accountAddress",
              "type": "address"
            },
            {
              "internalType": "uint256",
              "name": "bid",
              "type": "uint256"
            }
          ],
          "indexed": false,
          "internalType": "struct Auction.Winner",
          "name": "winner",
          "type": "tuple"
        },
        {
          "indexed": false,
          "internalType": "uint256",
          "name": "contractBalance",
          "type": "uint256"
        },
        {
          "indexed": false,
          "internalType": "uint256",
          "name": "currentTime",
          "type": "uint256"
        }
      ],
      "name": "AuctionEnded",
      "type": "event"
    },
    {
      "anonymous": false,
      "inputs": [
        {
          "indexed": false,
          "internalType": "string",
          "name": "whichRound",
          "type": "string"
        },
        {
          "indexed": false,
          "internalType": "uint256",
          "name": "currentTime",
          "type": "uint256"
        }
      ],
      "name": "ClosedAuctionWithNoBids",
      "type": "event"
    },
    {
      "anonymous": false,
      "inputs": [
        {
          "indexed": false,
          "internalType": "string",
          "name": "whichRound",
          "type": "string"
        },
        {
          "indexed": false,
          "internalType": "enum Auction.State",
          "name": "state",
          "type": "uint8"
        },
        {
          "indexed": false,
          "internalType": "uint256",
          "name": "currentTime",
          "type": "uint256"
        }
      ],
      "name": "ClosedRound",
      "type": "event"
    },
    {
      "anonymous": false,
      "inputs": [
        {
          "components": [
            {
              "internalType": "enum Auction.State",
              "name": "currentState",
              "type": "uint8"
            },
            {
              "internalType": "address payable",
              "name": "PU",
              "type": "address"
            },
            {
              "internalType": "uint256",
              "name": "bandwidth",
              "type": "uint256"
            },
            {
              "internalType": "uint256",
              "name": "minBidValue",
              "type": "uint256"
            },
            {
              "internalType": "uint256",
              "name": "depositValue",
              "type": "uint256"
            },
            {
              "internalType": "uint256",
              "name": "BidsDeadline",
              "type": "uint256"
            },
            {
              "internalType": "uint256",
              "name": "BidsRevealDeadline",
              "type": "uint256"
            }
          ],
          "indexed": false,
          "internalType": "struct Auction.AuctionInfo",
          "name": "auctionInfo",
          "type": "tuple"
        },
        {
          "indexed": false,
          "internalType": "uint256",
          "name": "currentTime",
          "type": "uint256"
        }
      ],
      "name": "CreatedNewAuction",
      "type": "event"
    },
    {
      "anonymous": false,
      "inputs": [
        {
          "components": [
            {
              "internalType": "address",
              "name": "accountAddress",
              "type": "address"
            },
            {
              "internalType": "uint256",
              "name": "bid",
              "type": "uint256"
            }
          ],
          "indexed": false,
          "internalType": "struct Auction.Winner",
          "name": "winner",
          "type": "tuple"
        },
        {
          "indexed": false,
          "internalType": "uint256",
          "name": "currentTime",
          "type": "uint256"
        }
      ],
      "name": "FoundHighestBid",
      "type": "event"
    },
    {
      "anonymous": false,
      "inputs": [
        {
          "indexed": false,
          "internalType": "address",
          "name": "SU",
          "type": "address"
        },
        {
          "indexed": false,
          "internalType": "uint256",
          "name": "deposit",
          "type": "uint256"
        },
        {
          "indexed": false,
          "internalType": "uint256",
          "name": "currentTime",
          "type": "uint256"
        },
        {
          "indexed": false,
          "internalType": "uint256",
          "name": "minuUsageTime",
          "type": "uint256"
        }
      ],
      "name": "ReceivedHiddenBid",
      "type": "event"
    },
    {
      "anonymous": false,
      "inputs": [
        {
          "indexed": false,
          "internalType": "address",
          "name": "SU",
          "type": "address"
        },
        {
          "indexed": false,
          "internalType": "uint256",
          "name": "bid",
          "type": "uint256"
        },
        {
          "indexed": false,
          "internalType": "uint256",
          "name": "currentTime",
          "type": "uint256"
        },
        {
          "indexed": false,
          "internalType": "uint256",
          "name": "minuUsageTime",
          "type": "uint256"
        }
      ],
      "name": "ReceivedOpenBid",
      "type": "event"
    },
    {
      "anonymous": false,
      "inputs": [
        {
          "indexed": false,
          "internalType": "address",
          "name": "retrievedBy",
          "type": "address"
        },
        {
          "indexed": false,
          "internalType": "uint256",
          "name": "currentTime",
          "type": "uint256"
        }
      ],
      "name": "RetrievedToken",
      "type": "event"
    },
    {
      "anonymous": false,
      "inputs": [
        {
          "indexed": false,
          "internalType": "string",
          "name": "context",
          "type": "string"
        },
        {
          "indexed": false,
          "internalType": "address",
          "name": "to",
          "type": "address"
        },
        {
          "indexed": false,
          "internalType": "uint256",
          "name": "value",
          "type": "uint256"
        },
        {
          "indexed": false,
          "internalType": "uint256",
          "name": "currentTime",
          "type": "uint256"
        }
      ],
      "name": "TransferEvent",
      "type": "event"
    },
    {
      "inputs": [
        {
          "internalType": "uint256",
          "name": "",
          "type": "uint256"
        }
      ],
      "name": "BidsAddresses",
      "outputs": [
        {
          "internalType": "address",
          "name": "",
          "type": "address"
        }
      ],
      "stateMutability": "view",
      "type": "function"
    },
    {
      "inputs": [],
      "name": "auctionInfo",
      "outputs": [
        {
          "internalType": "enum Auction.State",
          "name": "currentState",
          "type": "uint8"
        },
        {
          "internalType": "address payable",
          "name": "PU",
          "type": "address"
        },
        {
          "internalType": "uint256",
          "name": "bandwidth",
          "type": "uint256"
        },
        {
          "internalType": "uint256",
          "name": "minBidValue",
          "type": "uint256"
        },
        {
          "internalType": "uint256",
          "name": "depositValue",
          "type": "uint256"
        },
        {
          "internalType": "uint256",
          "name": "BidsDeadline",
          "type": "uint256"
        },
        {
          "internalType": "uint256",
          "name": "BidsRevealDeadline",
          "type": "uint256"
        }
      ],
      "stateMutability": "view",
      "type": "function"
    },
    {
      "inputs": [
        {
          "internalType": "address",
          "name": "",
          "type": "address"
        }
      ],
      "name": "bids",
      "outputs": [
        {
          "internalType": "bool",
          "name": "existsBid",
          "type": "bool"
        },
        {
          "internalType": "bytes32",
          "name": "Bid",
          "type": "bytes32"
        },
        {
          "internalType": "uint256",
          "name": "BidReveal",
          "type": "uint256"
        },
        {
          "internalType": "bool",
          "name": "isBidRevealValid",
          "type": "bool"
        },
        {
          "internalType": "uint256",
          "name": "deposit",
          "type": "uint256"
        },
        {
          "internalType": "uint256",
          "name": "minUsageTime",
          "type": "uint256"
        }
      ],
      "stateMutability": "view",
      "type": "function"
    },
    {
      "inputs": [],
      "name": "winner",
      "outputs": [
        {
          "internalType": "address",
          "name": "accountAddress",
          "type": "address"
        },
        {
          "internalType": "uint256",
          "name": "bid",
          "type": "uint256"
        }
      ],
      "stateMutability": "view",
      "type": "function"
    }
  ],
  "bytecode": "0x60806040523480156200001157600080fd5b5060405162000c0f38038062000c0f83398181016040528101906200003791906200027f565b336000806101000a81548173ffffffffffffffffffffffffffffffffffffffff021916908373ffffffffffffffffffffffffffffffffffffffff1602179055506040518060e0016040528060006003811115620000bd577f4e487b7100000000000000000000000000000000000000000000000000000000600052602160045260246000fd5b81526020018573ffffffffffffffffffffffffffffffffffffffff168152602001848152602001600184620000f39190620004ac565b8152602001600183620001079190620004ac565b815260200162015180426200011d91906200044f565b81526020016202a300426200013391906200044f565b815250600160008201518160000160006101000a81548160ff021916908360038111156200018a577f4e487b7100000000000000000000000000000000000000000000000000000000600052602160045260246000fd5b021790555060208201518160000160016101000a81548173ffffffffffffffffffffffffffffffffffffffff021916908373ffffffffffffffffffffffffffffffffffffffff16021790555060408201518160010155606082015181600201556080820151816003015560a0820151816004015560c082015181600501559050507fc932bfe1d2a8c99fe45058b82a3d6b37508c1a1eef86e5447bd1588121ab41756001426040516200023f92919062000421565b60405180910390a150505050620006c8565b600081519050620002628162000694565b92915050565b6000815190506200027981620006ae565b92915050565b600080600080608085870312156200029657600080fd5b6000620002a68782880162000251565b9450506020620002b98782880162000268565b9350506040620002cc8782880162000268565b9250506060620002df8782880162000268565b91505092959194509250565b620002f68162000544565b82525050565b620003078162000597565b82525050565b60e0820160008083015490506200032481620005ab565b620003336000860182620002fc565b506200033f81620005e7565b6200034e6020860182620002eb565b50600183015490506200036181620005c9565b620003706040860182620003ff565b50600283015490506200038381620005c9565b620003926060860182620003ff565b5060038301549050620003a581620005c9565b620003b46080860182620003ff565b5060048301549050620003c781620005c9565b620003d660a0860182620003ff565b5060058301549050620003e981620005c9565b620003f860c0860182620003ff565b5050505050565b6200040a816200058d565b82525050565b6200041b816200058d565b82525050565b6000610100820190506200043960008301856200030d565b6200044860e083018462000410565b9392505050565b60006200045c826200058d565b915062000469836200058d565b9250827fffffffffffffffffffffffffffffffffffffffffffffffffffffffffffffffff03821115620004a157620004a062000605565b5b828201905092915050565b6000620004b9826200058d565b9150620004c6836200058d565b9250817fffffffffffffffffffffffffffffffffffffffffffffffffffffffffffffffff048311821515161562000502576200050162000605565b5b828202905092915050565b600073ffffffffffffffffffffffffffffffffffffffff82169050919050565b600060ff82169050919050565b6000819050919050565b600062000551826200056d565b9050919050565b600081905062000568826200067d565b919050565b600073ffffffffffffffffffffffffffffffffffffffff82169050919050565b6000819050919050565b6000620005a48262000558565b9050919050565b6000620005c2620005bc8362000663565b6200052d565b9050919050565b6000620005e0620005da8362000663565b6200053a565b9050919050565b6000620005fe620005f88362000670565b6200050d565b9050919050565b7f4e487b7100000000000000000000000000000000000000000000000000000000600052601160045260246000fd5b7f4e487b7100000000000000000000000000000000000000000000000000000000600052602160045260246000fd5b60008160001c9050919050565b60008160081c9050919050565b6004811062000691576200069062000634565b5b50565b6200069f8162000544565b8114620006ab57600080fd5b50565b620006b9816200058d565b8114620006c557600080fd5b50565b61053780620006d86000396000f3fe608060405234801561001057600080fd5b506004361061004c5760003560e01c806355d64d031461005157806362ea82db14610075578063736560e4146100aa578063dfbf53ae146100da575b600080fd5b6100596100f9565b60405161006c9796959493929190610398565b60405180910390f35b61008f600480360381019061008a9190610247565b610156565b6040516100a196959493929190610337565b60405180910390f35b6100c460048036038101906100bf9190610270565b6101ac565b6040516100d191906102f3565b60405180910390f35b6100e26101eb565b6040516100f092919061030e565b60405180910390f35b60018060000160009054906101000a900460ff16908060000160019054906101000a900473ffffffffffffffffffffffffffffffffffffffff16908060010154908060020154908060030154908060040154908060050154905087565b60096020528060005260406000206000915090508060000160009054906101000a900460ff16908060010154908060020154908060030160009054906101000a900460ff16908060040154908060050154905086565b600b81815481106101bc57600080fd5b906000526020600020016000915054906101000a900473ffffffffffffffffffffffffffffffffffffffff1681565b60078060000160009054906101000a900473ffffffffffffffffffffffffffffffffffffffff16908060010154905082565b60008135905061022c816104d3565b92915050565b600081359050610241816104ea565b92915050565b60006020828403121561025957600080fd5b60006102678482850161021d565b91505092915050565b60006020828403121561028257600080fd5b600061029084828501610232565b91505092915050565b6102a281610419565b82525050565b6102b181610407565b82525050565b6102c08161042b565b82525050565b6102cf81610437565b82525050565b6102de8161047e565b82525050565b6102ed81610474565b82525050565b600060208201905061030860008301846102a8565b92915050565b600060408201905061032360008301856102a8565b61033060208301846102e4565b9392505050565b600060c08201905061034c60008301896102b7565b61035960208301886102c6565b61036660408301876102e4565b61037360608301866102b7565b61038060808301856102e4565b61038d60a08301846102e4565b979650505050505050565b600060e0820190506103ad600083018a6102d5565b6103ba6020830189610299565b6103c760408301886102e4565b6103d460608301876102e4565b6103e160808301866102e4565b6103ee60a08301856102e4565b6103fb60c08301846102e4565b98975050505050505050565b600061041282610454565b9050919050565b600061042482610454565b9050919050565b60008115159050919050565b6000819050919050565b600081905061044f826104bf565b919050565b600073ffffffffffffffffffffffffffffffffffffffff82169050919050565b6000819050919050565b600061048982610441565b9050919050565b7f4e487b7100000000000000000000000000000000000000000000000000000000600052602160045260246000fd5b600481106104d0576104cf610490565b5b50565b6104dc81610407565b81146104e757600080fd5b50565b6104f381610474565b81146104fe57600080fd5b5056fea26469706673582212203f3345b5d182cd26943ca6aa8076e6f5760bbacef931142faf68f6c47e86bf1264736f6c63430008010033",
  "immutableReferences": {},
  "source": "// SPDX-License-Identifier: MIT\r\npragma solidity ^0.8.1;\r\n\r\ncontract Auction {\r\n    enum State {\r\n        ReadyForBids,//0th state\r\n        ReadyForBidsReveal,//1st state\r\n        Closed,//2nd state\r\n        ReadyForDeletion//3rd state\r\n    }\r\n\r\n    //The following modifiers are the preconditions that should satisfy before a finction execute\r\n\r\n    //It checks if the current state of the auction matches the expected state provided as an argument to the function\r\n    //It ensures that functions can only be executed when the auction is in the specified state.\r\n    modifier inState(State expectedState) {\r\n        require(auctionInfo.currentState == expectedState, \"Invalid state\");\r\n        _;\r\n    }\r\n\r\n    //ensures that functions can only be executed before a specified deadline\r\n    //It checks the current block's timestamp against the provided deadline\r\n    modifier isBeforeDeadline(uint deadline) {\r\n        require(block.timestamp < deadline, \"Cannot bid after deadline\");\r\n        _;\r\n    }\r\n\r\n    //ensures that functions can only be executed after a specified deadline. \r\n    //It checks whether the current block's timestamp is greater than the specified deadline.\r\n    modifier isAfterDeadline(uint deadline) {\r\n        require(block.timestamp > deadline, \"Cannot perform this action before the deadline\");\r\n        _;\r\n    }\r\n\r\n    //This struct defines the parameters related to the auction\r\n    struct AuctionInfo {\r\n        State currentState;\r\n        address payable PU;//PU account address\r\n        uint bandwidth;//The amount of spectrum that is auctioned off by the PU\r\n        uint minBidValue;//The minimimum bidvalue that the PU will accept for this amount of bandwidth(in wei)\r\n        uint depositValue;//The minimum deposit value which every bidder must transfer to the contract in order to participate in the auction(wei). \r\n        uint BidsDeadline;//bid closing time(s)\r\n        uint BidsRevealDeadline;//Bid reveal closing time(s)\r\n    }\r\n\r\n    //Information related to a single bid\r\n    struct Bid {\r\n        bool existsBid;// states if a bid exists.\r\n        bytes32 Bid;//Will contain a hashed bid\r\n        uint BidReveal;// Contains the bid, revealed bid\r\n        bool isBidRevealValid;//defines if the bidreveal is valid or not\r\n        uint deposit;//Contains the deposit amount of a bidder\r\n        uint minUsageTime;//Contains the minimum required usage time\r\n    }\r\n\r\n    //information about the winner of the auction\r\n    struct Winner {\r\n        address accountAddress;//stores the address of the winner\r\n        uint bid;//Stores the value of the winning bid\r\n    }\r\n\r\n    //represents a token related to the auction\r\n    struct Token {\r\n        address winner; //the address of the token winner\r\n        address auctionContract;//the address of the auction contract associated with the token\r\n        uint bandwidth;//the bandwidth represented by the token\r\n        uint validUntil;//the timestamp until which the token is valid\r\n        bool isSpent;//indicating whether the token has been spent\r\n    }\r\n\r\n    address private controller;//ntended to store the address of the contract controller or owner\r\n    AuctionInfo public auctionInfo;//intended to store information about the current state and parameters of the auction.\r\n    Winner public winner;//intended to store information about the winner of the auction.\r\n    \r\n    //This line declares a public mapping named bids, which associates address keys with Bid values. \r\n    //This mapping is likely used to keep track of bids made by different addresses in the auction.\r\n    mapping(address => Bid) public bids;\r\n\r\n    //used to manage tokens related to the auction, such as those awarded to the winner.\r\n    mapping(address => Token) private token;\r\n\r\n    //This array is likely intended to store the addresses of bidders who have submitted hidden bids in the auction\r\n    address[] public BidsAddresses;\r\n\r\n    //This event is emitted when a new auction is created. \r\n    //It includes information about the newly created auction.\r\n    //It also includes the event emitted time\r\n    event CreatedNewAuction(AuctionInfo auctionInfo, uint currentTime);\r\n\r\n    //This event is emitted when a bid is received. \r\n    //It includes the address of the SU who placed the bid, the deposit amount.\r\n    //Also the event emitted time, and the minimum required usage time.\r\n    event ReceivedHiddenBid(address SU, uint deposit, uint currentTime, uint minuUsageTime);\r\n\r\n    //This event is emitted when a open bid is received. others are same as previous\r\n    event ReceivedOpenBid(address SU, uint bid, uint currentTime,  uint minuUsageTime);\r\n\r\n    //This event is emitted when a round of bidding is closed. \r\n    //It includes information about which round of bidding is being closed, the current state of the auction\r\n    //Also the event emitted time\r\n    event ClosedRound(string whichRound, State state, uint currentTime);\r\n\r\n    //This event is emitted when the auction is closed without receiving any bids. \r\n    //It includes information about which round of bidding has ended without any bids.\r\n    event ClosedAuctionWithNoBids(string whichRound, uint currentTime);\r\n\r\n    //This event is emitted when the highest bid is found during the auction. \r\n    //It includes information about the winner of the auction and the event emitted time.\r\n    event FoundHighestBid(Winner winner, uint currentTime);\r\n\r\n    //This event is emitted when the auction ends. \r\n    //It includes information about the winner of the auction, and the auction emitted time\r\n    //Also the contractBalance (the balance of the contract at the end of the auction)\r\n    event AuctionEnded(Winner winner, uint contractBalance, uint currentTime);\r\n\r\n    //This event is emitted when a transfer of tokens or funds occurs within the contract. \r\n    //It includes information about the context of the transfer, the address where the tokens are being transferred to\r\n    //Also the value of tokens being transferred, and the event emitted time.\r\n    event TransferEvent(string context, address to, uint value, uint currentTime);\r\n    \r\n    //This event is emitted when tokens are retrieved from the contract. \r\n    //It includes information about who retrieved the tokens (retrievedBy) and evet emitted time\r\n    event RetrievedToken(address retrievedBy, uint currentTime);\r\n\r\n    // msg.sender is the controller controller and not the PU address\r\n    // PU address must therefore be specified as a parameter\r\n    constructor(\r\n        address payable _PU, \r\n        uint _bandwidth, \r\n        uint _minBidValue, \r\n        uint _depositValue\r\n    ) \r\n    \r\n    {\r\n        //assigns the address of the transaction sender (likely the person deploying the contract) to the controller variable. \r\n        //The controller variable stores the address of the contract's controller or owner.\r\n        controller = msg.sender;\r\n        //initializes the auctionInfo struct with the provided values\r\n        auctionInfo = AuctionInfo({\r\n            currentState: State.ReadyForBids,\r\n            PU: _PU,\r\n            bandwidth: _bandwidth,\r\n            minBidValue: _minBidValue * 1 wei,\r\n            depositValue: _depositValue * 1 wei,\r\n            BidsDeadline: block.timestamp + 1 days,\r\n            BidsRevealDeadline: block.timestamp + 2 days\r\n        });\r\n         // Emit CreatedNewAuction event\r\n        emit CreatedNewAuction(auctionInfo, block.timestamp);\r\n    }\r\n\r\n    // /// Place a bid by hashing it with keccak256().\r\n    // /// The deposit is only refunded if the bid is above the minimum bid value, \r\n    // /// and if the open bid equals the hashed bid during the open round\r\n    // function bidInHiddenRound(bytes32 bid) public payable \r\n    //     inState(State.ReadyForBids) \r\n    //     isBeforeDeadline(auctionInfo.BidsDeadline) \r\n    // {\r\n    //     require(msg.value >= auctionInfo.depositValue, \"Deposit value is too low\");\r\n\r\n    //     bids[msg.sender] = Bid({\r\n    //         existsBid: true,\r\n    //         hiddenBid: bid,\r\n    //         BidReveal: 0,\r\n    //         isBidRevealValid: false,\r\n    //         deposit: msg.value * 1 wei\r\n    //     });\r\n\r\n    //     BidsAddresses.push(msg.sender);\r\n    //     emit ReceivedHiddenBid(msg.sender, msg.value, block.timestamp);\r\n    // }\r\n\r\n    // function closeHiddenRound() public inState(State.ReadyForBids) isAfterDeadline(auctionInfo.BidsDeadline) {\r\n    //     if (BidsAddresses.length == 0) {\r\n    //         auctionInfo.currentState = State.ReadyForDeletion;\r\n    //         emit ClosedAuctionWithNoBids(\"Hidden round\", block.timestamp);\r\n    //     } else {\r\n    //         auctionInfo.currentState = State.ReadyForBidsReveal;\r\n    //         emit ClosedRound(\"Hidden round\", auctionInfo.currentState, block.timestamp);\r\n    //     }\r\n    // }\r\n\r\n    // function bidInOpenRound(uint BidReveal, string memory salt) public inState(State.ReadyForBidsReveal) isBeforeDeadline(auctionInfo.BidsRevealDeadline) {\r\n    //     require(bids[msg.sender].existsBid, \"This account has not bidden in the hidden round\");\r\n    //     require(BidReveal >= auctionInfo.minBidValue, \"Bid value is too low\");\r\n\r\n    //     bytes32 hashedBid = keccak256(abi.encodePacked(BidReveal, salt));\r\n    //     require(bids[msg.sender].hiddenBid == hashedBid, \"Open bid and bid do not match\");\r\n\r\n    //     bids[msg.sender].isBidRevealValid = true;\r\n    //     bids[msg.sender].BidReveal = BidReveal;\r\n    //     emit ReceivedOpenBid(msg.sender, BidReveal, block.timestamp);\r\n    // }\r\n\r\n    // function closeOpenRound() public inState(State.ReadyForBidsReveal) isAfterDeadline(auctionInfo.BidsRevealDeadline) {\r\n    //     uint validOpenBids = 0;\r\n    //     for (uint i = 0; i < BidsAddresses.length; i++) {\r\n    //         if (bids[BidsAddresses[i]].isBidRevealValid) {\r\n    //             validOpenBids += 1;\r\n    //         }\r\n    //     }\r\n        \r\n    //     if (validOpenBids == 0) {\r\n    //         auctionInfo.currentState = State.ReadyForDeletion;\r\n    //         emit ClosedAuctionWithNoBids(\"Open round, no valid bids\", block.timestamp);\r\n    //     } else {\r\n    //         auctionInfo.currentState = State.Closed;\r\n    //         emit ClosedRound(\"Open round\", auctionInfo.currentState, block.timestamp);\r\n    //     }\r\n    // }\r\n\r\n    // function closeAuction() public isAfterDeadline(auctionInfo.BidsRevealDeadline) inState(State.ReadyForBidsReveal) {\r\n    //     uint validOpenBids = 0;\r\n    //     for (uint i = 0; i < BidsAddresses.length; i++) {\r\n    //         if (bids[BidsAddresses[i]].isBidRevealValid) {\r\n    //             validOpenBids += 1;\r\n    //         }\r\n    //     }\r\n        \r\n    //     if (validOpenBids == 0) {\r\n    //         auctionInfo.currentState = State.ReadyForDeletion;\r\n    //         emit ClosedAuctionWithNoBids(\"Open round, no valid bids\", block.timestamp);\r\n    //     } else {\r\n    //         auctionInfo.currentState = State.Closed;\r\n    //         emit ClosedRound(\"Open round\", auctionInfo.currentState, block.timestamp);\r\n            \r\n    //         findWinner();\r\n    //     }\r\n    // }\r\n\r\n    // function findWinner() internal inState(State.Closed) {\r\n    //     address winnerAddress;\r\n    //     uint highestBid;\r\n\r\n    //     for(uint i = 0; i < BidsAddresses.length; i++) {\r\n    //         address SU = BidsAddresses[i];\r\n    //         uint bid = bids[SU].BidReveal;\r\n\r\n    //         if (bid > highestBid) {\r\n    //             winnerAddress = SU;\r\n    //             highestBid = bid;\r\n    //         }\r\n    //     }\r\n\r\n    //     winner = Winner({\r\n    //         accountAddress: winnerAddress,\r\n    //         bid: highestBid\r\n    //     });\r\n    //     emit FoundHighestBid(winner, block.timestamp);\r\n\r\n    //     token[winnerAddress] = Token({\r\n    //         winner: winnerAddress,\r\n    //         auctionContract: address(this),\r\n    //         bandwidth: auctionInfo.bandwidth,\r\n    //         validUntil: block.timestamp + 12 weeks,\r\n    //         isSpent: false\r\n    //     });\r\n    // }\r\n\r\n    // function transferBackDeposits() internal inState(State.Closed) {\r\n    //     require(winner.accountAddress != address(0), \"Must find a winner before sending back deposits\");\r\n\r\n    //     for (uint i = 0; i < BidsAddresses.length; i++) {\r\n    //         address payable SUAddress = payable(BidsAddresses[i]);\r\n    //         Bid memory bid = bids[SUAddress];\r\n\r\n    //         // Do not send back deposit to invalid SUs\r\n    //         if (!bid.isBidRevealValid) continue; \r\n\r\n    //         bool isWinner = SUAddress == winner.accountAddress;\r\n    //         if (isWinner && bid.BidReveal >= bid.deposit) continue;\r\n    //         uint deposit = isWinner ?  bid.deposit - bid.BidReveal : bid.deposit;\r\n\r\n    //         emit TransferEvent(\r\n    //             \"Transfer back deposit to SU\", \r\n    //             SUAddress, \r\n    //             deposit, \r\n    //             block.timestamp\r\n    //         );\r\n\r\n    //         SUAddress.transfer(deposit);\r\n    //     }\r\n    // }\r\n\r\n    // function transferHighestBidToPU() internal inState(State.Closed) {\r\n    //     uint highestBid = winner.bid;\r\n    //     address payable PU = auctionInfo.PU;\r\n    //     string memory eventMsg = \"Transfer highest bid to PU\";\r\n\r\n    //     if (highestBid > auctionInfo.depositValue) {\r\n    //         highestBid = auctionInfo.depositValue;\r\n    //         eventMsg = \"The highest bid was higher than the deposit value. Transferring the deposit to PU\";\r\n    //     }\r\n\r\n    //     emit TransferEvent(\r\n    //         eventMsg,\r\n    //         PU,\r\n    //         highestBid,\r\n    //         block.timestamp\r\n    //     );\r\n\r\n    //     PU.transfer(highestBid);\r\n\r\n    //     // Transfer deposits of invalid SUs to PU\r\n    //     uint contractBalance = address(this).balance;\r\n    //     if (contractBalance > 0) {\r\n    //         emit TransferEvent(\r\n    //             \"Transfer contract balance to PU\", \r\n    //             PU, \r\n    //             contractBalance,\r\n    //             block.timestamp\r\n    //         );\r\n\r\n    //         PU.transfer(contractBalance);\r\n    //     }\r\n\r\n    //     emit AuctionEnded(winner, address(this).balance, block.timestamp);\r\n    // }\r\n\r\n    // function retrieveToken() public inState(State.Closed) isAfterDeadline(auctionInfo.BidsRevealDeadline) returns(Token memory) {\r\n    //     require(msg.sender == winner.accountAddress, \"You are not the winner of the auction!\");\r\n        \r\n    //     auctionInfo.currentState = State.ReadyForDeletion;\r\n    //     emit RetrievedToken(msg.sender, block.timestamp);\r\n\r\n    //     return token[msg.sender];\r\n    // }\r\n\r\n    // function getAuctionInfo() public view returns(State, address, uint, uint, uint, uint, uint) {\r\n    //     return (\r\n    //         auctionInfo.currentState,\r\n    //         auctionInfo.PU,\r\n    //         auctionInfo.bandwidth,\r\n    //         auctionInfo.minBidValue,\r\n    //         auctionInfo.depositValue,\r\n    //         auctionInfo.BidsDeadline,\r\n    //         auctionInfo.BidsRevealDeadline\r\n    //     );\r\n    // }\r\n\r\n    // function getCurrentState() public view returns(State) {\r\n    //     return auctionInfo.currentState;\r\n    // }\r\n\r\n    // function getTokenValidUntil() public view returns(uint) {\r\n    //     return token[winner.accountAddress].validUntil;\r\n    // }\r\n\r\n    // function deleteAuction() external {\r\n    //     require(msg.sender == controller, \"You are not allowed to delete this auction!\");\r\n    //     selfdestruct(auctionInfo.PU);\r\n    // }\r\n}",
  "sourcePath": "C:\\Users\\Sampavi Sivakumaran\\Desktop\\FYP\\Blockchain_Based_Spectrum_Sharing_for_5G_and_Beyond\\contracts\\Auction.sol",
  "compiler": {
    "name": "solc",
    "version": "0.8.1+commit.df193b15.Emscripten.clang"
  },
  "schemaVersion": "3.4.16",
  "updatedAt": "2024-05-04T01:52:39.429Z",
  "devdoc": {
    "kind": "dev",
    "methods": {},
    "version": 1
  },
  "userdoc": {
    "kind": "user",
    "methods": {},
    "version": 1
  }
}