{
  "contractName": "Auction",
  "abi": [
    {
      "inputs": [
        {
          "internalType": "address payable",
          "name": "_PU",
          "type": "address"
        },
        {
          "internalType": "uint256",
          "name": "_bandwidth",
          "type": "uint256"
        },
        {
          "internalType": "uint256",
          "name": "_minBidValue",
          "type": "uint256"
        },
        {
          "internalType": "uint256",
          "name": "_depositValue",
          "type": "uint256"
        }
      ],
      "stateMutability": "nonpayable",
      "type": "constructor"
    },
    {
      "anonymous": false,
      "inputs": [
        {
          "components": [
            {
              "internalType": "address",
              "name": "accountAddress",
              "type": "address"
            },
            {
              "internalType": "uint256",
              "name": "bid",
              "type": "uint256"
            }
          ],
          "indexed": false,
          "internalType": "struct Auction.Winner",
          "name": "winner",
          "type": "tuple"
        },
        {
          "indexed": false,
          "internalType": "uint256",
          "name": "contractBalance",
          "type": "uint256"
        },
        {
          "indexed": false,
          "internalType": "uint256",
          "name": "currentTime",
          "type": "uint256"
        }
      ],
      "name": "AuctionEnded",
      "type": "event"
    },
    {
      "anonymous": false,
      "inputs": [
        {
          "indexed": false,
          "internalType": "string",
          "name": "whichRound",
          "type": "string"
        },
        {
          "indexed": false,
          "internalType": "uint256",
          "name": "currentTime",
          "type": "uint256"
        }
      ],
      "name": "ClosedAuctionWithNoBids",
      "type": "event"
    },
    {
      "anonymous": false,
      "inputs": [
        {
          "indexed": false,
          "internalType": "string",
          "name": "whichRound",
          "type": "string"
        },
        {
          "indexed": false,
          "internalType": "enum Auction.State",
          "name": "state",
          "type": "uint8"
        },
        {
          "indexed": false,
          "internalType": "uint256",
          "name": "currentTime",
          "type": "uint256"
        }
      ],
      "name": "ClosedRound",
      "type": "event"
    },
    {
      "anonymous": false,
      "inputs": [
        {
          "components": [
            {
              "internalType": "enum Auction.State",
              "name": "currentState",
              "type": "uint8"
            },
            {
              "internalType": "address payable",
              "name": "PU",
              "type": "address"
            },
            {
              "internalType": "uint256",
              "name": "bandwidth",
              "type": "uint256"
            },
            {
              "internalType": "uint256",
              "name": "minBidValue",
              "type": "uint256"
            },
            {
              "internalType": "uint256",
              "name": "depositValue",
              "type": "uint256"
            },
            {
              "internalType": "uint256",
              "name": "BidsDeadline",
              "type": "uint256"
            },
            {
              "internalType": "uint256",
              "name": "BidsRevealDeadline",
              "type": "uint256"
            }
          ],
          "indexed": false,
          "internalType": "struct Auction.AuctionInfo",
          "name": "auctionInfo",
          "type": "tuple"
        },
        {
          "indexed": false,
          "internalType": "uint256",
          "name": "currentTime",
          "type": "uint256"
        }
      ],
      "name": "CreatedNewAuction",
      "type": "event"
    },
    {
      "anonymous": false,
      "inputs": [
        {
          "components": [
            {
              "internalType": "address",
              "name": "accountAddress",
              "type": "address"
            },
            {
              "internalType": "uint256",
              "name": "bid",
              "type": "uint256"
            }
          ],
          "indexed": false,
          "internalType": "struct Auction.Winner",
          "name": "winner",
          "type": "tuple"
        },
        {
          "indexed": false,
          "internalType": "uint256",
          "name": "currentTime",
          "type": "uint256"
        }
      ],
      "name": "FoundHighestBid",
      "type": "event"
    },
    {
      "anonymous": false,
      "inputs": [
        {
          "indexed": false,
          "internalType": "address",
          "name": "SU",
          "type": "address"
        },
        {
          "indexed": false,
          "internalType": "uint256",
          "name": "deposit",
          "type": "uint256"
        },
        {
          "indexed": false,
          "internalType": "uint256",
          "name": "currentTime",
          "type": "uint256"
        }
      ],
      "name": "ReceivedBid",
      "type": "event"
    },
    {
      "anonymous": false,
      "inputs": [
        {
          "indexed": false,
          "internalType": "address",
          "name": "SU",
          "type": "address"
        },
        {
          "indexed": false,
          "internalType": "uint256",
          "name": "bid",
          "type": "uint256"
        },
        {
          "indexed": false,
          "internalType": "uint256",
          "name": "UsageTime",
          "type": "uint256"
        },
        {
          "indexed": false,
          "internalType": "uint256",
          "name": "currentTime",
          "type": "uint256"
        }
      ],
      "name": "ReceivedBidReveal",
      "type": "event"
    },
    {
      "anonymous": false,
      "inputs": [
        {
          "indexed": false,
          "internalType": "address",
          "name": "retrievedBy",
          "type": "address"
        },
        {
          "indexed": false,
          "internalType": "uint256",
          "name": "currentTime",
          "type": "uint256"
        }
      ],
      "name": "RetrievedToken",
      "type": "event"
    },
    {
      "anonymous": false,
      "inputs": [
        {
          "indexed": false,
          "internalType": "string",
          "name": "context",
          "type": "string"
        },
        {
          "indexed": false,
          "internalType": "address",
          "name": "to",
          "type": "address"
        },
        {
          "indexed": false,
          "internalType": "uint256",
          "name": "value",
          "type": "uint256"
        },
        {
          "indexed": false,
          "internalType": "uint256",
          "name": "currentTime",
          "type": "uint256"
        }
      ],
      "name": "TransferEvent",
      "type": "event"
    },
    {
      "inputs": [
        {
          "internalType": "uint256",
          "name": "",
          "type": "uint256"
        }
      ],
      "name": "BidsAddresses",
      "outputs": [
        {
          "internalType": "address",
          "name": "",
          "type": "address"
        }
      ],
      "stateMutability": "view",
      "type": "function"
    },
    {
      "inputs": [],
      "name": "auctionInfo",
      "outputs": [
        {
          "internalType": "enum Auction.State",
          "name": "currentState",
          "type": "uint8"
        },
        {
          "internalType": "address payable",
          "name": "PU",
          "type": "address"
        },
        {
          "internalType": "uint256",
          "name": "bandwidth",
          "type": "uint256"
        },
        {
          "internalType": "uint256",
          "name": "minBidValue",
          "type": "uint256"
        },
        {
          "internalType": "uint256",
          "name": "depositValue",
          "type": "uint256"
        },
        {
          "internalType": "uint256",
          "name": "BidsDeadline",
          "type": "uint256"
        },
        {
          "internalType": "uint256",
          "name": "BidsRevealDeadline",
          "type": "uint256"
        }
      ],
      "stateMutability": "view",
      "type": "function"
    },
    {
      "inputs": [
        {
          "internalType": "address",
          "name": "",
          "type": "address"
        }
      ],
      "name": "bids",
      "outputs": [
        {
          "internalType": "bool",
          "name": "existsBid",
          "type": "bool"
        },
        {
          "internalType": "bytes32",
          "name": "Bidding",
          "type": "bytes32"
        },
        {
          "internalType": "uint256",
          "name": "BidReveal",
          "type": "uint256"
        },
        {
          "internalType": "uint256",
          "name": "minUsageTime",
          "type": "uint256"
        },
        {
          "internalType": "bool",
          "name": "isBidRevealValid",
          "type": "bool"
        },
        {
          "internalType": "uint256",
          "name": "deposit",
          "type": "uint256"
        }
      ],
      "stateMutability": "view",
      "type": "function"
    },
    {
      "inputs": [],
      "name": "winner",
      "outputs": [
        {
          "internalType": "address",
          "name": "accountAddress",
          "type": "address"
        },
        {
          "internalType": "uint256",
          "name": "bid",
          "type": "uint256"
        }
      ],
      "stateMutability": "view",
      "type": "function"
    },
    {
      "inputs": [
        {
          "internalType": "bytes32",
          "name": "bid",
          "type": "bytes32"
        }
      ],
      "name": "bidInBiddingRound",
      "outputs": [],
      "stateMutability": "payable",
      "type": "function"
    },
    {
      "inputs": [],
      "name": "closeBiddingRound",
      "outputs": [],
      "stateMutability": "nonpayable",
      "type": "function"
    },
    {
      "inputs": [
        {
          "internalType": "uint256",
          "name": "BidReveal",
          "type": "uint256"
        },
        {
          "internalType": "uint256",
          "name": "minUsageTime",
          "type": "uint256"
        },
        {
          "internalType": "string",
          "name": "salt",
          "type": "string"
        }
      ],
      "name": "bidInBidRevealRound",
      "outputs": [],
      "stateMutability": "nonpayable",
      "type": "function"
    },
    {
      "inputs": [],
      "name": "closeAuction",
      "outputs": [],
      "stateMutability": "nonpayable",
      "type": "function"
    },
    {
      "inputs": [],
      "name": "retrieveToken",
      "outputs": [
        {
          "components": [
            {
              "internalType": "address",
              "name": "winner",
              "type": "address"
            },
            {
              "internalType": "address",
              "name": "auctionContract",
              "type": "address"
            },
            {
              "internalType": "uint256",
              "name": "bandwidth",
              "type": "uint256"
            },
            {
              "internalType": "uint256",
              "name": "validUntil",
              "type": "uint256"
            },
            {
              "internalType": "bool",
              "name": "isSpent",
              "type": "bool"
            }
          ],
          "internalType": "struct Auction.Token",
          "name": "",
          "type": "tuple"
        }
      ],
      "stateMutability": "nonpayable",
      "type": "function"
    },
    {
      "inputs": [],
      "name": "getAuctionInfo",
      "outputs": [
        {
          "internalType": "enum Auction.State",
          "name": "",
          "type": "uint8"
        },
        {
          "internalType": "address",
          "name": "",
          "type": "address"
        },
        {
          "internalType": "uint256",
          "name": "",
          "type": "uint256"
        },
        {
          "internalType": "uint256",
          "name": "",
          "type": "uint256"
        },
        {
          "internalType": "uint256",
          "name": "",
          "type": "uint256"
        },
        {
          "internalType": "uint256",
          "name": "",
          "type": "uint256"
        },
        {
          "internalType": "uint256",
          "name": "",
          "type": "uint256"
        }
      ],
      "stateMutability": "view",
      "type": "function"
    },
    {
      "inputs": [],
      "name": "getCurrentState",
      "outputs": [
        {
          "internalType": "enum Auction.State",
          "name": "",
          "type": "uint8"
        }
      ],
      "stateMutability": "view",
      "type": "function"
    },
    {
      "inputs": [],
      "name": "getTokenValidUntil",
      "outputs": [
        {
          "internalType": "uint256",
          "name": "",
          "type": "uint256"
        }
      ],
      "stateMutability": "view",
      "type": "function"
    },
    {
      "inputs": [],
      "name": "deleteAuction",
      "outputs": [],
      "stateMutability": "nonpayable",
      "type": "function"
    }
  ],
  "bytecode": "0x60806040523480156200001157600080fd5b50604051620031333803806200313383398181016040528101906200003791906200027f565b336000806101000a81548173ffffffffffffffffffffffffffffffffffffffff021916908373ffffffffffffffffffffffffffffffffffffffff1602179055506040518060e0016040528060006003811115620000bd577f4e487b7100000000000000000000000000000000000000000000000000000000600052602160045260246000fd5b81526020018573ffffffffffffffffffffffffffffffffffffffff168152602001848152602001600184620000f39190620004ac565b8152602001600183620001079190620004ac565b815260200162015180426200011d91906200044f565b81526020016202a300426200013391906200044f565b815250600160008201518160000160006101000a81548160ff021916908360038111156200018a577f4e487b7100000000000000000000000000000000000000000000000000000000600052602160045260246000fd5b021790555060208201518160000160016101000a81548173ffffffffffffffffffffffffffffffffffffffff021916908373ffffffffffffffffffffffffffffffffffffffff16021790555060408201518160010155606082015181600201556080820151816003015560a0820151816004015560c082015181600501559050507fc932bfe1d2a8c99fe45058b82a3d6b37508c1a1eef86e5447bd1588121ab41756001426040516200023f92919062000421565b60405180910390a150505050620006c8565b600081519050620002628162000694565b92915050565b6000815190506200027981620006ae565b92915050565b600080600080608085870312156200029657600080fd5b6000620002a68782880162000251565b9450506020620002b98782880162000268565b9350506040620002cc8782880162000268565b9250506060620002df8782880162000268565b91505092959194509250565b620002f68162000544565b82525050565b620003078162000597565b82525050565b60e0820160008083015490506200032481620005ab565b620003336000860182620002fc565b506200033f81620005e7565b6200034e6020860182620002eb565b50600183015490506200036181620005c9565b620003706040860182620003ff565b50600283015490506200038381620005c9565b620003926060860182620003ff565b5060038301549050620003a581620005c9565b620003b46080860182620003ff565b5060048301549050620003c781620005c9565b620003d660a0860182620003ff565b5060058301549050620003e981620005c9565b620003f860c0860182620003ff565b5050505050565b6200040a816200058d565b82525050565b6200041b816200058d565b82525050565b6000610100820190506200043960008301856200030d565b6200044860e083018462000410565b9392505050565b60006200045c826200058d565b915062000469836200058d565b9250827fffffffffffffffffffffffffffffffffffffffffffffffffffffffffffffffff03821115620004a157620004a062000605565b5b828201905092915050565b6000620004b9826200058d565b9150620004c6836200058d565b9250817fffffffffffffffffffffffffffffffffffffffffffffffffffffffffffffffff048311821515161562000502576200050162000605565b5b828202905092915050565b600073ffffffffffffffffffffffffffffffffffffffff82169050919050565b600060ff82169050919050565b6000819050919050565b600062000551826200056d565b9050919050565b600081905062000568826200067d565b919050565b600073ffffffffffffffffffffffffffffffffffffffff82169050919050565b6000819050919050565b6000620005a48262000558565b9050919050565b6000620005c2620005bc8362000663565b6200052d565b9050919050565b6000620005e0620005da8362000663565b6200053a565b9050919050565b6000620005fe620005f88362000670565b6200050d565b9050919050565b7f4e487b7100000000000000000000000000000000000000000000000000000000600052601160045260246000fd5b7f4e487b7100000000000000000000000000000000000000000000000000000000600052602160045260246000fd5b60008160001c9050919050565b60008160081c9050919050565b6004811062000691576200069062000634565b5b50565b6200069f8162000544565b8114620006ab57600080fd5b50565b620006b9816200058d565b8114620006c557600080fd5b50565b612a5b80620006d86000396000f3fe6080604052600436106100c25760003560e01c806362ea82db1161007f578063c6eb7d4a11610059578063c6eb7d4a14610240578063cc689c5514610257578063d94a350514610282578063dfbf53ae146102b3576100c2565b806362ea82db146101a5578063736560e4146101e7578063ae610d5814610224576100c2565b8063066a168f146100c75780631b347aae146100f0578063378252f21461011b578063378aa7011461013257806355d64d031461015d5780635894dd6d1461018e575b600080fd5b3480156100d357600080fd5b506100ee60048036038101906100e99190611b6e565b6102df565b005b3480156100fc57600080fd5b506101056106a5565b604051610112919061233e565b60405180910390f35b34801561012757600080fd5b50610130610a07565b005b34801561013e57600080fd5b50610147610d49565b6040516101549190612051565b60405180910390f35b34801561016957600080fd5b50610172610d63565b604051610185979695949392919061206c565b60405180910390f35b34801561019a57600080fd5b506101a3610dc0565b005b3480156101b157600080fd5b506101cc60048036038101906101c79190611af3565b61100f565b6040516101de96959493929190611ff0565b60405180910390f35b3480156101f357600080fd5b5061020e60048036038101906102099190611b45565b611065565b60405161021b9190611f30565b60405180910390f35b61023e60048036038101906102399190611b1c565b6110a4565b005b34801561024c57600080fd5b50610255611388565b005b34801561026357600080fd5b5061026c611454565b6040516102799190612382565b60405180910390f35b34801561028e57600080fd5b506102976114c3565b6040516102aa97969594939291906120db565b60405180910390f35b3480156102bf57600080fd5b506102c861153b565b6040516102d6929190611f4b565b60405180910390f35b600180600381111561031a577f4e487b7100000000000000000000000000000000000000000000000000000000600052602160045260246000fd5b600160000160009054906101000a900460ff166003811115610365577f4e487b7100000000000000000000000000000000000000000000000000000000600052602160045260246000fd5b146103a5576040517f08c379a000000000000000000000000000000000000000000000000000000000815260040161039c90612234565b60405180910390fd5b6001600501548042106103ed576040517f08c379a00000000000000000000000000000000000000000000000000000000081526004016103e49061214a565b60405180910390fd5b600960003373ffffffffffffffffffffffffffffffffffffffff1673ffffffffffffffffffffffffffffffffffffffff16815260200190815260200160002060000160009054906101000a900460ff1661047c576040517f08c379a0000000000000000000000000000000000000000000000000000000008152600401610473906121aa565b60405180910390fd5b6001600201548510156104c4576040517f08c379a00000000000000000000000000000000000000000000000000000000081526004016104bb90612274565b60405180910390fd5b60008585856040516020016104db93929190611ef7565b60405160208183030381529060405280519060200120905080600960003373ffffffffffffffffffffffffffffffffffffffff1673ffffffffffffffffffffffffffffffffffffffff1681526020019081526020016000206001015414610577576040517f08c379a000000000000000000000000000000000000000000000000000000000815260040161056e9061218a565b60405180910390fd5b6001600960003373ffffffffffffffffffffffffffffffffffffffff1673ffffffffffffffffffffffffffffffffffffffff16815260200190815260200160002060040160006101000a81548160ff02191690831515021790555085600960003373ffffffffffffffffffffffffffffffffffffffff1673ffffffffffffffffffffffffffffffffffffffff1681526020019081526020016000206002018190555084600960003373ffffffffffffffffffffffffffffffffffffffff1673ffffffffffffffffffffffffffffffffffffffff168152602001908152602001600020600301819055507f270c4f52a30d5e536ebfac48bc6f06c044e6c40116d702e65f23823565452d73338787426040516106959493929190611fab565b60405180910390a1505050505050565b6106ad6119ef565b60028060038111156106e8577f4e487b7100000000000000000000000000000000000000000000000000000000600052602160045260246000fd5b600160000160009054906101000a900460ff166003811115610733577f4e487b7100000000000000000000000000000000000000000000000000000000600052602160045260246000fd5b14610773576040517f08c379a000000000000000000000000000000000000000000000000000000000815260040161076a90612234565b60405180910390fd5b6001600501548042116107bb576040517f08c379a00000000000000000000000000000000000000000000000000000000081526004016107b29061231e565b60405180910390fd5b600760000160009054906101000a900473ffffffffffffffffffffffffffffffffffffffff1673ffffffffffffffffffffffffffffffffffffffff163373ffffffffffffffffffffffffffffffffffffffff161461084e576040517f08c379a000000000000000000000000000000000000000000000000000000000815260040161084590612254565b60405180910390fd5b6003600160000160006101000a81548160ff0219169083600381111561089d577f4e487b7100000000000000000000000000000000000000000000000000000000600052602160045260246000fd5b02179055507f7ed3e08f4e01cb0fc3643e34bcfd45247dec68ed4414209bda9f5e5eab13d0fd33426040516108d3929190611f4b565b60405180910390a1600a60003373ffffffffffffffffffffffffffffffffffffffff1673ffffffffffffffffffffffffffffffffffffffff1681526020019081526020016000206040518060a00160405290816000820160009054906101000a900473ffffffffffffffffffffffffffffffffffffffff1673ffffffffffffffffffffffffffffffffffffffff1673ffffffffffffffffffffffffffffffffffffffff1681526020016001820160009054906101000a900473ffffffffffffffffffffffffffffffffffffffff1673ffffffffffffffffffffffffffffffffffffffff1673ffffffffffffffffffffffffffffffffffffffff16815260200160028201548152602001600382015481526020016004820160009054906101000a900460ff1615151515815250509250505090565b600160050154804211610a4f576040517f08c379a0000000000000000000000000000000000000000000000000000000008152600401610a469061231e565b60405180910390fd5b6001806003811115610a8a577f4e487b7100000000000000000000000000000000000000000000000000000000600052602160045260246000fd5b600160000160009054906101000a900460ff166003811115610ad5577f4e487b7100000000000000000000000000000000000000000000000000000000600052602160045260246000fd5b14610b15576040517f08c379a0000000000000000000000000000000000000000000000000000000008152600401610b0c90612234565b60405180910390fd5b6000805b600b80549050811015610c025760096000600b8381548110610b64577f4e487b7100000000000000000000000000000000000000000000000000000000600052603260045260246000fd5b9060005260206000200160009054906101000a900473ffffffffffffffffffffffffffffffffffffffff1673ffffffffffffffffffffffffffffffffffffffff1673ffffffffffffffffffffffffffffffffffffffff16815260200190815260200160002060040160009054906101000a900460ff1615610bef57600182610bec919061241a565b91505b8080610bfa90612624565b915050610b19565b506000811415610c9c576003600160000160006101000a81548160ff02191690836003811115610c5b577f4e487b7100000000000000000000000000000000000000000000000000000000600052602160045260246000fd5b02179055507fe73a313df79df374a265d1ae8069419631a184236f3d97d468b9c2e5505b4e9942604051610c8f91906121ca565b60405180910390a1610d44565b6002600160000160006101000a81548160ff02191690836003811115610ceb577f4e487b7100000000000000000000000000000000000000000000000000000000600052602160045260246000fd5b02179055507f3dbdd4835dda2d2ea64f4793b53cbfa0bd395cc2bdb266568ccfedbf2f9fde4b600160000160009054906101000a900460ff1642604051610d339291906121f8565b60405180910390a1610d4361156d565b5b505050565b6000600160000160009054906101000a900460ff16905090565b60018060000160009054906101000a900460ff16908060000160019054906101000a900473ffffffffffffffffffffffffffffffffffffffff16908060010154908060020154908060030154908060040154908060050154905087565b6000806003811115610dfb577f4e487b7100000000000000000000000000000000000000000000000000000000600052602160045260246000fd5b600160000160009054906101000a900460ff166003811115610e46577f4e487b7100000000000000000000000000000000000000000000000000000000600052602160045260246000fd5b14610e86576040517f08c379a0000000000000000000000000000000000000000000000000000000008152600401610e7d90612234565b60405180910390fd5b600160040154804211610ece576040517f08c379a0000000000000000000000000000000000000000000000000000000008152600401610ec59061231e565b60405180910390fd5b6000600b805490501415610f6c576003600160000160006101000a81548160ff02191690836003811115610f2b577f4e487b7100000000000000000000000000000000000000000000000000000000600052602160045260246000fd5b02179055507fe73a313df79df374a265d1ae8069419631a184236f3d97d468b9c2e5505b4e9942604051610f5f91906122f0565b60405180910390a161100b565b60018060000160006101000a81548160ff02191690836003811115610fba577f4e487b7100000000000000000000000000000000000000000000000000000000600052602160045260246000fd5b02179055507f3dbdd4835dda2d2ea64f4793b53cbfa0bd395cc2bdb266568ccfedbf2f9fde4b600160000160009054906101000a900460ff16426040516110029291906122b4565b60405180910390a15b5050565b60096020528060005260406000206000915090508060000160009054906101000a900460ff16908060010154908060020154908060030154908060040160009054906101000a900460ff16908060050154905086565b600b818154811061107557600080fd5b906000526020600020016000915054906101000a900473ffffffffffffffffffffffffffffffffffffffff1681565b60008060038111156110df577f4e487b7100000000000000000000000000000000000000000000000000000000600052602160045260246000fd5b600160000160009054906101000a900460ff16600381111561112a577f4e487b7100000000000000000000000000000000000000000000000000000000600052602160045260246000fd5b1461116a576040517f08c379a000000000000000000000000000000000000000000000000000000000815260040161116190612234565b60405180910390fd5b6001600401548042106111b2576040517f08c379a00000000000000000000000000000000000000000000000000000000081526004016111a99061214a565b60405180910390fd5b6001600301543410156111fa576040517f08c379a00000000000000000000000000000000000000000000000000000000081526004016111f19061216a565b60405180910390fd5b6040518060c0016040528060011515815260200184815260200160008152602001600081526020016000151581526020016001346112389190612470565b815250600960003373ffffffffffffffffffffffffffffffffffffffff1673ffffffffffffffffffffffffffffffffffffffff16815260200190815260200160002060008201518160000160006101000a81548160ff02191690831515021790555060208201518160010155604082015181600201556060820151816003015560808201518160040160006101000a81548160ff02191690831515021790555060a08201518160050155905050600b339080600181540180825580915050600190039060005260206000200160009091909190916101000a81548173ffffffffffffffffffffffffffffffffffffffff021916908373ffffffffffffffffffffffffffffffffffffffff1602179055507fb7a0ff6cc8dfcd966d5d6a3a6da8bd9690d9e2b641687f28ac0f0e28a47c891333344260405161137b93929190611f74565b60405180910390a1505050565b60008054906101000a900473ffffffffffffffffffffffffffffffffffffffff1673ffffffffffffffffffffffffffffffffffffffff163373ffffffffffffffffffffffffffffffffffffffff1614611416576040517f08c379a000000000000000000000000000000000000000000000000000000000815260040161140d90612294565b60405180910390fd5b600160000160019054906101000a900473ffffffffffffffffffffffffffffffffffffffff1673ffffffffffffffffffffffffffffffffffffffff16ff5b6000600a6000600760000160009054906101000a900473ffffffffffffffffffffffffffffffffffffffff1673ffffffffffffffffffffffffffffffffffffffff1673ffffffffffffffffffffffffffffffffffffffff16815260200190815260200160002060030154905090565b6000806000806000806000600160000160009054906101000a900460ff16600160000160019054906101000a900473ffffffffffffffffffffffffffffffffffffffff166001800154600160020154600160030154600160040154600160050154965096509650965096509650965090919293949596565b60078060000160009054906101000a900473ffffffffffffffffffffffffffffffffffffffff16908060010154905082565b60028060038111156115a8577f4e487b7100000000000000000000000000000000000000000000000000000000600052602160045260246000fd5b600160000160009054906101000a900460ff1660038111156115f3577f4e487b7100000000000000000000000000000000000000000000000000000000600052602160045260246000fd5b14611633576040517f08c379a000000000000000000000000000000000000000000000000000000000815260040161162a90612234565b60405180910390fd5b60008060005b600b805490508110156117c2576000600b8281548110611682577f4e487b7100000000000000000000000000000000000000000000000000000000600052603260045260246000fd5b9060005260206000200160009054906101000a900473ffffffffffffffffffffffffffffffffffffffff169050600960008273ffffffffffffffffffffffffffffffffffffffff1673ffffffffffffffffffffffffffffffffffffffff16815260200190815260200160002060040160009054906101000a900460ff1661170957506117af565b6000600960008373ffffffffffffffffffffffffffffffffffffffff1673ffffffffffffffffffffffffffffffffffffffff16815260200190815260200160002060030154600960008473ffffffffffffffffffffffffffffffffffffffff1673ffffffffffffffffffffffffffffffffffffffff1681526020019081526020016000206002015461179b9190612470565b9050838111156117ac578194508093505b50505b80806117ba90612624565b915050611639565b5060405180604001604052808373ffffffffffffffffffffffffffffffffffffffff16815260200182815250600760008201518160000160006101000a81548173ffffffffffffffffffffffffffffffffffffffff021916908373ffffffffffffffffffffffffffffffffffffffff160217905550602082015181600101559050507ff759f57bf4b808b6e91a1c291d1cc81e47f24aa62e8cf7f6cc30b23822e9ac2b600742604051611876929190612359565b60405180910390a16040518060a001604052808373ffffffffffffffffffffffffffffffffffffffff1681526020013073ffffffffffffffffffffffffffffffffffffffff16815260200160018001548152602001626ebe00426118da919061241a565b815260200160001515815250600a60008473ffffffffffffffffffffffffffffffffffffffff1673ffffffffffffffffffffffffffffffffffffffff16815260200190815260200160002060008201518160000160006101000a81548173ffffffffffffffffffffffffffffffffffffffff021916908373ffffffffffffffffffffffffffffffffffffffff16021790555060208201518160010160006101000a81548173ffffffffffffffffffffffffffffffffffffffff021916908373ffffffffffffffffffffffffffffffffffffffff160217905550604082015181600201556060820151816003015560808201518160040160006101000a81548160ff021916908315150217905550905050505050565b6040518060a00160405280600073ffffffffffffffffffffffffffffffffffffffff168152602001600073ffffffffffffffffffffffffffffffffffffffff16815260200160008152602001600081526020016000151581525090565b6000611a5f611a5a846123c2565b61239d565b905082815260208101848484011115611a7757600080fd5b611a8284828561257d565b509392505050565b600081359050611a99816129e0565b92915050565b600081359050611aae816129f7565b92915050565b600082601f830112611ac557600080fd5b8135611ad5848260208601611a4c565b91505092915050565b600081359050611aed81612a0e565b92915050565b600060208284031215611b0557600080fd5b6000611b1384828501611a8a565b91505092915050565b600060208284031215611b2e57600080fd5b6000611b3c84828501611a9f565b91505092915050565b600060208284031215611b5757600080fd5b6000611b6584828501611ade565b91505092915050565b600080600060608486031215611b8357600080fd5b6000611b9186828701611ade565b9350506020611ba286828701611ade565b925050604084013567ffffffffffffffff811115611bbf57600080fd5b611bcb86828701611ab4565b9150509250925092565b611bde81612506565b82525050565b611bed816124f4565b82525050565b611bfc816124f4565b82525050565b611c0b81612518565b82525050565b611c1a81612518565b82525050565b611c2981612524565b82525050565b611c388161256b565b82525050565b6000611c49826123f3565b611c53818561240f565b9350611c6381856020860161258c565b80840191505092915050565b6000611c7c6019836123fe565b9150611c8782612722565b602082019050919050565b6000611c9f6018836123fe565b9150611caa8261274b565b602082019050919050565b6000611cc2601d836123fe565b9150611ccd82612774565b602082019050919050565b6000611ce5602f836123fe565b9150611cf08261279d565b604082019050919050565b6000611d086022836123fe565b9150611d13826127ec565b604082019050919050565b6000611d2b6013836123fe565b9150611d368261283b565b602082019050919050565b6000611d4e600d836123fe565b9150611d5982612864565b602082019050919050565b6000611d716026836123fe565b9150611d7c8261288d565b604082019050919050565b6000611d946014836123fe565b9150611d9f826128dc565b602082019050919050565b6000611db7602b836123fe565b9150611dc282612905565b604082019050919050565b6000611dda600d836123fe565b9150611de582612954565b602082019050919050565b6000611dfd602e836123fe565b9150611e088261297d565b604082019050919050565b60a082016000820151611e296000850182611be4565b506020820151611e3c6020850182611be4565b506040820151611e4f6040850182611ec2565b506060820151611e626060850182611ec2565b506080820151611e756080850182611c02565b50505050565b604082016000808301549050611e90816125bf565b611e9d6000860182611be4565b5060018301549050611eae816125d9565b611ebb6020860182611ec2565b5050505050565b611ecb81612561565b82525050565b611eda81612561565b82525050565b611ef1611eec82612561565b61266d565b82525050565b6000611f038286611ee0565b602082019150611f138285611ee0565b602082019150611f238284611c3e565b9150819050949350505050565b6000602082019050611f456000830184611bf3565b92915050565b6000604082019050611f606000830185611bf3565b611f6d6020830184611ed1565b9392505050565b6000606082019050611f896000830186611bf3565b611f966020830185611ed1565b611fa36040830184611ed1565b949350505050565b6000608082019050611fc06000830187611bf3565b611fcd6020830186611ed1565b611fda6040830185611ed1565b611fe76060830184611ed1565b95945050505050565b600060c0820190506120056000830189611c11565b6120126020830188611c20565b61201f6040830187611ed1565b61202c6060830186611ed1565b6120396080830185611c11565b61204660a0830184611ed1565b979650505050505050565b60006020820190506120666000830184611c2f565b92915050565b600060e082019050612081600083018a611c2f565b61208e6020830189611bd5565b61209b6040830188611ed1565b6120a86060830187611ed1565b6120b56080830186611ed1565b6120c260a0830185611ed1565b6120cf60c0830184611ed1565b98975050505050505050565b600060e0820190506120f0600083018a611c2f565b6120fd6020830189611bf3565b61210a6040830188611ed1565b6121176060830187611ed1565b6121246080830186611ed1565b61213160a0830185611ed1565b61213e60c0830184611ed1565b98975050505050505050565b6000602082019050818103600083015261216381611c6f565b9050919050565b6000602082019050818103600083015261218381611c92565b9050919050565b600060208201905081810360008301526121a381611cb5565b9050919050565b600060208201905081810360008301526121c381611cd8565b9050919050565b600060408201905081810360008301526121e381611cfb565b90506121f26020830184611ed1565b92915050565b6000606082019050818103600083015261221181611d1e565b90506122206020830185611c2f565b61222d6040830184611ed1565b9392505050565b6000602082019050818103600083015261224d81611d41565b9050919050565b6000602082019050818103600083015261226d81611d64565b9050919050565b6000602082019050818103600083015261228d81611d87565b9050919050565b600060208201905081810360008301526122ad81611daa565b9050919050565b600060608201905081810360008301526122cd81611dcd565b90506122dc6020830185611c2f565b6122e96040830184611ed1565b9392505050565b6000604082019050818103600083015261230981611dcd565b90506123186020830184611ed1565b92915050565b6000602082019050818103600083015261233781611df0565b9050919050565b600060a0820190506123536000830184611e13565b92915050565b600060608201905061236e6000830185611e7b565b61237b6040830184611ed1565b9392505050565b60006020820190506123976000830184611ed1565b92915050565b60006123a76123b8565b90506123b382826125f3565b919050565b6000604051905090565b600067ffffffffffffffff8211156123dd576123dc6126d5565b5b6123e682612704565b9050602081019050919050565b600081519050919050565b600082825260208201905092915050565b600081905092915050565b600061242582612561565b915061243083612561565b9250827fffffffffffffffffffffffffffffffffffffffffffffffffffffffffffffffff0382111561246557612464612677565b5b828201905092915050565b600061247b82612561565b915061248683612561565b9250817fffffffffffffffffffffffffffffffffffffffffffffffffffffffffffffffff04831182151516156124bf576124be612677565b5b828202905092915050565b600073ffffffffffffffffffffffffffffffffffffffff82169050919050565b6000819050919050565b60006124ff82612541565b9050919050565b600061251182612541565b9050919050565b60008115159050919050565b6000819050919050565b600081905061253c826129cc565b919050565b600073ffffffffffffffffffffffffffffffffffffffff82169050919050565b6000819050919050565b60006125768261252e565b9050919050565b82818337600083830152505050565b60005b838110156125aa57808201518184015260208101905061258f565b838111156125b9576000848401525b50505050565b60006125d26125cd83612715565b6124ca565b9050919050565b60006125ec6125e783612715565b6124ea565b9050919050565b6125fc82612704565b810181811067ffffffffffffffff8211171561261b5761261a6126d5565b5b80604052505050565b600061262f82612561565b91507fffffffffffffffffffffffffffffffffffffffffffffffffffffffffffffffff82141561266257612661612677565b5b600182019050919050565b6000819050919050565b7f4e487b7100000000000000000000000000000000000000000000000000000000600052601160045260246000fd5b7f4e487b7100000000000000000000000000000000000000000000000000000000600052602160045260246000fd5b7f4e487b7100000000000000000000000000000000000000000000000000000000600052604160045260246000fd5b6000601f19601f8301169050919050565b60008160001c9050919050565b7f43616e6e6f742062696420616674657220646561646c696e6500000000000000600082015250565b7f4465706f7369742076616c756520697320746f6f206c6f770000000000000000600082015250565b7f4f70656e2062696420616e642062696420646f206e6f74206d61746368000000600082015250565b7f54686973206163636f756e7420686173206e6f742062696464656e20696e207460008201527f68652068696464656e20726f756e640000000000000000000000000000000000602082015250565b7f4269642072657665616c696e6720726f756e642c206e6f2076616c696420626960008201527f6473000000000000000000000000000000000000000000000000000000000000602082015250565b7f4269642072657665616c696e6720726f756e6400000000000000000000000000600082015250565b7f496e76616c696420737461746500000000000000000000000000000000000000600082015250565b7f596f7520617265206e6f74207468652077696e6e6572206f662074686520617560008201527f6374696f6e210000000000000000000000000000000000000000000000000000602082015250565b7f4269642076616c756520697320746f6f206c6f77000000000000000000000000600082015250565b7f596f7520617265206e6f7420616c6c6f77656420746f2064656c65746520746860008201527f69732061756374696f6e21000000000000000000000000000000000000000000602082015250565b7f42696464696e6720726f756e6400000000000000000000000000000000000000600082015250565b7f43616e6e6f7420706572666f726d207468697320616374696f6e206265666f7260008201527f652074686520646561646c696e65000000000000000000000000000000000000602082015250565b600481106129dd576129dc6126a6565b5b50565b6129e9816124f4565b81146129f457600080fd5b50565b612a0081612524565b8114612a0b57600080fd5b50565b612a1781612561565b8114612a2257600080fd5b5056fea26469706673582212203d5b69b744be3c471e355576efe03408a6692c32d70b4bb18e01e93e8c9b880064736f6c63430008010033",
  "immutableReferences": {},
  "source": "// SPDX-License-Identifier: MIT\r\npragma solidity ^0.8.1;\r\n\r\ncontract Auction {\r\n    enum State {\r\n        ReadyForBids,//0th state\r\n        ReadyForBidsReveal,//1st state\r\n        Closed,//2nd state\r\n        ReadyForDeletion//3rd state\r\n    }\r\n\r\n    //The following modifiers are the preconditions that should satisfy before a function execute\r\n\r\n    //It checks if the current state of the auction matches the expected state provided as an argument to the function\r\n    //It ensures that functions can only be executed when the auction is in the specified state.\r\n    modifier inState(State expectedState) {\r\n        require(auctionInfo.currentState == expectedState, \"Invalid state\");\r\n        _;\r\n    }\r\n\r\n    //ensures that functions can only be executed before a specified deadline\r\n    //It checks the current block's timestamp against the provided deadline\r\n    modifier isBeforeDeadline(uint deadline) {\r\n        require(block.timestamp < deadline, \"Cannot bid after deadline\");\r\n        _;\r\n    }\r\n\r\n    //ensures that functions can only be executed after a specified deadline. \r\n    //It checks whether the current block's timestamp is greater than the specified deadline.\r\n    modifier isAfterDeadline(uint deadline) {\r\n        require(block.timestamp > deadline, \"Cannot perform this action before the deadline\");\r\n        _;\r\n    }\r\n\r\n    //This struct defines the parameters related to the auction\r\n    struct AuctionInfo {\r\n        State currentState;\r\n        address payable PU;//PU account address\r\n        uint bandwidth;//The amount of spectrum that is auctioned off by the PU\r\n        uint minBidValue;//The minimimum bidvalue that the PU will accept for this amount of bandwidth(in wei)\r\n        uint depositValue;//The minimum deposit value which every bidder must transfer to the contract in order to participate in the auction(wei). \r\n        uint BidsDeadline;//bid closing time(s)\r\n        uint BidsRevealDeadline;//Bid reveal closing time(s)\r\n    }\r\n\r\n    //Information related to a single bid\r\n    struct Bid {\r\n        bool existsBid;// states if a bid exists.\r\n        bytes32 Bidding;//Will contain a hashed bid + minimum required usage time\r\n        uint BidReveal;// Contains the bid, revealed bid\r\n        uint minUsageTime ;//Contains the  revealed usage time\r\n        bool isBidRevealValid;//defines if the bidreveal is valid or not\r\n        uint deposit;//Contains the deposit amount of a bidder\r\n        \r\n    }\r\n\r\n    //information about the winner of the auction\r\n    struct Winner {\r\n        address accountAddress;//stores the address of the winner\r\n        uint bid;//Stores the value of the winning bid\r\n    }\r\n\r\n    //represents a token related to the auction\r\n    struct Token {\r\n        address winner; //the address of the token winner\r\n        address auctionContract;//the address of the auction contract associated with the token\r\n        uint bandwidth;//the bandwidth represented by the token\r\n        uint validUntil;//the timestamp until which the token is valid\r\n        bool isSpent;//indicating whether the token has been spent\r\n    }\r\n\r\n    address private controller;//ntended to store the address of the contract controller or owner\r\n    AuctionInfo public auctionInfo;//intended to store information about the current state and parameters of the auction.\r\n    Winner public winner;//intended to store information about the winner of the auction.\r\n    \r\n    //This line declares a public mapping named bids, which associates address keys with Bid values. \r\n    //This mapping is likely used to keep track of bids made by different addresses in the auction.\r\n    mapping(address => Bid) public bids;\r\n\r\n    //used to manage tokens related to the auction, such as those awarded to the winner.\r\n    mapping(address => Token) private token;\r\n\r\n    //This array is likely intended to store the addresses of bidders who have submitted hidden bids in the auction\r\n    address[] public BidsAddresses;\r\n\r\n    //This event is emitted when a new auction is created. \r\n    //It includes information about the newly created auction.\r\n    //It also includes the event emitted time\r\n    event CreatedNewAuction(AuctionInfo auctionInfo, uint currentTime);\r\n\r\n    //This event is emitted when a bid is received. \r\n    //It includes the address of the SU who placed the bid, the deposit amount and the event emitted time\r\n    event ReceivedBid(address SU, uint deposit, uint currentTime);\r\n\r\n    //This event is emitted when a open bid is received. \r\n    //It includes the address of the SU who placed the bid, the bidding amount , bidding time and the event emitted time\r\n    event ReceivedBidReveal(address SU, uint bid,  uint UsageTime, uint currentTime );\r\n\r\n    //This event is emitted when a round of bidding is closed. \r\n    //It includes information about which round of bidding is being closed, the current state of the auction\r\n    //Also the event emitted time\r\n    event ClosedRound(string whichRound, State state, uint currentTime);\r\n\r\n    //This event is emitted when the auction is closed without receiving any bids. \r\n    //It includes information about which round of bidding has ended without any bids.\r\n    event ClosedAuctionWithNoBids(string whichRound, uint currentTime);\r\n\r\n    //This event is emitted when the highest bid is found during the auction. \r\n    //It includes information about the winner of the auction and the event emitted time.\r\n    event FoundHighestBid(Winner winner, uint currentTime);\r\n\r\n    //This event is emitted when the auction ends. \r\n    //It includes information about the winner of the auction, and the auction emitted time\r\n    //Also the contractBalance (the balance of the contract at the end of the auction)\r\n    event AuctionEnded(Winner winner, uint contractBalance, uint currentTime);\r\n\r\n    //This event is emitted when a transfer of tokens or funds occurs within the contract. \r\n    //It includes information about the context of the transfer, the address where the tokens are being transferred to\r\n    //Also the value of tokens being transferred, and the event emitted time.\r\n    event TransferEvent(string context, address to, uint value, uint currentTime);\r\n    \r\n    //This event is emitted when tokens are retrieved from the contract. \r\n    //It includes information about who retrieved the tokens (retrievedBy) and evet emitted time\r\n    event RetrievedToken(address retrievedBy, uint currentTime);\r\n\r\n    // msg.sender is the controller controller and not the PU address\r\n    // PU address must therefore be specified as a parameter\r\n    constructor(\r\n        address payable _PU, \r\n        uint _bandwidth, \r\n        uint _minBidValue, \r\n        uint _depositValue\r\n    ) \r\n    \r\n    {\r\n        //assigns the address of the transaction sender (likely the person deploying the contract) to the controller variable. \r\n        //The controller variable stores the address of the contract's controller or owner.\r\n        controller = msg.sender;\r\n        //initializes the auctionInfo struct with the provided values\r\n        auctionInfo = AuctionInfo({\r\n            currentState: State.ReadyForBids,\r\n            PU: _PU,\r\n            bandwidth: _bandwidth,\r\n            minBidValue: _minBidValue * 1 wei,\r\n            depositValue: _depositValue * 1 wei,\r\n            BidsDeadline: block.timestamp + 1 days,\r\n            BidsRevealDeadline: block.timestamp + 2 days\r\n        });\r\n         // Emit CreatedNewAuction event\r\n        emit CreatedNewAuction(auctionInfo, block.timestamp);\r\n    }\r\n\r\n    \r\n    //function to place bid in the first round.\r\n    // Place a bid  by hashing it and minTime with keccak256().\r\n     function bidInBiddingRound(bytes32 bid) public payable \r\n        inState(State.ReadyForBids)                                                 ////modifier to check whether the state is correct\r\n        isBeforeDeadline(auctionInfo.BidsDeadline)                                  ////modifier to check whether the bid is placing in the correct time.\r\n        {\r\n        require(msg.value >= auctionInfo.depositValue, \"Deposit value is too low\"); //check whether the deposit value of SU is greater than or eqaul the minimum deposit value.\r\n                                                                                    //a mapping to store the bid information along with SUs address\r\n         bids[msg.sender] = Bid({                                                  \r\n            existsBid: true,\r\n            Bidding: bid,\r\n            BidReveal: 0,\r\n            minUsageTime:0,\r\n            isBidRevealValid: false,\r\n            deposit: msg.value * 1 wei\r\n        });\r\n\r\n        BidsAddresses.push(msg.sender);                                             //store addresses of bidder SUs in an array\r\n        emit ReceivedBid(msg.sender, msg.value, block.timestamp);\r\n    }\r\n\r\n    //function to close the first round if the time for this round is up.\r\n\r\n     function closeBiddingRound() public \r\n     inState(State.ReadyForBids)                                                    ////checking the state\r\n     isAfterDeadline(auctionInfo.BidsDeadline) {                                    //checking whether the time limit for placing bids are expired or not.\r\n        if (BidsAddresses.length == 0) {                                            //If no bids were placed , close the auction.\r\n            auctionInfo.currentState = State.ReadyForDeletion;\r\n             emit ClosedAuctionWithNoBids(\"Bidding round\", block.timestamp);\r\n        } else {                                                                    //else go for round 2 , BidReveal round\r\n             auctionInfo.currentState = State.ReadyForBidsReveal;\r\n            emit ClosedRound(\"Bidding round\", auctionInfo.currentState, block.timestamp);\r\n        }\r\n     }\r\n\r\n\r\n    //function to reveal the bidding amount and time for bidders.\r\n     function bidInBidRevealRound(uint BidReveal,uint minUsageTime, string memory salt) public \r\n     inState(State.ReadyForBidsReveal) \r\n     isBeforeDeadline(auctionInfo.BidsRevealDeadline) \r\n     {\r\n         require(bids[msg.sender].existsBid, \"This account has not bidden in the hidden round\"); //check whether the SU is a valid biddder\r\n         require(BidReveal >= auctionInfo.minBidValue, \"Bid value is too low\");                  //check whethere the validity of the bid value\r\n\r\n         bytes32 hashedBid = keccak256(abi.encodePacked(BidReveal, minUsageTime , salt));        //Hashing bid + minUsage Time + salt value using  keccak256.\r\n         require(bids[msg.sender].Bidding == hashedBid, \"Open bid and bid do not match\");        //checking whetehre the revealed bid information are match with the information provided in the bidding round.\r\n\r\n         bids[msg.sender].isBidRevealValid = true;\r\n         bids[msg.sender].BidReveal = BidReveal;                                                 //set the parameters of the bid.\r\n         bids[msg.sender].minUsageTime = minUsageTime;\r\n\r\n         emit ReceivedBidReveal(msg.sender, BidReveal, minUsageTime, block.timestamp);\r\n     }\r\n\r\n\r\n\r\n     //function to close the bid revealing round.\r\n     function closeAuction() public \r\n     isAfterDeadline(auctionInfo.BidsRevealDeadline) \r\n     inState(State.ReadyForBidsReveal)\r\n      {\r\n         uint validBidReveals = 0;\r\n         for (uint i = 0; i < BidsAddresses.length; i++) {\r\n             if (bids[BidsAddresses[i]].isBidRevealValid) {                                           ////checking how many valid bid reveals are there.\r\n                 validBidReveals += 1;\r\n             }\r\n         }\r\n        \r\n         if (validBidReveals == 0) {\r\n             auctionInfo.currentState = State.ReadyForDeletion;\r\n            emit ClosedAuctionWithNoBids(\"Bid revealing round, no valid bids\", block.timestamp);       ////if no any valid bid reveals close the auction.\r\n        } else {\r\n             auctionInfo.currentState = State.Closed;\r\n             emit ClosedRound(\"Bid revealing round\", auctionInfo.currentState, block.timestamp);  \r\n            \r\n             findWinner();                                                                             ////otherwise find the winner\r\n           }\r\n     }\r\n\r\n\r\n\r\n    function findWinner() internal inState(State.Closed) {          // Function to find the winner of the auction\r\n         address winnerAddress;                                     // Declaring variables to store the winner's address and the highest bid\r\n         uint highestBid;\r\n\r\n         for(uint i = 0; i < BidsAddresses.length; i++) {           // Loop through all the bids\r\n             address SU = BidsAddresses[i];                         // Get the address of the bidder\r\n             if (!bids[SU].isBidRevealValid) continue;                // Check if the bid is still open for this address; if not, skip to the next iteration\r\n             uint bid = bids[SU].BidReveal*bids[SU].minUsageTime;   // Calculate the bid amount by multiplying the revealed bid with the minimum usage time\r\n\r\n             if (bid > highestBid) {                                // Check if the current bid is higher than the previously recorded highest bid\r\n                 winnerAddress = SU;                                // If yes, update the winner's address and the highest bid amount\r\n                 highestBid = bid;        \r\n             }\r\n         }\r\n\r\n         winner = Winner({                                          // Store the winner and their bid amount\r\n             accountAddress: winnerAddress,\r\n             bid: highestBid\r\n         });\r\n         emit FoundHighestBid(winner, block.timestamp);             // Emit an event to log the highest bid found\r\n\r\n         token[winnerAddress] = Token({                             // Create a token for the winner with auction details\r\n             winner: winnerAddress,\r\n             auctionContract: address(this),\r\n             bandwidth: auctionInfo.bandwidth,\r\n             validUntil: block.timestamp + 12 weeks,\r\n             isSpent: false\r\n         });\r\n     }\r\n\r\n    function transferBackDeposits() internal inState(State.Closed) {                                        // Function to transfer back deposits to bidders\r\n         require(winner.accountAddress != address(0), \"Must find a winner before sending back deposits\");   // Ensure that a winner has been found before proceeding\r\n\r\n         for (uint i = 0; i < BidsAddresses.length; i++) {                                                  // Loop through all bidders\r\n             address payable SUAddress = payable(BidsAddresses[i]);                                         // Get the address of the bidder and make it payable\r\n             Bid memory bid = bids[SUAddress];                                                              // Get the bid details for the bidder\r\n\r\n             if (!bid.isBidRevealValid) continue;                                                           // Do not send back deposit to invalid SUs\r\n\r\n             bool isWinner = SUAddress == winner.accountAddress;                                            // Check if the bidder is the winner and if their bid reveal is greater than or equal to their deposit\r\n             if (isWinner && bid.BidReveal >= bid.deposit) continue;\r\n             uint deposit = isWinner ?  bid.deposit - bid.BidReveal*bid.minUsageTime : bid.deposit;         // Calculate the deposit to be transferred back\r\n\r\n             emit TransferEvent(                                                                            // Emit an event indicating the transfer of deposit back to the bidder\r\n                 \"Transfer back deposit to SU\", \r\n                 SUAddress, \r\n                 deposit, \r\n                 block.timestamp\r\n             );\r\n\r\n             SUAddress.transfer(deposit);                                                                   // Transfer the deposit back to the bidder\r\n         }\r\n     }\r\n\r\n     function transferHighestBidToPU() internal inState(State.Closed) {                                         // Function to transfer the highest bid amount to the PU\r\n         uint highestBid = winner.bid;                                                                          // Get the highest bid amount from the winner\r\n         address payable PU = auctionInfo.PU;                                                                   // Get the address of the PU\r\n         string memory eventMsg = \"Transfer highest bid to PU\";                                                 // Initialize the event message\r\n\r\n         if (highestBid > auctionInfo.depositValue) {                                                           // Check if the highest bid exceeds the deposit value\r\n             highestBid = auctionInfo.depositValue;                                                             // If it does, set the highest bid to be equal to the deposit value\r\n             eventMsg = \"The highest bid was higher than the deposit value. Transferring the deposit to PU\";    // Update the event message accordingly\r\n         }\r\n\r\n         emit TransferEvent(                                                    // Emit an event indicating the transfer of funds to the PU\r\n             eventMsg,\r\n             PU,\r\n             highestBid,\r\n             block.timestamp\r\n         );\r\n\r\n         PU.transfer(highestBid);                                               // Transfer the highest bid amount to the PU\r\n\r\n         uint contractBalance = address(this).balance;                          // Transfer deposits of invalid SUs to PU\r\n         if (contractBalance > 0) {\r\n             emit TransferEvent(                                                // If there are remaining funds in the contract, transfer them to the PU\r\n                 \"Transfer contract balance to PU\", \r\n                 PU, \r\n                 contractBalance,\r\n                 block.timestamp\r\n             );\r\n\r\n             PU.transfer(contractBalance);                                      // Transfer the remaining funds to the PU\r\n         }\r\n\r\n         emit AuctionEnded(winner, address(this).balance, block.timestamp);     // Emit an event indicating the end of the auction\r\n     }\r\n\r\n     function retrieveToken() public inState(State.Closed) isAfterDeadline(auctionInfo.BidsRevealDeadline) returns(Token memory) {      // Function to retrieve the token after the auction has closed and the deadline for bids reveal has passed\r\n         require(msg.sender == winner.accountAddress, \"You are not the winner of the auction!\");                                        // Ensure that only the winner of the auction can retrieve the token\r\n        \r\n         auctionInfo.currentState = State.ReadyForDeletion;                                                                             // Update the state of the auction to indicate readiness for deletion\r\n         emit RetrievedToken(msg.sender, block.timestamp);                                                                              // Emit an event indicating the retrieval of the token by the winner\r\n\r\n         return token[msg.sender];                                                                                                      // Return the token associated with the winner's address\r\n     }\r\n\r\n     function getAuctionInfo() public view returns(State, address, uint, uint, uint, uint, uint) {          // Function to retrieve information about the auction\r\n         return (                                                                                           // Return the current state of the auction and its parameters\r\n             auctionInfo.currentState,\r\n             auctionInfo.PU,\r\n             auctionInfo.bandwidth,\r\n             auctionInfo.minBidValue,\r\n             auctionInfo.depositValue,\r\n             auctionInfo.BidsDeadline,\r\n             auctionInfo.BidsRevealDeadline\r\n         );\r\n     }\r\n\r\n     function getCurrentState() public view returns(State) {                                // Function to get the current state of the auction\r\n         return auctionInfo.currentState;\r\n     }\r\n\r\n     function getTokenValidUntil() public view returns(uint) {                              // Function to get the validity period of the token for the auction winner\r\n         return token[winner.accountAddress].validUntil;\r\n     }\r\n\r\n     function deleteAuction() external {                                                    // Function to delete the auction contract\r\n         require(msg.sender == controller, \"You are not allowed to delete this auction!\");  // Ensure that only the controller can delete the auction\r\n         selfdestruct(auctionInfo.PU);\r\n     }\r\n}",
  "sourcePath": "C:\\Users\\Sampavi Sivakumaran\\Desktop\\FYP\\Blockchain_Based_Spectrum_Sharing_for_5G_and_Beyond\\contracts\\Auction.sol",
  "compiler": {
    "name": "solc",
    "version": "0.8.1+commit.df193b15.Emscripten.clang"
  },
  "schemaVersion": "3.4.16",
  "updatedAt": "2024-05-06T02:39:07.551Z",
  "devdoc": {
    "kind": "dev",
    "methods": {},
    "version": 1
  },
  "userdoc": {
    "kind": "user",
    "methods": {},
    "version": 1
  }
}