{
  "contractName": "AuctionController",
  "abi": [
    {
      "inputs": [],
      "stateMutability": "nonpayable",
      "type": "constructor"
    },
    {
      "anonymous": false,
      "inputs": [
        {
          "indexed": false,
          "internalType": "address",
          "name": "auction",
          "type": "address"
        }
      ],
      "name": "AddedNewAuction",
      "type": "event"
    },
    {
      "anonymous": false,
      "inputs": [
        {
          "indexed": false,
          "internalType": "address",
          "name": "auction",
          "type": "address"
        }
      ],
      "name": "DeletedAuction",
      "type": "event"
    },
    {
      "inputs": [
        {
          "internalType": "address",
          "name": "",
          "type": "address"
        }
      ],
      "name": "PUAddresses",
      "outputs": [
        {
          "internalType": "address",
          "name": "",
          "type": "address"
        }
      ],
      "stateMutability": "view",
      "type": "function"
    },
    {
      "inputs": [
        {
          "internalType": "address payable",
          "name": "_PU",
          "type": "address"
        },
        {
          "internalType": "uint256",
          "name": "_bandwidth",
          "type": "uint256"
        },
        {
          "internalType": "uint256",
          "name": "_minBidValue",
          "type": "uint256"
        },
        {
          "internalType": "uint256",
          "name": "_depositValue",
          "type": "uint256"
        }
      ],
      "name": "deployNewAuction",
      "outputs": [],
      "stateMutability": "nonpayable",
      "type": "function"
    }
  ],
  "bytecode": "0x608060405234801561001057600080fd5b50336000806101000a81548173ffffffffffffffffffffffffffffffffffffffff021916908373ffffffffffffffffffffffffffffffffffffffff160217905550611036806100606000396000f3fe60806040523480156200001157600080fd5b50600436106200003a5760003560e01c80630731d242146200003f57806336965f0c1462000075575b600080fd5b6200005d60048036038101906200005791906200021c565b62000095565b6040516200006c9190620002e7565b60405180910390f35b6200009360048036038101906200008d919062000248565b620000c8565b005b60016020528060005260406000206000915054906101000a900473ffffffffffffffffffffffffffffffffffffffff1681565b600084848484604051620000dc90620001c9565b620000eb949392919062000304565b604051809103906000f08015801562000108573d6000803e3d6000fd5b50905084600160008373ffffffffffffffffffffffffffffffffffffffff1673ffffffffffffffffffffffffffffffffffffffff16815260200190815260200160002060006101000a81548173ffffffffffffffffffffffffffffffffffffffff021916908373ffffffffffffffffffffffffffffffffffffffff1602179055507f8e639806401dbf7654a5bc84e951af5c678e11cf357c18e387fe2b70544b9c5e81604051620001ba9190620002e7565b60405180910390a15050505050565b610c0f80620003f283390190565b600081359050620001e881620003a3565b92915050565b600081359050620001ff81620003bd565b92915050565b6000813590506200021681620003d7565b92915050565b6000602082840312156200022f57600080fd5b60006200023f84828501620001d7565b91505092915050565b600080600080608085870312156200025f57600080fd5b60006200026f87828801620001ee565b9450506020620002828782880162000205565b9350506040620002958782880162000205565b9250506060620002a88782880162000205565b91505092959194509250565b620002bf8162000365565b82525050565b620002d08162000351565b82525050565b620002e18162000399565b82525050565b6000602082019050620002fe6000830184620002c5565b92915050565b60006080820190506200031b6000830187620002b4565b6200032a6020830186620002d6565b620003396040830185620002d6565b620003486060830184620002d6565b95945050505050565b60006200035e8262000379565b9050919050565b6000620003728262000379565b9050919050565b600073ffffffffffffffffffffffffffffffffffffffff82169050919050565b6000819050919050565b620003ae8162000351565b8114620003ba57600080fd5b50565b620003c88162000365565b8114620003d457600080fd5b50565b620003e28162000399565b8114620003ee57600080fd5b5056fe60806040523480156200001157600080fd5b5060405162000c0f38038062000c0f83398181016040528101906200003791906200027f565b336000806101000a81548173ffffffffffffffffffffffffffffffffffffffff021916908373ffffffffffffffffffffffffffffffffffffffff1602179055506040518060e0016040528060006003811115620000bd577f4e487b7100000000000000000000000000000000000000000000000000000000600052602160045260246000fd5b81526020018573ffffffffffffffffffffffffffffffffffffffff168152602001848152602001600184620000f39190620004ac565b8152602001600183620001079190620004ac565b815260200162015180426200011d91906200044f565b81526020016202a300426200013391906200044f565b815250600160008201518160000160006101000a81548160ff021916908360038111156200018a577f4e487b7100000000000000000000000000000000000000000000000000000000600052602160045260246000fd5b021790555060208201518160000160016101000a81548173ffffffffffffffffffffffffffffffffffffffff021916908373ffffffffffffffffffffffffffffffffffffffff16021790555060408201518160010155606082015181600201556080820151816003015560a0820151816004015560c082015181600501559050507fc932bfe1d2a8c99fe45058b82a3d6b37508c1a1eef86e5447bd1588121ab41756001426040516200023f92919062000421565b60405180910390a150505050620006c8565b600081519050620002628162000694565b92915050565b6000815190506200027981620006ae565b92915050565b600080600080608085870312156200029657600080fd5b6000620002a68782880162000251565b9450506020620002b98782880162000268565b9350506040620002cc8782880162000268565b9250506060620002df8782880162000268565b91505092959194509250565b620002f68162000544565b82525050565b620003078162000597565b82525050565b60e0820160008083015490506200032481620005ab565b620003336000860182620002fc565b506200033f81620005e7565b6200034e6020860182620002eb565b50600183015490506200036181620005c9565b620003706040860182620003ff565b50600283015490506200038381620005c9565b620003926060860182620003ff565b5060038301549050620003a581620005c9565b620003b46080860182620003ff565b5060048301549050620003c781620005c9565b620003d660a0860182620003ff565b5060058301549050620003e981620005c9565b620003f860c0860182620003ff565b5050505050565b6200040a816200058d565b82525050565b6200041b816200058d565b82525050565b6000610100820190506200043960008301856200030d565b6200044860e083018462000410565b9392505050565b60006200045c826200058d565b915062000469836200058d565b9250827fffffffffffffffffffffffffffffffffffffffffffffffffffffffffffffffff03821115620004a157620004a062000605565b5b828201905092915050565b6000620004b9826200058d565b9150620004c6836200058d565b9250817fffffffffffffffffffffffffffffffffffffffffffffffffffffffffffffffff048311821515161562000502576200050162000605565b5b828202905092915050565b600073ffffffffffffffffffffffffffffffffffffffff82169050919050565b600060ff82169050919050565b6000819050919050565b600062000551826200056d565b9050919050565b600081905062000568826200067d565b919050565b600073ffffffffffffffffffffffffffffffffffffffff82169050919050565b6000819050919050565b6000620005a48262000558565b9050919050565b6000620005c2620005bc8362000663565b6200052d565b9050919050565b6000620005e0620005da8362000663565b6200053a565b9050919050565b6000620005fe620005f88362000670565b6200050d565b9050919050565b7f4e487b7100000000000000000000000000000000000000000000000000000000600052601160045260246000fd5b7f4e487b7100000000000000000000000000000000000000000000000000000000600052602160045260246000fd5b60008160001c9050919050565b60008160081c9050919050565b6004811062000691576200069062000634565b5b50565b6200069f8162000544565b8114620006ab57600080fd5b50565b620006b9816200058d565b8114620006c557600080fd5b50565b61053780620006d86000396000f3fe608060405234801561001057600080fd5b506004361061004c5760003560e01c806355d64d031461005157806362ea82db14610075578063736560e4146100aa578063dfbf53ae146100da575b600080fd5b6100596100f9565b60405161006c9796959493929190610398565b60405180910390f35b61008f600480360381019061008a9190610247565b610156565b6040516100a196959493929190610337565b60405180910390f35b6100c460048036038101906100bf9190610270565b6101ac565b6040516100d191906102f3565b60405180910390f35b6100e26101eb565b6040516100f092919061030e565b60405180910390f35b60018060000160009054906101000a900460ff16908060000160019054906101000a900473ffffffffffffffffffffffffffffffffffffffff16908060010154908060020154908060030154908060040154908060050154905087565b60096020528060005260406000206000915090508060000160009054906101000a900460ff16908060010154908060020154908060030160009054906101000a900460ff16908060040154908060050154905086565b600b81815481106101bc57600080fd5b906000526020600020016000915054906101000a900473ffffffffffffffffffffffffffffffffffffffff1681565b60078060000160009054906101000a900473ffffffffffffffffffffffffffffffffffffffff16908060010154905082565b60008135905061022c816104d3565b92915050565b600081359050610241816104ea565b92915050565b60006020828403121561025957600080fd5b60006102678482850161021d565b91505092915050565b60006020828403121561028257600080fd5b600061029084828501610232565b91505092915050565b6102a281610419565b82525050565b6102b181610407565b82525050565b6102c08161042b565b82525050565b6102cf81610437565b82525050565b6102de8161047e565b82525050565b6102ed81610474565b82525050565b600060208201905061030860008301846102a8565b92915050565b600060408201905061032360008301856102a8565b61033060208301846102e4565b9392505050565b600060c08201905061034c60008301896102b7565b61035960208301886102c6565b61036660408301876102e4565b61037360608301866102b7565b61038060808301856102e4565b61038d60a08301846102e4565b979650505050505050565b600060e0820190506103ad600083018a6102d5565b6103ba6020830189610299565b6103c760408301886102e4565b6103d460608301876102e4565b6103e160808301866102e4565b6103ee60a08301856102e4565b6103fb60c08301846102e4565b98975050505050505050565b600061041282610454565b9050919050565b600061042482610454565b9050919050565b60008115159050919050565b6000819050919050565b600081905061044f826104bf565b919050565b600073ffffffffffffffffffffffffffffffffffffffff82169050919050565b6000819050919050565b600061048982610441565b9050919050565b7f4e487b7100000000000000000000000000000000000000000000000000000000600052602160045260246000fd5b600481106104d0576104cf610490565b5b50565b6104dc81610407565b81146104e757600080fd5b50565b6104f381610474565b81146104fe57600080fd5b5056fea26469706673582212203f3345b5d182cd26943ca6aa8076e6f5760bbacef931142faf68f6c47e86bf1264736f6c63430008010033a2646970667358221220e59585660a0f86d118d0b5acfe928c44840a3683b35f0e9c4b41ade5793b2ca764736f6c63430008010033",
  "immutableReferences": {},
  "source": "// SPDX-License-Identifier: MIT\r\npragma solidity ^0.8.1;\r\n\r\nimport \"./Auction.sol\";\r\n\r\ncontract AuctionController {\r\n    //Defining the state variables of auction controller Contract\r\n\r\n    address private admin; \r\n    //Declare a variable to store the address of owner of the contract who is going to deploy the contract\r\n    \r\n    mapping(address => address) public PUAddresses;\r\n    //Through this mapping the auction address is map to PU address to look up the PU address associated with a given auction address.\r\n\r\n    event AddedNewAuction(address auction);\r\n    //Declare an event to emit, when a new auction is added to the system by taking the address of newly created auction\r\n    \r\n    event DeletedAuction(address auction);\r\n    //Declare an event to emit, when a aution is deleted from the system by taking the address of newly created auction\r\n\r\n    constructor() {\r\n        admin = msg.sender;\r\n    }\r\n\r\n    //fuction with these parameters\r\n    function deployNewAuction(\r\n        address payable _PU, \r\n        uint _bandwidth, \r\n        uint _minBidValue,\r\n        uint _depositValue\r\n    ) public {\r\n        // New instance of auction is created here\r\n        Auction newAuction = new Auction(\r\n            _PU, \r\n            _bandwidth, \r\n            _minBidValue, \r\n            _depositValue\r\n        );\r\n        \r\n        //This line associates the PU's address with the address of the newly created auction contract\r\n        PUAddresses[address(newAuction)] = _PU;\r\n\r\n       //emitted to notify external entities that a new auction has been successfully added.\r\n        emit AddedNewAuction(address(newAuction));\r\n    }\r\n\r\n    /// Auction cannot be deleted until either:\r\n    ///     (1) Token has been retrieved\r\n    ///     (2) Token has expired\r\n    ///     (3) Auction has closed with no bids\r\n    /// Auction can only be deleted by admin or by the auction PU\r\n    // function deleteAuction(address auctionAddress) public {\r\n    //     Auction auction = Auction(auctionAddress);\r\n\r\n    //     require(msg.sender == PUAddresses[auctionAddress] || msg.sender == admin, \"Can only be deleted by admin or the auction PU\");\r\n        \r\n    //     bool tokenExpired = currentTime() > auction.getTokenValidUntil() && auction.getTokenValidUntil() != 0;\r\n    //     if (!tokenExpired) {\r\n    //         require(auction.getCurrentState() == Auction.State.ReadyForDeletion, \"Cannot delete auction before the token has expired or been retrieved\");\r\n    //     }\r\n        \r\n    //     auction.deleteAuction();\r\n    //     delete PUAddresses[auctionAddress];\r\n\r\n    //     emit DeletedAuction(auctionAddress);\r\n    // }\r\n\r\n    // function currentTime() internal view virtual returns(uint) {\r\n    //     return block.timestamp;\r\n    // }\r\n\r\n    // function getAdmin() internal view returns(address) {\r\n    //     return admin;\r\n    // }\r\n}",
  "sourcePath": "C:\\Users\\Sampavi Sivakumaran\\Desktop\\FYP\\Blockchain_Based_Spectrum_Sharing_for_5G_and_Beyond\\contracts\\AuctionContoller.sol",
  "compiler": {
    "name": "solc",
    "version": "0.8.1+commit.df193b15.Emscripten.clang"
  },
  "schemaVersion": "3.4.16",
  "updatedAt": "2024-05-04T01:52:39.439Z",
  "devdoc": {
    "kind": "dev",
    "methods": {},
    "version": 1
  },
  "userdoc": {
    "kind": "user",
    "methods": {},
    "version": 1
  }
}