{
  "contractName": "TestAuctionController",
  "abi": [
    {
      "inputs": [],
      "stateMutability": "nonpayable",
      "type": "constructor"
    },
    {
      "anonymous": false,
      "inputs": [
        {
          "indexed": false,
          "internalType": "address",
          "name": "auction",
          "type": "address"
        }
      ],
      "name": "AddedNewAuction",
      "type": "event"
    },
    {
      "anonymous": false,
      "inputs": [
        {
          "indexed": false,
          "internalType": "address",
          "name": "auction",
          "type": "address"
        }
      ],
      "name": "DeletedAuction",
      "type": "event"
    },
    {
      "inputs": [
        {
          "internalType": "address",
          "name": "",
          "type": "address"
        }
      ],
      "name": "PUAddresses",
      "outputs": [
        {
          "internalType": "address",
          "name": "",
          "type": "address"
        }
      ],
      "stateMutability": "view",
      "type": "function"
    },
    {
      "inputs": [
        {
          "internalType": "address",
          "name": "auctionAddress",
          "type": "address"
        }
      ],
      "name": "deleteAuction",
      "outputs": [],
      "stateMutability": "nonpayable",
      "type": "function"
    },
    {
      "inputs": [
        {
          "internalType": "address payable",
          "name": "_PU",
          "type": "address"
        },
        {
          "internalType": "uint256",
          "name": "_bandwidth",
          "type": "uint256"
        },
        {
          "internalType": "uint256",
          "name": "_minBidValue",
          "type": "uint256"
        },
        {
          "internalType": "uint256",
          "name": "_depositValue",
          "type": "uint256"
        }
      ],
      "name": "deployNewAuction",
      "outputs": [],
      "stateMutability": "nonpayable",
      "type": "function"
    },
    {
      "inputs": [],
      "name": "testGetAdmin",
      "outputs": [
        {
          "internalType": "address",
          "name": "",
          "type": "address"
        }
      ],
      "stateMutability": "view",
      "type": "function"
    }
  ],
  "bytecode": "0x608060405234801561001057600080fd5b50336000806101000a81548173ffffffffffffffffffffffffffffffffffffffff021916908373ffffffffffffffffffffffffffffffffffffffff160217905550613c70806100606000396000f3fe60806040523480156200001157600080fd5b5060043610620000525760003560e01c80630731d24214620000575780632a7afc35146200008d57806336965f0c14620000af578063c293424e14620000cf575b600080fd5b6200007560048036038101906200006f919062000762565b620000ef565b604051620000849190620008d3565b60405180910390f35b6200009762000122565b604051620000a69190620008d3565b60405180910390f35b620000cd6004803603810190620000c791906200078e565b62000133565b005b620000ed6004803603810190620000e7919062000762565b62000234565b005b60016020528060005260406000206000915054906101000a900473ffffffffffffffffffffffffffffffffffffffff1681565b60006200012e620006b8565b905090565b6000848484846040516200014790620006e1565b620001569493929190620008f0565b604051809103906000f08015801562000173573d6000803e3d6000fd5b50905084600160008373ffffffffffffffffffffffffffffffffffffffff1673ffffffffffffffffffffffffffffffffffffffff16815260200190815260200160002060006101000a81548173ffffffffffffffffffffffffffffffffffffffff021916908373ffffffffffffffffffffffffffffffffffffffff1602179055507f8e639806401dbf7654a5bc84e951af5c678e11cf357c18e387fe2b70544b9c5e81604051620002259190620008d3565b60405180910390a15050505050565b6000819050600160008373ffffffffffffffffffffffffffffffffffffffff1673ffffffffffffffffffffffffffffffffffffffff16815260200190815260200160002060009054906101000a900473ffffffffffffffffffffffffffffffffffffffff1673ffffffffffffffffffffffffffffffffffffffff163373ffffffffffffffffffffffffffffffffffffffff1614806200031e575060008054906101000a900473ffffffffffffffffffffffffffffffffffffffff1673ffffffffffffffffffffffffffffffffffffffff163373ffffffffffffffffffffffffffffffffffffffff16145b62000360576040517f08c379a000000000000000000000000000000000000000000000000000000000815260040162000357906200095f565b60405180910390fd5b60008173ffffffffffffffffffffffffffffffffffffffff1663cc689c556040518163ffffffff1660e01b815260040160206040518083038186803b158015620003a957600080fd5b505afa158015620003be573d6000803e3d6000fd5b505050506040513d601f19601f82011682018060405250810190620003e4919062000826565b4211801562000475575060008273ffffffffffffffffffffffffffffffffffffffff1663cc689c556040518163ffffffff1660e01b815260040160206040518083038186803b1580156200043757600080fd5b505afa1580156200044c573d6000803e3d6000fd5b505050506040513d601f19601f8201168201806040525081019062000472919062000826565b14155b905080620005b657600380811115620004b7577f4e487b7100000000000000000000000000000000000000000000000000000000600052602160045260246000fd5b8273ffffffffffffffffffffffffffffffffffffffff1663378aa7016040518163ffffffff1660e01b815260040160206040518083038186803b158015620004fe57600080fd5b505afa15801562000513573d6000803e3d6000fd5b505050506040513d601f19601f82011682018060405250810190620005399190620007fa565b600381111562000572577f4e487b7100000000000000000000000000000000000000000000000000000000600052602160045260246000fd5b14620005b5576040517f08c379a0000000000000000000000000000000000000000000000000000000008152600401620005ac906200093d565b60405180910390fd5b5b8173ffffffffffffffffffffffffffffffffffffffff1663c6eb7d4a6040518163ffffffff1660e01b8152600401600060405180830381600087803b158015620005ff57600080fd5b505af115801562000614573d6000803e3d6000fd5b50505050600160008473ffffffffffffffffffffffffffffffffffffffff1673ffffffffffffffffffffffffffffffffffffffff16815260200190815260200160002060006101000a81549073ffffffffffffffffffffffffffffffffffffffff02191690557f401471a47a290325f3b1e6894839a07d25d1466962ad262056eca0071b79e37e83604051620006ab9190620008d3565b60405180910390a1505050565b60008060009054906101000a900473ffffffffffffffffffffffffffffffffffffffff16905090565b6131338062000b0883390190565b600081359050620007008162000aa8565b92915050565b600081359050620007178162000ac2565b92915050565b6000815190506200072e8162000adc565b92915050565b600081359050620007458162000aed565b92915050565b6000815190506200075c8162000aed565b92915050565b6000602082840312156200077557600080fd5b60006200078584828501620006ef565b91505092915050565b60008060008060808587031215620007a557600080fd5b6000620007b58782880162000706565b9450506020620007c88782880162000734565b9350506040620007db8782880162000734565b9250506060620007ee8782880162000734565b91505092959194509250565b6000602082840312156200080d57600080fd5b60006200081d848285016200071d565b91505092915050565b6000602082840312156200083957600080fd5b600062000849848285016200074b565b91505092915050565b6200085d81620009a6565b82525050565b6200086e8162000992565b82525050565b60006200088360448362000981565b91506200089082620009e4565b606082019050919050565b6000620008aa602e8362000981565b9150620008b78262000a59565b604082019050919050565b620008cd81620009da565b82525050565b6000602082019050620008ea600083018462000863565b92915050565b600060808201905062000907600083018762000852565b620009166020830186620008c2565b620009256040830185620008c2565b620009346060830184620008c2565b95945050505050565b60006020820190508181036000830152620009588162000874565b9050919050565b600060208201905081810360008301526200097a816200089b565b9050919050565b600082825260208201905092915050565b60006200099f82620009ba565b9050919050565b6000620009b382620009ba565b9050919050565b600073ffffffffffffffffffffffffffffffffffffffff82169050919050565b6000819050919050565b7f43616e6e6f742064656c6574652061756374696f6e206265666f72652074686560008201527f20746f6b656e206861732065787069726564206f72206265656e20726574726960208201527f6576656400000000000000000000000000000000000000000000000000000000604082015250565b7f43616e206f6e6c792062652064656c657465642062792061646d696e206f722060008201527f7468652061756374696f6e205055000000000000000000000000000000000000602082015250565b62000ab38162000992565b811462000abf57600080fd5b50565b62000acd81620009a6565b811462000ad957600080fd5b50565b6004811062000aea57600080fd5b50565b62000af881620009da565b811462000b0457600080fd5b5056fe60806040523480156200001157600080fd5b50604051620031333803806200313383398181016040528101906200003791906200027f565b336000806101000a81548173ffffffffffffffffffffffffffffffffffffffff021916908373ffffffffffffffffffffffffffffffffffffffff1602179055506040518060e0016040528060006003811115620000bd577f4e487b7100000000000000000000000000000000000000000000000000000000600052602160045260246000fd5b81526020018573ffffffffffffffffffffffffffffffffffffffff168152602001848152602001600184620000f39190620004ac565b8152602001600183620001079190620004ac565b815260200162015180426200011d91906200044f565b81526020016202a300426200013391906200044f565b815250600160008201518160000160006101000a81548160ff021916908360038111156200018a577f4e487b7100000000000000000000000000000000000000000000000000000000600052602160045260246000fd5b021790555060208201518160000160016101000a81548173ffffffffffffffffffffffffffffffffffffffff021916908373ffffffffffffffffffffffffffffffffffffffff16021790555060408201518160010155606082015181600201556080820151816003015560a0820151816004015560c082015181600501559050507fc932bfe1d2a8c99fe45058b82a3d6b37508c1a1eef86e5447bd1588121ab41756001426040516200023f92919062000421565b60405180910390a150505050620006c8565b600081519050620002628162000694565b92915050565b6000815190506200027981620006ae565b92915050565b600080600080608085870312156200029657600080fd5b6000620002a68782880162000251565b9450506020620002b98782880162000268565b9350506040620002cc8782880162000268565b9250506060620002df8782880162000268565b91505092959194509250565b620002f68162000544565b82525050565b620003078162000597565b82525050565b60e0820160008083015490506200032481620005ab565b620003336000860182620002fc565b506200033f81620005e7565b6200034e6020860182620002eb565b50600183015490506200036181620005c9565b620003706040860182620003ff565b50600283015490506200038381620005c9565b620003926060860182620003ff565b5060038301549050620003a581620005c9565b620003b46080860182620003ff565b5060048301549050620003c781620005c9565b620003d660a0860182620003ff565b5060058301549050620003e981620005c9565b620003f860c0860182620003ff565b5050505050565b6200040a816200058d565b82525050565b6200041b816200058d565b82525050565b6000610100820190506200043960008301856200030d565b6200044860e083018462000410565b9392505050565b60006200045c826200058d565b915062000469836200058d565b9250827fffffffffffffffffffffffffffffffffffffffffffffffffffffffffffffffff03821115620004a157620004a062000605565b5b828201905092915050565b6000620004b9826200058d565b9150620004c6836200058d565b9250817fffffffffffffffffffffffffffffffffffffffffffffffffffffffffffffffff048311821515161562000502576200050162000605565b5b828202905092915050565b600073ffffffffffffffffffffffffffffffffffffffff82169050919050565b600060ff82169050919050565b6000819050919050565b600062000551826200056d565b9050919050565b600081905062000568826200067d565b919050565b600073ffffffffffffffffffffffffffffffffffffffff82169050919050565b6000819050919050565b6000620005a48262000558565b9050919050565b6000620005c2620005bc8362000663565b6200052d565b9050919050565b6000620005e0620005da8362000663565b6200053a565b9050919050565b6000620005fe620005f88362000670565b6200050d565b9050919050565b7f4e487b7100000000000000000000000000000000000000000000000000000000600052601160045260246000fd5b7f4e487b7100000000000000000000000000000000000000000000000000000000600052602160045260246000fd5b60008160001c9050919050565b60008160081c9050919050565b6004811062000691576200069062000634565b5b50565b6200069f8162000544565b8114620006ab57600080fd5b50565b620006b9816200058d565b8114620006c557600080fd5b50565b612a5b80620006d86000396000f3fe6080604052600436106100c25760003560e01c806362ea82db1161007f578063c6eb7d4a11610059578063c6eb7d4a14610240578063cc689c5514610257578063d94a350514610282578063dfbf53ae146102b3576100c2565b806362ea82db146101a5578063736560e4146101e7578063ae610d5814610224576100c2565b8063066a168f146100c75780631b347aae146100f0578063378252f21461011b578063378aa7011461013257806355d64d031461015d5780635894dd6d1461018e575b600080fd5b3480156100d357600080fd5b506100ee60048036038101906100e99190611b6e565b6102df565b005b3480156100fc57600080fd5b506101056106a5565b604051610112919061233e565b60405180910390f35b34801561012757600080fd5b50610130610a07565b005b34801561013e57600080fd5b50610147610d49565b6040516101549190612051565b60405180910390f35b34801561016957600080fd5b50610172610d63565b604051610185979695949392919061206c565b60405180910390f35b34801561019a57600080fd5b506101a3610dc0565b005b3480156101b157600080fd5b506101cc60048036038101906101c79190611af3565b61100f565b6040516101de96959493929190611ff0565b60405180910390f35b3480156101f357600080fd5b5061020e60048036038101906102099190611b45565b611065565b60405161021b9190611f30565b60405180910390f35b61023e60048036038101906102399190611b1c565b6110a4565b005b34801561024c57600080fd5b50610255611388565b005b34801561026357600080fd5b5061026c611454565b6040516102799190612382565b60405180910390f35b34801561028e57600080fd5b506102976114c3565b6040516102aa97969594939291906120db565b60405180910390f35b3480156102bf57600080fd5b506102c861153b565b6040516102d6929190611f4b565b60405180910390f35b600180600381111561031a577f4e487b7100000000000000000000000000000000000000000000000000000000600052602160045260246000fd5b600160000160009054906101000a900460ff166003811115610365577f4e487b7100000000000000000000000000000000000000000000000000000000600052602160045260246000fd5b146103a5576040517f08c379a000000000000000000000000000000000000000000000000000000000815260040161039c90612234565b60405180910390fd5b6001600501548042106103ed576040517f08c379a00000000000000000000000000000000000000000000000000000000081526004016103e49061214a565b60405180910390fd5b600960003373ffffffffffffffffffffffffffffffffffffffff1673ffffffffffffffffffffffffffffffffffffffff16815260200190815260200160002060000160009054906101000a900460ff1661047c576040517f08c379a0000000000000000000000000000000000000000000000000000000008152600401610473906121aa565b60405180910390fd5b6001600201548510156104c4576040517f08c379a00000000000000000000000000000000000000000000000000000000081526004016104bb90612274565b60405180910390fd5b60008585856040516020016104db93929190611ef7565b60405160208183030381529060405280519060200120905080600960003373ffffffffffffffffffffffffffffffffffffffff1673ffffffffffffffffffffffffffffffffffffffff1681526020019081526020016000206001015414610577576040517f08c379a000000000000000000000000000000000000000000000000000000000815260040161056e9061218a565b60405180910390fd5b6001600960003373ffffffffffffffffffffffffffffffffffffffff1673ffffffffffffffffffffffffffffffffffffffff16815260200190815260200160002060040160006101000a81548160ff02191690831515021790555085600960003373ffffffffffffffffffffffffffffffffffffffff1673ffffffffffffffffffffffffffffffffffffffff1681526020019081526020016000206002018190555084600960003373ffffffffffffffffffffffffffffffffffffffff1673ffffffffffffffffffffffffffffffffffffffff168152602001908152602001600020600301819055507f270c4f52a30d5e536ebfac48bc6f06c044e6c40116d702e65f23823565452d73338787426040516106959493929190611fab565b60405180910390a1505050505050565b6106ad6119ef565b60028060038111156106e8577f4e487b7100000000000000000000000000000000000000000000000000000000600052602160045260246000fd5b600160000160009054906101000a900460ff166003811115610733577f4e487b7100000000000000000000000000000000000000000000000000000000600052602160045260246000fd5b14610773576040517f08c379a000000000000000000000000000000000000000000000000000000000815260040161076a90612234565b60405180910390fd5b6001600501548042116107bb576040517f08c379a00000000000000000000000000000000000000000000000000000000081526004016107b29061231e565b60405180910390fd5b600760000160009054906101000a900473ffffffffffffffffffffffffffffffffffffffff1673ffffffffffffffffffffffffffffffffffffffff163373ffffffffffffffffffffffffffffffffffffffff161461084e576040517f08c379a000000000000000000000000000000000000000000000000000000000815260040161084590612254565b60405180910390fd5b6003600160000160006101000a81548160ff0219169083600381111561089d577f4e487b7100000000000000000000000000000000000000000000000000000000600052602160045260246000fd5b02179055507f7ed3e08f4e01cb0fc3643e34bcfd45247dec68ed4414209bda9f5e5eab13d0fd33426040516108d3929190611f4b565b60405180910390a1600a60003373ffffffffffffffffffffffffffffffffffffffff1673ffffffffffffffffffffffffffffffffffffffff1681526020019081526020016000206040518060a00160405290816000820160009054906101000a900473ffffffffffffffffffffffffffffffffffffffff1673ffffffffffffffffffffffffffffffffffffffff1673ffffffffffffffffffffffffffffffffffffffff1681526020016001820160009054906101000a900473ffffffffffffffffffffffffffffffffffffffff1673ffffffffffffffffffffffffffffffffffffffff1673ffffffffffffffffffffffffffffffffffffffff16815260200160028201548152602001600382015481526020016004820160009054906101000a900460ff1615151515815250509250505090565b600160050154804211610a4f576040517f08c379a0000000000000000000000000000000000000000000000000000000008152600401610a469061231e565b60405180910390fd5b6001806003811115610a8a577f4e487b7100000000000000000000000000000000000000000000000000000000600052602160045260246000fd5b600160000160009054906101000a900460ff166003811115610ad5577f4e487b7100000000000000000000000000000000000000000000000000000000600052602160045260246000fd5b14610b15576040517f08c379a0000000000000000000000000000000000000000000000000000000008152600401610b0c90612234565b60405180910390fd5b6000805b600b80549050811015610c025760096000600b8381548110610b64577f4e487b7100000000000000000000000000000000000000000000000000000000600052603260045260246000fd5b9060005260206000200160009054906101000a900473ffffffffffffffffffffffffffffffffffffffff1673ffffffffffffffffffffffffffffffffffffffff1673ffffffffffffffffffffffffffffffffffffffff16815260200190815260200160002060040160009054906101000a900460ff1615610bef57600182610bec919061241a565b91505b8080610bfa90612624565b915050610b19565b506000811415610c9c576003600160000160006101000a81548160ff02191690836003811115610c5b577f4e487b7100000000000000000000000000000000000000000000000000000000600052602160045260246000fd5b02179055507fe73a313df79df374a265d1ae8069419631a184236f3d97d468b9c2e5505b4e9942604051610c8f91906121ca565b60405180910390a1610d44565b6002600160000160006101000a81548160ff02191690836003811115610ceb577f4e487b7100000000000000000000000000000000000000000000000000000000600052602160045260246000fd5b02179055507f3dbdd4835dda2d2ea64f4793b53cbfa0bd395cc2bdb266568ccfedbf2f9fde4b600160000160009054906101000a900460ff1642604051610d339291906121f8565b60405180910390a1610d4361156d565b5b505050565b6000600160000160009054906101000a900460ff16905090565b60018060000160009054906101000a900460ff16908060000160019054906101000a900473ffffffffffffffffffffffffffffffffffffffff16908060010154908060020154908060030154908060040154908060050154905087565b6000806003811115610dfb577f4e487b7100000000000000000000000000000000000000000000000000000000600052602160045260246000fd5b600160000160009054906101000a900460ff166003811115610e46577f4e487b7100000000000000000000000000000000000000000000000000000000600052602160045260246000fd5b14610e86576040517f08c379a0000000000000000000000000000000000000000000000000000000008152600401610e7d90612234565b60405180910390fd5b600160040154804211610ece576040517f08c379a0000000000000000000000000000000000000000000000000000000008152600401610ec59061231e565b60405180910390fd5b6000600b805490501415610f6c576003600160000160006101000a81548160ff02191690836003811115610f2b577f4e487b7100000000000000000000000000000000000000000000000000000000600052602160045260246000fd5b02179055507fe73a313df79df374a265d1ae8069419631a184236f3d97d468b9c2e5505b4e9942604051610f5f91906122f0565b60405180910390a161100b565b60018060000160006101000a81548160ff02191690836003811115610fba577f4e487b7100000000000000000000000000000000000000000000000000000000600052602160045260246000fd5b02179055507f3dbdd4835dda2d2ea64f4793b53cbfa0bd395cc2bdb266568ccfedbf2f9fde4b600160000160009054906101000a900460ff16426040516110029291906122b4565b60405180910390a15b5050565b60096020528060005260406000206000915090508060000160009054906101000a900460ff16908060010154908060020154908060030154908060040160009054906101000a900460ff16908060050154905086565b600b818154811061107557600080fd5b906000526020600020016000915054906101000a900473ffffffffffffffffffffffffffffffffffffffff1681565b60008060038111156110df577f4e487b7100000000000000000000000000000000000000000000000000000000600052602160045260246000fd5b600160000160009054906101000a900460ff16600381111561112a577f4e487b7100000000000000000000000000000000000000000000000000000000600052602160045260246000fd5b1461116a576040517f08c379a000000000000000000000000000000000000000000000000000000000815260040161116190612234565b60405180910390fd5b6001600401548042106111b2576040517f08c379a00000000000000000000000000000000000000000000000000000000081526004016111a99061214a565b60405180910390fd5b6001600301543410156111fa576040517f08c379a00000000000000000000000000000000000000000000000000000000081526004016111f19061216a565b60405180910390fd5b6040518060c0016040528060011515815260200184815260200160008152602001600081526020016000151581526020016001346112389190612470565b815250600960003373ffffffffffffffffffffffffffffffffffffffff1673ffffffffffffffffffffffffffffffffffffffff16815260200190815260200160002060008201518160000160006101000a81548160ff02191690831515021790555060208201518160010155604082015181600201556060820151816003015560808201518160040160006101000a81548160ff02191690831515021790555060a08201518160050155905050600b339080600181540180825580915050600190039060005260206000200160009091909190916101000a81548173ffffffffffffffffffffffffffffffffffffffff021916908373ffffffffffffffffffffffffffffffffffffffff1602179055507fb7a0ff6cc8dfcd966d5d6a3a6da8bd9690d9e2b641687f28ac0f0e28a47c891333344260405161137b93929190611f74565b60405180910390a1505050565b60008054906101000a900473ffffffffffffffffffffffffffffffffffffffff1673ffffffffffffffffffffffffffffffffffffffff163373ffffffffffffffffffffffffffffffffffffffff1614611416576040517f08c379a000000000000000000000000000000000000000000000000000000000815260040161140d90612294565b60405180910390fd5b600160000160019054906101000a900473ffffffffffffffffffffffffffffffffffffffff1673ffffffffffffffffffffffffffffffffffffffff16ff5b6000600a6000600760000160009054906101000a900473ffffffffffffffffffffffffffffffffffffffff1673ffffffffffffffffffffffffffffffffffffffff1673ffffffffffffffffffffffffffffffffffffffff16815260200190815260200160002060030154905090565b6000806000806000806000600160000160009054906101000a900460ff16600160000160019054906101000a900473ffffffffffffffffffffffffffffffffffffffff166001800154600160020154600160030154600160040154600160050154965096509650965096509650965090919293949596565b60078060000160009054906101000a900473ffffffffffffffffffffffffffffffffffffffff16908060010154905082565b60028060038111156115a8577f4e487b7100000000000000000000000000000000000000000000000000000000600052602160045260246000fd5b600160000160009054906101000a900460ff1660038111156115f3577f4e487b7100000000000000000000000000000000000000000000000000000000600052602160045260246000fd5b14611633576040517f08c379a000000000000000000000000000000000000000000000000000000000815260040161162a90612234565b60405180910390fd5b60008060005b600b805490508110156117c2576000600b8281548110611682577f4e487b7100000000000000000000000000000000000000000000000000000000600052603260045260246000fd5b9060005260206000200160009054906101000a900473ffffffffffffffffffffffffffffffffffffffff169050600960008273ffffffffffffffffffffffffffffffffffffffff1673ffffffffffffffffffffffffffffffffffffffff16815260200190815260200160002060040160009054906101000a900460ff1661170957506117af565b6000600960008373ffffffffffffffffffffffffffffffffffffffff1673ffffffffffffffffffffffffffffffffffffffff16815260200190815260200160002060030154600960008473ffffffffffffffffffffffffffffffffffffffff1673ffffffffffffffffffffffffffffffffffffffff1681526020019081526020016000206002015461179b9190612470565b9050838111156117ac578194508093505b50505b80806117ba90612624565b915050611639565b5060405180604001604052808373ffffffffffffffffffffffffffffffffffffffff16815260200182815250600760008201518160000160006101000a81548173ffffffffffffffffffffffffffffffffffffffff021916908373ffffffffffffffffffffffffffffffffffffffff160217905550602082015181600101559050507ff759f57bf4b808b6e91a1c291d1cc81e47f24aa62e8cf7f6cc30b23822e9ac2b600742604051611876929190612359565b60405180910390a16040518060a001604052808373ffffffffffffffffffffffffffffffffffffffff1681526020013073ffffffffffffffffffffffffffffffffffffffff16815260200160018001548152602001626ebe00426118da919061241a565b815260200160001515815250600a60008473ffffffffffffffffffffffffffffffffffffffff1673ffffffffffffffffffffffffffffffffffffffff16815260200190815260200160002060008201518160000160006101000a81548173ffffffffffffffffffffffffffffffffffffffff021916908373ffffffffffffffffffffffffffffffffffffffff16021790555060208201518160010160006101000a81548173ffffffffffffffffffffffffffffffffffffffff021916908373ffffffffffffffffffffffffffffffffffffffff160217905550604082015181600201556060820151816003015560808201518160040160006101000a81548160ff021916908315150217905550905050505050565b6040518060a00160405280600073ffffffffffffffffffffffffffffffffffffffff168152602001600073ffffffffffffffffffffffffffffffffffffffff16815260200160008152602001600081526020016000151581525090565b6000611a5f611a5a846123c2565b61239d565b905082815260208101848484011115611a7757600080fd5b611a8284828561257d565b509392505050565b600081359050611a99816129e0565b92915050565b600081359050611aae816129f7565b92915050565b600082601f830112611ac557600080fd5b8135611ad5848260208601611a4c565b91505092915050565b600081359050611aed81612a0e565b92915050565b600060208284031215611b0557600080fd5b6000611b1384828501611a8a565b91505092915050565b600060208284031215611b2e57600080fd5b6000611b3c84828501611a9f565b91505092915050565b600060208284031215611b5757600080fd5b6000611b6584828501611ade565b91505092915050565b600080600060608486031215611b8357600080fd5b6000611b9186828701611ade565b9350506020611ba286828701611ade565b925050604084013567ffffffffffffffff811115611bbf57600080fd5b611bcb86828701611ab4565b9150509250925092565b611bde81612506565b82525050565b611bed816124f4565b82525050565b611bfc816124f4565b82525050565b611c0b81612518565b82525050565b611c1a81612518565b82525050565b611c2981612524565b82525050565b611c388161256b565b82525050565b6000611c49826123f3565b611c53818561240f565b9350611c6381856020860161258c565b80840191505092915050565b6000611c7c6019836123fe565b9150611c8782612722565b602082019050919050565b6000611c9f6018836123fe565b9150611caa8261274b565b602082019050919050565b6000611cc2601d836123fe565b9150611ccd82612774565b602082019050919050565b6000611ce5602f836123fe565b9150611cf08261279d565b604082019050919050565b6000611d086022836123fe565b9150611d13826127ec565b604082019050919050565b6000611d2b6013836123fe565b9150611d368261283b565b602082019050919050565b6000611d4e600d836123fe565b9150611d5982612864565b602082019050919050565b6000611d716026836123fe565b9150611d7c8261288d565b604082019050919050565b6000611d946014836123fe565b9150611d9f826128dc565b602082019050919050565b6000611db7602b836123fe565b9150611dc282612905565b604082019050919050565b6000611dda600d836123fe565b9150611de582612954565b602082019050919050565b6000611dfd602e836123fe565b9150611e088261297d565b604082019050919050565b60a082016000820151611e296000850182611be4565b506020820151611e3c6020850182611be4565b506040820151611e4f6040850182611ec2565b506060820151611e626060850182611ec2565b506080820151611e756080850182611c02565b50505050565b604082016000808301549050611e90816125bf565b611e9d6000860182611be4565b5060018301549050611eae816125d9565b611ebb6020860182611ec2565b5050505050565b611ecb81612561565b82525050565b611eda81612561565b82525050565b611ef1611eec82612561565b61266d565b82525050565b6000611f038286611ee0565b602082019150611f138285611ee0565b602082019150611f238284611c3e565b9150819050949350505050565b6000602082019050611f456000830184611bf3565b92915050565b6000604082019050611f606000830185611bf3565b611f6d6020830184611ed1565b9392505050565b6000606082019050611f896000830186611bf3565b611f966020830185611ed1565b611fa36040830184611ed1565b949350505050565b6000608082019050611fc06000830187611bf3565b611fcd6020830186611ed1565b611fda6040830185611ed1565b611fe76060830184611ed1565b95945050505050565b600060c0820190506120056000830189611c11565b6120126020830188611c20565b61201f6040830187611ed1565b61202c6060830186611ed1565b6120396080830185611c11565b61204660a0830184611ed1565b979650505050505050565b60006020820190506120666000830184611c2f565b92915050565b600060e082019050612081600083018a611c2f565b61208e6020830189611bd5565b61209b6040830188611ed1565b6120a86060830187611ed1565b6120b56080830186611ed1565b6120c260a0830185611ed1565b6120cf60c0830184611ed1565b98975050505050505050565b600060e0820190506120f0600083018a611c2f565b6120fd6020830189611bf3565b61210a6040830188611ed1565b6121176060830187611ed1565b6121246080830186611ed1565b61213160a0830185611ed1565b61213e60c0830184611ed1565b98975050505050505050565b6000602082019050818103600083015261216381611c6f565b9050919050565b6000602082019050818103600083015261218381611c92565b9050919050565b600060208201905081810360008301526121a381611cb5565b9050919050565b600060208201905081810360008301526121c381611cd8565b9050919050565b600060408201905081810360008301526121e381611cfb565b90506121f26020830184611ed1565b92915050565b6000606082019050818103600083015261221181611d1e565b90506122206020830185611c2f565b61222d6040830184611ed1565b9392505050565b6000602082019050818103600083015261224d81611d41565b9050919050565b6000602082019050818103600083015261226d81611d64565b9050919050565b6000602082019050818103600083015261228d81611d87565b9050919050565b600060208201905081810360008301526122ad81611daa565b9050919050565b600060608201905081810360008301526122cd81611dcd565b90506122dc6020830185611c2f565b6122e96040830184611ed1565b9392505050565b6000604082019050818103600083015261230981611dcd565b90506123186020830184611ed1565b92915050565b6000602082019050818103600083015261233781611df0565b9050919050565b600060a0820190506123536000830184611e13565b92915050565b600060608201905061236e6000830185611e7b565b61237b6040830184611ed1565b9392505050565b60006020820190506123976000830184611ed1565b92915050565b60006123a76123b8565b90506123b382826125f3565b919050565b6000604051905090565b600067ffffffffffffffff8211156123dd576123dc6126d5565b5b6123e682612704565b9050602081019050919050565b600081519050919050565b600082825260208201905092915050565b600081905092915050565b600061242582612561565b915061243083612561565b9250827fffffffffffffffffffffffffffffffffffffffffffffffffffffffffffffffff0382111561246557612464612677565b5b828201905092915050565b600061247b82612561565b915061248683612561565b9250817fffffffffffffffffffffffffffffffffffffffffffffffffffffffffffffffff04831182151516156124bf576124be612677565b5b828202905092915050565b600073ffffffffffffffffffffffffffffffffffffffff82169050919050565b6000819050919050565b60006124ff82612541565b9050919050565b600061251182612541565b9050919050565b60008115159050919050565b6000819050919050565b600081905061253c826129cc565b919050565b600073ffffffffffffffffffffffffffffffffffffffff82169050919050565b6000819050919050565b60006125768261252e565b9050919050565b82818337600083830152505050565b60005b838110156125aa57808201518184015260208101905061258f565b838111156125b9576000848401525b50505050565b60006125d26125cd83612715565b6124ca565b9050919050565b60006125ec6125e783612715565b6124ea565b9050919050565b6125fc82612704565b810181811067ffffffffffffffff8211171561261b5761261a6126d5565b5b80604052505050565b600061262f82612561565b91507fffffffffffffffffffffffffffffffffffffffffffffffffffffffffffffffff82141561266257612661612677565b5b600182019050919050565b6000819050919050565b7f4e487b7100000000000000000000000000000000000000000000000000000000600052601160045260246000fd5b7f4e487b7100000000000000000000000000000000000000000000000000000000600052602160045260246000fd5b7f4e487b7100000000000000000000000000000000000000000000000000000000600052604160045260246000fd5b6000601f19601f8301169050919050565b60008160001c9050919050565b7f43616e6e6f742062696420616674657220646561646c696e6500000000000000600082015250565b7f4465706f7369742076616c756520697320746f6f206c6f770000000000000000600082015250565b7f4f70656e2062696420616e642062696420646f206e6f74206d61746368000000600082015250565b7f54686973206163636f756e7420686173206e6f742062696464656e20696e207460008201527f68652068696464656e20726f756e640000000000000000000000000000000000602082015250565b7f4269642072657665616c696e6720726f756e642c206e6f2076616c696420626960008201527f6473000000000000000000000000000000000000000000000000000000000000602082015250565b7f4269642072657665616c696e6720726f756e6400000000000000000000000000600082015250565b7f496e76616c696420737461746500000000000000000000000000000000000000600082015250565b7f596f7520617265206e6f74207468652077696e6e6572206f662074686520617560008201527f6374696f6e210000000000000000000000000000000000000000000000000000602082015250565b7f4269642076616c756520697320746f6f206c6f77000000000000000000000000600082015250565b7f596f7520617265206e6f7420616c6c6f77656420746f2064656c65746520746860008201527f69732061756374696f6e21000000000000000000000000000000000000000000602082015250565b7f42696464696e6720726f756e6400000000000000000000000000000000000000600082015250565b7f43616e6e6f7420706572666f726d207468697320616374696f6e206265666f7260008201527f652074686520646561646c696e65000000000000000000000000000000000000602082015250565b600481106129dd576129dc6126a6565b5b50565b6129e9816124f4565b81146129f457600080fd5b50565b612a0081612524565b8114612a0b57600080fd5b50565b612a1781612561565b8114612a2257600080fd5b5056fea26469706673582212203d5b69b744be3c471e355576efe03408a6692c32d70b4bb18e01e93e8c9b880064736f6c63430008010033a2646970667358221220d3f4f76bd007f2b6573d79fbf8b71729a30535ebc37d9f636092457973f52cd064736f6c63430008010033",
  "immutableReferences": {},
  "source": "// SPDX-License-Identifier: MIT\npragma solidity ^0.8.1;\nimport \"./AuctionController.sol\";\n\n\ncontract TestAuctionController is AuctionController {\n    constructor() AuctionController() {}\n\n    function testGetAdmin() public view returns (address) {\n        return getAdmin();\n    }\n}",
  "sourcePath": "C:\\Users\\Sampavi Sivakumaran\\Desktop\\FYP\\Blockchain_Based_Spectrum_Sharing_for_5G_and_Beyond\\contracts\\TestAuctionController.sol",
  "compiler": {
    "name": "solc",
    "version": "0.8.1+commit.df193b15.Emscripten.clang"
  },
  "schemaVersion": "3.4.16",
  "updatedAt": "2024-05-06T02:39:07.607Z",
  "devdoc": {
    "kind": "dev",
    "methods": {},
    "version": 1
  },
  "userdoc": {
    "kind": "user",
    "methods": {
      "deleteAuction(address)": {
        "notice": "Auction cannot be deleted until either:     (1) Token has been retrieved     (2) Token has expired     (3) Auction has closed with no bids Auction can only be deleted by admin or by the auction PU"
      }
    },
    "version": 1
  }
}