{
  "contractName": "TestAdvertisement",
  "abi": [
    {
      "inputs": [
        {
          "internalType": "address payable",
          "name": "_PU",
          "type": "address"
        },
        {
          "internalType": "uint256",
          "name": "_bandwidth",
          "type": "uint256"
        },
        {
          "internalType": "uint256",
          "name": "_minBidValue",
          "type": "uint256"
        },
        {
          "internalType": "uint256",
          "name": "_depositValue",
          "type": "uint256"
        }
      ],
      "stateMutability": "nonpayable",
      "type": "constructor"
    },
    {
      "anonymous": false,
      "inputs": [
        {
          "components": [
            {
              "internalType": "address",
              "name": "accountAddress",
              "type": "address"
            },
            {
              "internalType": "uint256",
              "name": "bid",
              "type": "uint256"
            }
          ],
          "indexed": false,
          "internalType": "struct Advertisement.Winner",
          "name": "winner",
          "type": "tuple"
        },
        {
          "indexed": false,
          "internalType": "uint256",
          "name": "contractBalance",
          "type": "uint256"
        },
        {
          "indexed": false,
          "internalType": "uint256",
          "name": "currentTime",
          "type": "uint256"
        }
      ],
      "name": "AdvertisementEnded",
      "type": "event"
    },
    {
      "anonymous": false,
      "inputs": [
        {
          "indexed": false,
          "internalType": "string",
          "name": "whichRound",
          "type": "string"
        },
        {
          "indexed": false,
          "internalType": "uint256",
          "name": "currentTime",
          "type": "uint256"
        }
      ],
      "name": "ClosedAdvertisementWithNoBids",
      "type": "event"
    },
    {
      "anonymous": false,
      "inputs": [
        {
          "indexed": false,
          "internalType": "string",
          "name": "whichRound",
          "type": "string"
        },
        {
          "indexed": false,
          "internalType": "enum Advertisement.State",
          "name": "state",
          "type": "uint8"
        },
        {
          "indexed": false,
          "internalType": "uint256",
          "name": "currentTime",
          "type": "uint256"
        }
      ],
      "name": "ClosedRound",
      "type": "event"
    },
    {
      "anonymous": false,
      "inputs": [
        {
          "components": [
            {
              "internalType": "enum Advertisement.State",
              "name": "currentState",
              "type": "uint8"
            },
            {
              "internalType": "address payable",
              "name": "PU",
              "type": "address"
            },
            {
              "internalType": "uint256",
              "name": "bandwidth",
              "type": "uint256"
            },
            {
              "internalType": "uint256",
              "name": "minBidValue",
              "type": "uint256"
            },
            {
              "internalType": "uint256",
              "name": "depositValue",
              "type": "uint256"
            },
            {
              "internalType": "uint256",
              "name": "BidsDeadline",
              "type": "uint256"
            },
            {
              "internalType": "uint256",
              "name": "BidsRevealDeadline",
              "type": "uint256"
            }
          ],
          "indexed": false,
          "internalType": "struct Advertisement.AdvertisementInfo",
          "name": "advertisementInfo",
          "type": "tuple"
        },
        {
          "indexed": false,
          "internalType": "uint256",
          "name": "currentTime",
          "type": "uint256"
        }
      ],
      "name": "CreatedNewAdvertisement",
      "type": "event"
    },
    {
      "anonymous": false,
      "inputs": [
        {
          "components": [
            {
              "internalType": "address",
              "name": "accountAddress",
              "type": "address"
            },
            {
              "internalType": "uint256",
              "name": "bid",
              "type": "uint256"
            }
          ],
          "indexed": false,
          "internalType": "struct Advertisement.Winner",
          "name": "winner",
          "type": "tuple"
        },
        {
          "indexed": false,
          "internalType": "uint256",
          "name": "currentTime",
          "type": "uint256"
        }
      ],
      "name": "FoundHighestBid",
      "type": "event"
    },
    {
      "anonymous": false,
      "inputs": [
        {
          "indexed": false,
          "internalType": "address",
          "name": "SU",
          "type": "address"
        },
        {
          "indexed": false,
          "internalType": "uint256",
          "name": "deposit",
          "type": "uint256"
        },
        {
          "indexed": false,
          "internalType": "uint256",
          "name": "currentTime",
          "type": "uint256"
        }
      ],
      "name": "ReceivedBid",
      "type": "event"
    },
    {
      "anonymous": false,
      "inputs": [
        {
          "indexed": false,
          "internalType": "address",
          "name": "SU",
          "type": "address"
        },
        {
          "indexed": false,
          "internalType": "uint256",
          "name": "bid",
          "type": "uint256"
        },
        {
          "indexed": false,
          "internalType": "uint256",
          "name": "UsageTime",
          "type": "uint256"
        },
        {
          "indexed": false,
          "internalType": "uint256",
          "name": "currentTime",
          "type": "uint256"
        }
      ],
      "name": "ReceivedBidReveal",
      "type": "event"
    },
    {
      "anonymous": false,
      "inputs": [
        {
          "indexed": false,
          "internalType": "address",
          "name": "retrievedBy",
          "type": "address"
        },
        {
          "indexed": false,
          "internalType": "uint256",
          "name": "currentTime",
          "type": "uint256"
        }
      ],
      "name": "RetrievedToken",
      "type": "event"
    },
    {
      "anonymous": false,
      "inputs": [
        {
          "indexed": false,
          "internalType": "string",
          "name": "context",
          "type": "string"
        },
        {
          "indexed": false,
          "internalType": "address",
          "name": "to",
          "type": "address"
        },
        {
          "indexed": false,
          "internalType": "uint256",
          "name": "value",
          "type": "uint256"
        },
        {
          "indexed": false,
          "internalType": "uint256",
          "name": "currentTime",
          "type": "uint256"
        }
      ],
      "name": "TransferEvent",
      "type": "event"
    },
    {
      "inputs": [
        {
          "internalType": "uint256",
          "name": "",
          "type": "uint256"
        }
      ],
      "name": "BidsAddresses",
      "outputs": [
        {
          "internalType": "address",
          "name": "",
          "type": "address"
        }
      ],
      "stateMutability": "view",
      "type": "function"
    },
    {
      "inputs": [],
      "name": "advertisementInfo",
      "outputs": [
        {
          "internalType": "enum Advertisement.State",
          "name": "currentState",
          "type": "uint8"
        },
        {
          "internalType": "address payable",
          "name": "PU",
          "type": "address"
        },
        {
          "internalType": "uint256",
          "name": "bandwidth",
          "type": "uint256"
        },
        {
          "internalType": "uint256",
          "name": "minBidValue",
          "type": "uint256"
        },
        {
          "internalType": "uint256",
          "name": "depositValue",
          "type": "uint256"
        },
        {
          "internalType": "uint256",
          "name": "BidsDeadline",
          "type": "uint256"
        },
        {
          "internalType": "uint256",
          "name": "BidsRevealDeadline",
          "type": "uint256"
        }
      ],
      "stateMutability": "view",
      "type": "function"
    },
    {
      "inputs": [
        {
          "internalType": "uint256",
          "name": "BidReveal",
          "type": "uint256"
        },
        {
          "internalType": "uint256",
          "name": "minUsageTime",
          "type": "uint256"
        },
        {
          "internalType": "string",
          "name": "salt",
          "type": "string"
        }
      ],
      "name": "bidInBidRevealRound",
      "outputs": [],
      "stateMutability": "nonpayable",
      "type": "function"
    },
    {
      "inputs": [
        {
          "internalType": "bytes32",
          "name": "bid",
          "type": "bytes32"
        }
      ],
      "name": "bidInBiddingRound",
      "outputs": [],
      "stateMutability": "payable",
      "type": "function"
    },
    {
      "inputs": [
        {
          "internalType": "address",
          "name": "",
          "type": "address"
        }
      ],
      "name": "bids",
      "outputs": [
        {
          "internalType": "bool",
          "name": "existsBid",
          "type": "bool"
        },
        {
          "internalType": "bytes32",
          "name": "Bidding",
          "type": "bytes32"
        },
        {
          "internalType": "uint256",
          "name": "BidReveal",
          "type": "uint256"
        },
        {
          "internalType": "uint256",
          "name": "minUsageTime",
          "type": "uint256"
        },
        {
          "internalType": "bool",
          "name": "isBidRevealValid",
          "type": "bool"
        },
        {
          "internalType": "uint256",
          "name": "deposit",
          "type": "uint256"
        }
      ],
      "stateMutability": "view",
      "type": "function"
    },
    {
      "inputs": [],
      "name": "closeAdvertisement",
      "outputs": [],
      "stateMutability": "nonpayable",
      "type": "function"
    },
    {
      "inputs": [],
      "name": "closeBiddingRound",
      "outputs": [],
      "stateMutability": "nonpayable",
      "type": "function"
    },
    {
      "inputs": [],
      "name": "deleteAdvertisement",
      "outputs": [],
      "stateMutability": "nonpayable",
      "type": "function"
    },
    {
      "inputs": [],
      "name": "getAdvertisementInfo",
      "outputs": [
        {
          "internalType": "enum Advertisement.State",
          "name": "",
          "type": "uint8"
        },
        {
          "internalType": "address",
          "name": "",
          "type": "address"
        },
        {
          "internalType": "uint256",
          "name": "",
          "type": "uint256"
        },
        {
          "internalType": "uint256",
          "name": "",
          "type": "uint256"
        },
        {
          "internalType": "uint256",
          "name": "",
          "type": "uint256"
        },
        {
          "internalType": "uint256",
          "name": "",
          "type": "uint256"
        },
        {
          "internalType": "uint256",
          "name": "",
          "type": "uint256"
        }
      ],
      "stateMutability": "view",
      "type": "function"
    },
    {
      "inputs": [],
      "name": "getCurrentState",
      "outputs": [
        {
          "internalType": "enum Advertisement.State",
          "name": "",
          "type": "uint8"
        }
      ],
      "stateMutability": "view",
      "type": "function"
    },
    {
      "inputs": [],
      "name": "getTokenValidUntil",
      "outputs": [
        {
          "internalType": "uint256",
          "name": "",
          "type": "uint256"
        }
      ],
      "stateMutability": "view",
      "type": "function"
    },
    {
      "inputs": [],
      "name": "retrieveToken",
      "outputs": [
        {
          "components": [
            {
              "internalType": "address",
              "name": "winner",
              "type": "address"
            },
            {
              "internalType": "address",
              "name": "advertisementContract",
              "type": "address"
            },
            {
              "internalType": "uint256",
              "name": "bandwidth",
              "type": "uint256"
            },
            {
              "internalType": "uint256",
              "name": "validUntil",
              "type": "uint256"
            },
            {
              "internalType": "bool",
              "name": "isSpent",
              "type": "bool"
            }
          ],
          "internalType": "struct Advertisement.Token",
          "name": "",
          "type": "tuple"
        }
      ],
      "stateMutability": "nonpayable",
      "type": "function"
    },
    {
      "inputs": [],
      "name": "winner",
      "outputs": [
        {
          "internalType": "address",
          "name": "accountAddress",
          "type": "address"
        },
        {
          "internalType": "uint256",
          "name": "bid",
          "type": "uint256"
        }
      ],
      "stateMutability": "view",
      "type": "function"
    },
    {
      "inputs": [
        {
          "internalType": "enum Advertisement.State",
          "name": "newState",
          "type": "uint8"
        }
      ],
      "name": "setCurrentState",
      "outputs": [],
      "stateMutability": "nonpayable",
      "type": "function"
    },
    {
      "inputs": [],
      "name": "getBidsLength",
      "outputs": [
        {
          "internalType": "uint256",
          "name": "",
          "type": "uint256"
        }
      ],
      "stateMutability": "view",
      "type": "function"
    },
    {
      "inputs": [],
      "name": "testFindWinner",
      "outputs": [],
      "stateMutability": "nonpayable",
      "type": "function"
    },
    {
      "inputs": [],
      "name": "testTransferBackDeposits",
      "outputs": [],
      "stateMutability": "nonpayable",
      "type": "function"
    },
    {
      "inputs": [],
      "name": "clearBidsAddresses",
      "outputs": [],
      "stateMutability": "nonpayable",
      "type": "function"
    },
    {
      "inputs": [],
      "name": "testTransferHighestBidToPU",
      "outputs": [],
      "stateMutability": "nonpayable",
      "type": "function"
    }
  ],
  "bytecode": "0x60806040523480156200001157600080fd5b5060405162003e8238038062003e82833981810160405281019062000037919062000287565b83838383336000806101000a81548173ffffffffffffffffffffffffffffffffffffffff021916908373ffffffffffffffffffffffffffffffffffffffff1602179055506040518060e0016040528060006003811115620000c1577f4e487b7100000000000000000000000000000000000000000000000000000000600052602160045260246000fd5b81526020018573ffffffffffffffffffffffffffffffffffffffff168152602001848152602001600184620000f79190620004b4565b81526020016001836200010b9190620004b4565b8152602001620151804262000121919062000457565b81526020016202a3004262000137919062000457565b815250600160008201518160000160006101000a81548160ff021916908360038111156200018e577f4e487b7100000000000000000000000000000000000000000000000000000000600052602160045260246000fd5b021790555060208201518160000160016101000a81548173ffffffffffffffffffffffffffffffffffffffff021916908373ffffffffffffffffffffffffffffffffffffffff16021790555060408201518160010155606082015181600201556080820151816003015560a0820151816004015560c082015181600501559050507f4ddc7019ab01ff1209484ef93fbfa9d2f755b1039ebbcb3055ec82fd79535aca6001426040516200024392919062000429565b60405180910390a15050505050505050620006d0565b6000815190506200026a816200069c565b92915050565b6000815190506200028181620006b6565b92915050565b600080600080608085870312156200029e57600080fd5b6000620002ae8782880162000259565b9450506020620002c18782880162000270565b9350506040620002d48782880162000270565b9250506060620002e78782880162000270565b91505092959194509250565b620002fe816200054c565b82525050565b6200030f816200059f565b82525050565b60e0820160008083015490506200032c81620005b3565b6200033b600086018262000304565b506200034781620005ef565b620003566020860182620002f3565b50600183015490506200036981620005d1565b62000378604086018262000407565b50600283015490506200038b81620005d1565b6200039a606086018262000407565b5060038301549050620003ad81620005d1565b620003bc608086018262000407565b5060048301549050620003cf81620005d1565b620003de60a086018262000407565b5060058301549050620003f181620005d1565b6200040060c086018262000407565b5050505050565b620004128162000595565b82525050565b620004238162000595565b82525050565b60006101008201905062000441600083018562000315565b6200045060e083018462000418565b9392505050565b6000620004648262000595565b9150620004718362000595565b9250827fffffffffffffffffffffffffffffffffffffffffffffffffffffffffffffffff03821115620004a957620004a86200060d565b5b828201905092915050565b6000620004c18262000595565b9150620004ce8362000595565b9250817fffffffffffffffffffffffffffffffffffffffffffffffffffffffffffffffff04831182151516156200050a57620005096200060d565b5b828202905092915050565b600073ffffffffffffffffffffffffffffffffffffffff82169050919050565b600060ff82169050919050565b6000819050919050565b6000620005598262000575565b9050919050565b6000819050620005708262000685565b919050565b600073ffffffffffffffffffffffffffffffffffffffff82169050919050565b6000819050919050565b6000620005ac8262000560565b9050919050565b6000620005ca620005c4836200066b565b62000535565b9050919050565b6000620005e8620005e2836200066b565b62000542565b9050919050565b600062000606620006008362000678565b62000515565b9050919050565b7f4e487b7100000000000000000000000000000000000000000000000000000000600052601160045260246000fd5b7f4e487b7100000000000000000000000000000000000000000000000000000000600052602160045260246000fd5b60008160001c9050919050565b60008160081c9050919050565b600481106200069957620006986200063c565b5b50565b620006a7816200054c565b8114620006b357600080fd5b50565b620006c18162000595565b8114620006cd57600080fd5b50565b6137a280620006e06000396000f3fe6080604052600436106101145760003560e01c80636db595e1116100a0578063bd124a4d11610064578063bd124a4d14610331578063cc689c5514610348578063d879914a14610373578063dfbf53ae1461039e578063e2c1b689146103ca57610114565b80636db595e11461025f5780637205024414610276578063736560e4146102a757806376842a78146102e4578063ae610d581461031557610114565b8063378aa701116100e7578063378aa7011461019b5780633e0869f5146101c65780635894dd6d146101ef5780635e0b788b1461020657806362ea82db1461021d57610114565b8063066a168f14610119578063198b5d16146101425780631b347aae146101595780632bce14c614610184575b600080fd5b34801561012557600080fd5b50610140600480360381019061013b91906124a9565b6103e1565b005b34801561014e57600080fd5b50610157610837565b005b34801561016557600080fd5b5061016e610841565b60405161017b9190612e6d565b60405180910390f35b34801561019057600080fd5b50610199610ba3565b005b3480156101a757600080fd5b506101b0610bad565b6040516101bd9190612a60565b60405180910390f35b3480156101d257600080fd5b506101ed60048036038101906101e89190612457565b610bc7565b005b3480156101fb57600080fd5b50610204610c1d565b005b34801561021257600080fd5b5061021b610e6c565b005b34801561022957600080fd5b50610244600480360381019061023f9190612405565b610e7c565b604051610256969594939291906129ff565b60405180910390f35b34801561026b57600080fd5b50610274610ed2565b005b34801561028257600080fd5b5061028b610edc565b60405161029e9796959493929190612aea565b60405180910390f35b3480156102b357600080fd5b506102ce60048036038101906102c99190612480565b610f54565b6040516102db919061293f565b60405180910390f35b3480156102f057600080fd5b506102f9610f93565b60405161030c9796959493929190612a7b565b60405180910390f35b61032f600480360381019061032a919061242e565b610ff0565b005b34801561033d57600080fd5b506103466112d4565b005b34801561035457600080fd5b5061035d6113a0565b60405161036a9190612ee8565b60405180910390f35b34801561037f57600080fd5b5061038861140f565b6040516103959190612ee8565b60405180910390f35b3480156103aa57600080fd5b506103b361141c565b6040516103c192919061295a565b60405180910390f35b3480156103d657600080fd5b506103df61144e565b005b600180600381111561041c577f4e487b7100000000000000000000000000000000000000000000000000000000600052602160045260246000fd5b600160000160009054906101000a900460ff166003811115610467577f4e487b7100000000000000000000000000000000000000000000000000000000600052602160045260246000fd5b146104a7576040517f08c379a000000000000000000000000000000000000000000000000000000000815260040161049e90612cf9565b60405180910390fd5b6001600501548042106104ef576040517f08c379a00000000000000000000000000000000000000000000000000000000081526004016104e690612ba5565b60405180910390fd5b600960003373ffffffffffffffffffffffffffffffffffffffff1673ffffffffffffffffffffffffffffffffffffffff16815260200190815260200160002060000160009054906101000a900460ff1661057e576040517f08c379a000000000000000000000000000000000000000000000000000000000815260040161057590612cd9565b60405180910390fd5b6001600201548510156105c6576040517f08c379a00000000000000000000000000000000000000000000000000000000081526004016105bd90612d83565b60405180910390fd5b600960003373ffffffffffffffffffffffffffffffffffffffff1673ffffffffffffffffffffffffffffffffffffffff1681526020019081526020016000206005015484866106159190612fd6565b1115610656576040517f08c379a000000000000000000000000000000000000000000000000000000000815260040161064d90612c4f565b60405180910390fd5b600085858560405160200161066d93929190612906565b60405160208183030381529060405280519060200120905080600960003373ffffffffffffffffffffffffffffffffffffffff1673ffffffffffffffffffffffffffffffffffffffff1681526020019081526020016000206001015414610709576040517f08c379a000000000000000000000000000000000000000000000000000000000815260040161070090612dc3565b60405180910390fd5b6001600960003373ffffffffffffffffffffffffffffffffffffffff1673ffffffffffffffffffffffffffffffffffffffff16815260200190815260200160002060040160006101000a81548160ff02191690831515021790555085600960003373ffffffffffffffffffffffffffffffffffffffff1673ffffffffffffffffffffffffffffffffffffffff1681526020019081526020016000206002018190555084600960003373ffffffffffffffffffffffffffffffffffffffff1673ffffffffffffffffffffffffffffffffffffffff168152602001908152602001600020600301819055507f270c4f52a30d5e536ebfac48bc6f06c044e6c40116d702e65f23823565452d733387874260405161082794939291906129ba565b60405180910390a1505050505050565b61083f611790565b565b6108496122ae565b6002806003811115610884577f4e487b7100000000000000000000000000000000000000000000000000000000600052602160045260246000fd5b600160000160009054906101000a900460ff1660038111156108cf577f4e487b7100000000000000000000000000000000000000000000000000000000600052602160045260246000fd5b1461090f576040517f08c379a000000000000000000000000000000000000000000000000000000000815260040161090690612cf9565b60405180910390fd5b600160050154804211610957576040517f08c379a000000000000000000000000000000000000000000000000000000000815260040161094e90612e4d565b60405180910390fd5b600760000160009054906101000a900473ffffffffffffffffffffffffffffffffffffffff1673ffffffffffffffffffffffffffffffffffffffff163373ffffffffffffffffffffffffffffffffffffffff16146109ea576040517f08c379a00000000000000000000000000000000000000000000000000000000081526004016109e190612d63565b60405180910390fd5b6003600160000160006101000a81548160ff02191690836003811115610a39577f4e487b7100000000000000000000000000000000000000000000000000000000600052602160045260246000fd5b02179055507f7ed3e08f4e01cb0fc3643e34bcfd45247dec68ed4414209bda9f5e5eab13d0fd3342604051610a6f92919061295a565b60405180910390a1600a60003373ffffffffffffffffffffffffffffffffffffffff1673ffffffffffffffffffffffffffffffffffffffff1681526020019081526020016000206040518060a00160405290816000820160009054906101000a900473ffffffffffffffffffffffffffffffffffffffff1673ffffffffffffffffffffffffffffffffffffffff1673ffffffffffffffffffffffffffffffffffffffff1681526020016001820160009054906101000a900473ffffffffffffffffffffffffffffffffffffffff1673ffffffffffffffffffffffffffffffffffffffff1673ffffffffffffffffffffffffffffffffffffffff16815260200160028201548152602001600382015481526020016004820160009054906101000a900460ff1615151515815250509250505090565b610bab611c12565b565b6000600160000160009054906101000a900460ff16905090565b80600160000160006101000a81548160ff02191690836003811115610c15577f4e487b7100000000000000000000000000000000000000000000000000000000600052602160045260246000fd5b021790555050565b6000806003811115610c58577f4e487b7100000000000000000000000000000000000000000000000000000000600052602160045260246000fd5b600160000160009054906101000a900460ff166003811115610ca3577f4e487b7100000000000000000000000000000000000000000000000000000000600052602160045260246000fd5b14610ce3576040517f08c379a0000000000000000000000000000000000000000000000000000000008152600401610cda90612cf9565b60405180910390fd5b600160040154804211610d2b576040517f08c379a0000000000000000000000000000000000000000000000000000000008152600401610d2290612e4d565b60405180910390fd5b6000600b805490501415610dc9576003600160000160006101000a81548160ff02191690836003811115610d88577f4e487b7100000000000000000000000000000000000000000000000000000000600052602160045260246000fd5b02179055507f215e9d9e456ceefab5946acf862721c0170084995701b08308363dbf4666dd6442604051610dbc9190612e1f565b60405180910390a1610e68565b60018060000160006101000a81548160ff02191690836003811115610e17577f4e487b7100000000000000000000000000000000000000000000000000000000600052602160045260246000fd5b02179055507f3dbdd4835dda2d2ea64f4793b53cbfa0bd395cc2bdb266568ccfedbf2f9fde4b600160000160009054906101000a900460ff1642604051610e5f929190612de3565b60405180910390a15b5050565b600b6000610e7a919061230b565b565b60096020528060005260406000206000915090508060000160009054906101000a900460ff16908060010154908060020154908060030154908060040160009054906101000a900460ff16908060050154905086565b610eda611ecf565b565b6000806000806000806000600160000160009054906101000a900460ff16600160000160019054906101000a900473ffffffffffffffffffffffffffffffffffffffff166001800154600160020154600160030154600160040154600160050154965096509650965096509650965090919293949596565b600b8181548110610f6457600080fd5b906000526020600020016000915054906101000a900473ffffffffffffffffffffffffffffffffffffffff1681565b60018060000160009054906101000a900460ff16908060000160019054906101000a900473ffffffffffffffffffffffffffffffffffffffff16908060010154908060020154908060030154908060040154908060050154905087565b600080600381111561102b577f4e487b7100000000000000000000000000000000000000000000000000000000600052602160045260246000fd5b600160000160009054906101000a900460ff166003811115611076577f4e487b7100000000000000000000000000000000000000000000000000000000600052602160045260246000fd5b146110b6576040517f08c379a00000000000000000000000000000000000000000000000000000000081526004016110ad90612cf9565b60405180910390fd5b6001600401548042106110fe576040517f08c379a00000000000000000000000000000000000000000000000000000000081526004016110f590612ba5565b60405180910390fd5b600160030154341015611146576040517f08c379a000000000000000000000000000000000000000000000000000000000815260040161113d90612c0f565b60405180910390fd5b6040518060c0016040528060011515815260200184815260200160008152602001600081526020016000151581526020016001346111849190612fd6565b815250600960003373ffffffffffffffffffffffffffffffffffffffff1673ffffffffffffffffffffffffffffffffffffffff16815260200190815260200160002060008201518160000160006101000a81548160ff02191690831515021790555060208201518160010155604082015181600201556060820151816003015560808201518160040160006101000a81548160ff02191690831515021790555060a08201518160050155905050600b339080600181540180825580915050600190039060005260206000200160009091909190916101000a81548173ffffffffffffffffffffffffffffffffffffffff021916908373ffffffffffffffffffffffffffffffffffffffff1602179055507fb7a0ff6cc8dfcd966d5d6a3a6da8bd9690d9e2b641687f28ac0f0e28a47c89133334426040516112c793929190612983565b60405180910390a1505050565b60008054906101000a900473ffffffffffffffffffffffffffffffffffffffff1673ffffffffffffffffffffffffffffffffffffffff163373ffffffffffffffffffffffffffffffffffffffff1614611362576040517f08c379a000000000000000000000000000000000000000000000000000000000815260040161135990612c2f565b60405180910390fd5b600160000160019054906101000a900473ffffffffffffffffffffffffffffffffffffffff1673ffffffffffffffffffffffffffffffffffffffff16ff5b6000600a6000600760000160009054906101000a900473ffffffffffffffffffffffffffffffffffffffff1673ffffffffffffffffffffffffffffffffffffffff1673ffffffffffffffffffffffffffffffffffffffff16815260200190815260200160002060030154905090565b6000600b80549050905090565b60078060000160009054906101000a900473ffffffffffffffffffffffffffffffffffffffff16908060010154905082565b600160050154804211611496576040517f08c379a000000000000000000000000000000000000000000000000000000000815260040161148d90612e4d565b60405180910390fd5b60018060038111156114d1577f4e487b7100000000000000000000000000000000000000000000000000000000600052602160045260246000fd5b600160000160009054906101000a900460ff16600381111561151c577f4e487b7100000000000000000000000000000000000000000000000000000000600052602160045260246000fd5b1461155c576040517f08c379a000000000000000000000000000000000000000000000000000000000815260040161155390612cf9565b60405180910390fd5b6000805b600b805490508110156116495760096000600b83815481106115ab577f4e487b7100000000000000000000000000000000000000000000000000000000600052603260045260246000fd5b9060005260206000200160009054906101000a900473ffffffffffffffffffffffffffffffffffffffff1673ffffffffffffffffffffffffffffffffffffffff1673ffffffffffffffffffffffffffffffffffffffff16815260200190815260200160002060040160009054906101000a900460ff1615611636576001826116339190612f80565b91505b8080611641906131f4565b915050611560565b5060008114156116e3576003600160000160006101000a81548160ff021916908360038111156116a2577f4e487b7100000000000000000000000000000000000000000000000000000000600052602160045260246000fd5b02179055507f215e9d9e456ceefab5946acf862721c0170084995701b08308363dbf4666dd64426040516116d69190612c6f565b60405180910390a161178b565b6002600160000160006101000a81548160ff02191690836003811115611732577f4e487b7100000000000000000000000000000000000000000000000000000000600052602160045260246000fd5b02179055507f3dbdd4835dda2d2ea64f4793b53cbfa0bd395cc2bdb266568ccfedbf2f9fde4b600160000160009054906101000a900460ff164260405161177a929190612c9d565b60405180910390a161178a611790565b5b505050565b60028060038111156117cb577f4e487b7100000000000000000000000000000000000000000000000000000000600052602160045260246000fd5b600160000160009054906101000a900460ff166003811115611816577f4e487b7100000000000000000000000000000000000000000000000000000000600052602160045260246000fd5b14611856576040517f08c379a000000000000000000000000000000000000000000000000000000000815260040161184d90612cf9565b60405180910390fd5b60008060005b600b805490508110156119e5576000600b82815481106118a5577f4e487b7100000000000000000000000000000000000000000000000000000000600052603260045260246000fd5b9060005260206000200160009054906101000a900473ffffffffffffffffffffffffffffffffffffffff169050600960008273ffffffffffffffffffffffffffffffffffffffff1673ffffffffffffffffffffffffffffffffffffffff16815260200190815260200160002060040160009054906101000a900460ff1661192c57506119d2565b6000600960008373ffffffffffffffffffffffffffffffffffffffff1673ffffffffffffffffffffffffffffffffffffffff16815260200190815260200160002060030154600960008473ffffffffffffffffffffffffffffffffffffffff1673ffffffffffffffffffffffffffffffffffffffff168152602001908152602001600020600201546119be9190612fd6565b9050838111156119cf578194508093505b50505b80806119dd906131f4565b91505061185c565b5060405180604001604052808373ffffffffffffffffffffffffffffffffffffffff16815260200182815250600760008201518160000160006101000a81548173ffffffffffffffffffffffffffffffffffffffff021916908373ffffffffffffffffffffffffffffffffffffffff160217905550602082015181600101559050507ff759f57bf4b808b6e91a1c291d1cc81e47f24aa62e8cf7f6cc30b23822e9ac2b600742604051611a99929190612e88565b60405180910390a16040518060a001604052808373ffffffffffffffffffffffffffffffffffffffff1681526020013073ffffffffffffffffffffffffffffffffffffffff16815260200160018001548152602001626ebe0042611afd9190612f80565b815260200160001515815250600a60008473ffffffffffffffffffffffffffffffffffffffff1673ffffffffffffffffffffffffffffffffffffffff16815260200190815260200160002060008201518160000160006101000a81548173ffffffffffffffffffffffffffffffffffffffff021916908373ffffffffffffffffffffffffffffffffffffffff16021790555060208201518160010160006101000a81548173ffffffffffffffffffffffffffffffffffffffff021916908373ffffffffffffffffffffffffffffffffffffffff160217905550604082015181600201556060820151816003015560808201518160040160006101000a81548160ff021916908315150217905550905050505050565b6002806003811115611c4d577f4e487b7100000000000000000000000000000000000000000000000000000000600052602160045260246000fd5b600160000160009054906101000a900460ff166003811115611c98577f4e487b7100000000000000000000000000000000000000000000000000000000600052602160045260246000fd5b14611cd8576040517f08c379a0000000000000000000000000000000000000000000000000000000008152600401611ccf90612cf9565b60405180910390fd5b600060076001015490506000600160000160019054906101000a900473ffffffffffffffffffffffffffffffffffffffff16905060006040518060400160405280601a81526020017f5472616e7366657220686967686573742062696420746f2050550000000000008152509050600160030154831115611d7757600160030154925060405180608001604052806051815260200161371c6051913990505b7f7c4000a16d683bc6bd33d5882af0733a8a58704ed6a1fbaaa780a62b7af76d9581838542604051611dac9493929190612b59565b60405180910390a18173ffffffffffffffffffffffffffffffffffffffff166108fc849081150290604051600060405180830381858888f19350505050158015611dfa573d6000803e3d6000fd5b5060004790506000811115611e8c577f7c4000a16d683bc6bd33d5882af0733a8a58704ed6a1fbaaa780a62b7af76d95838242604051611e3c93929190612d19565b60405180910390a18273ffffffffffffffffffffffffffffffffffffffff166108fc829081150290604051600060405180830381858888f19350505050158015611e8a573d6000803e3d6000fd5b505b7fb3f6d3af3f4cac6b2e2f9350e3e92289bf65cd567a2f00130fd470202efa033c60074742604051611ec093929190612eb1565b60405180910390a15050505050565b6002806003811115611f0a577f4e487b7100000000000000000000000000000000000000000000000000000000600052602160045260246000fd5b600160000160009054906101000a900460ff166003811115611f55577f4e487b7100000000000000000000000000000000000000000000000000000000600052602160045260246000fd5b14611f95576040517f08c379a0000000000000000000000000000000000000000000000000000000008152600401611f8c90612cf9565b60405180910390fd5b600073ffffffffffffffffffffffffffffffffffffffff16600760000160009054906101000a900473ffffffffffffffffffffffffffffffffffffffff1673ffffffffffffffffffffffffffffffffffffffff16141561202a576040517f08c379a000000000000000000000000000000000000000000000000000000000815260040161202190612da3565b60405180910390fd5b60005b600b805490508110156122aa576000600b8281548110612076577f4e487b7100000000000000000000000000000000000000000000000000000000600052603260045260246000fd5b9060005260206000200160009054906101000a900473ffffffffffffffffffffffffffffffffffffffff1690506000600960008373ffffffffffffffffffffffffffffffffffffffff1673ffffffffffffffffffffffffffffffffffffffff1681526020019081526020016000206040518060c00160405290816000820160009054906101000a900460ff161515151581526020016001820154815260200160028201548152602001600382015481526020016004820160009054906101000a900460ff161515151581526020016005820154815250509050806080015161215f575050612297565b6000600760000160009054906101000a900473ffffffffffffffffffffffffffffffffffffffff1673ffffffffffffffffffffffffffffffffffffffff168373ffffffffffffffffffffffffffffffffffffffff161490508080156121cc57508160a00151826040015110155b156121d957505050612297565b6000816121ea578260a0015161220e565b826060015183604001516121fe9190612fd6565b8360a0015161220d9190613030565b5b90507f7c4000a16d683bc6bd33d5882af0733a8a58704ed6a1fbaaa780a62b7af76d9584824260405161224393929190612bc5565b60405180910390a18373ffffffffffffffffffffffffffffffffffffffff166108fc829081150290604051600060405180830381858888f19350505050158015612291573d6000803e3d6000fd5b50505050505b80806122a2906131f4565b91505061202d565b5050565b6040518060a00160405280600073ffffffffffffffffffffffffffffffffffffffff168152602001600073ffffffffffffffffffffffffffffffffffffffff16815260200160008152602001600081526020016000151581525090565b5080546000825590600052602060002090810190612329919061232c565b50565b5b8082111561234557600081600090555060010161232d565b5090565b600061235c61235784612f28565b612f03565b90508281526020810184848401111561237457600080fd5b61237f84828561314d565b509392505050565b600081359050612396816136c6565b92915050565b6000813590506123ab816136dd565b92915050565b6000813590506123c0816136f4565b92915050565b600082601f8301126123d757600080fd5b81356123e7848260208601612349565b91505092915050565b6000813590506123ff81613704565b92915050565b60006020828403121561241757600080fd5b600061242584828501612387565b91505092915050565b60006020828403121561244057600080fd5b600061244e8482850161239c565b91505092915050565b60006020828403121561246957600080fd5b6000612477848285016123b1565b91505092915050565b60006020828403121561249257600080fd5b60006124a0848285016123f0565b91505092915050565b6000806000606084860312156124be57600080fd5b60006124cc868287016123f0565b93505060206124dd868287016123f0565b925050604084013567ffffffffffffffff8111156124fa57600080fd5b612506868287016123c6565b9150509250925092565b61251981613105565b82525050565b612528816130a0565b82525050565b6125378161308e565b82525050565b6125468161308e565b82525050565b612555816130b2565b82525050565b612564816130b2565b82525050565b612573816130be565b82525050565b61258281613117565b82525050565b600061259382612f59565b61259d8185612f64565b93506125ad81856020860161315c565b6125b6816132d4565b840191505092915050565b60006125cc82612f59565b6125d68185612f75565b93506125e681856020860161315c565b80840191505092915050565b60006125ff601983612f64565b915061260a826132f2565b602082019050919050565b6000612622601b83612f64565b915061262d8261331b565b602082019050919050565b6000612645601883612f64565b915061265082613344565b602082019050919050565b6000612668603183612f64565b91506126738261336d565b604082019050919050565b600061268b603383612f64565b9150612696826133bc565b604082019050919050565b60006126ae602283612f64565b91506126b98261340b565b604082019050919050565b60006126d1601383612f64565b91506126dc8261345a565b602082019050919050565b60006126f4602d83612f64565b91506126ff82613483565b604082019050919050565b6000612717600d83612f64565b9150612722826134d2565b602082019050919050565b600061273a601f83612f64565b9150612745826134fb565b602082019050919050565b600061275d602c83612f64565b915061276882613524565b604082019050919050565b6000612780601483612f64565b915061278b82613573565b602082019050919050565b60006127a3602f83612f64565b91506127ae8261359c565b604082019050919050565b60006127c6602a83612f64565b91506127d1826135eb565b604082019050919050565b60006127e9600d83612f64565b91506127f48261363a565b602082019050919050565b600061280c602e83612f64565b915061281782613663565b604082019050919050565b60a082016000820151612838600085018261252e565b50602082015161284b602085018261252e565b50604082015161285e60408501826128d1565b50606082015161287160608501826128d1565b506080820151612884608085018261254c565b50505050565b60408201600080830154905061289f8161318f565b6128ac600086018261252e565b50600183015490506128bd816131a9565b6128ca60208601826128d1565b5050505050565b6128da816130fb565b82525050565b6128e9816130fb565b82525050565b6129006128fb826130fb565b61323d565b82525050565b600061291282866128ef565b60208201915061292282856128ef565b60208201915061293282846125c1565b9150819050949350505050565b6000602082019050612954600083018461253d565b92915050565b600060408201905061296f600083018561253d565b61297c60208301846128e0565b9392505050565b6000606082019050612998600083018661253d565b6129a560208301856128e0565b6129b260408301846128e0565b949350505050565b60006080820190506129cf600083018761253d565b6129dc60208301866128e0565b6129e960408301856128e0565b6129f660608301846128e0565b95945050505050565b600060c082019050612a14600083018961255b565b612a21602083018861256a565b612a2e60408301876128e0565b612a3b60608301866128e0565b612a48608083018561255b565b612a5560a08301846128e0565b979650505050505050565b6000602082019050612a756000830184612579565b92915050565b600060e082019050612a90600083018a612579565b612a9d602083018961251f565b612aaa60408301886128e0565b612ab760608301876128e0565b612ac460808301866128e0565b612ad160a08301856128e0565b612ade60c08301846128e0565b98975050505050505050565b600060e082019050612aff600083018a612579565b612b0c602083018961253d565b612b1960408301886128e0565b612b2660608301876128e0565b612b3360808301866128e0565b612b4060a08301856128e0565b612b4d60c08301846128e0565b98975050505050505050565b60006080820190508181036000830152612b738187612588565b9050612b826020830186612510565b612b8f60408301856128e0565b612b9c60608301846128e0565b95945050505050565b60006020820190508181036000830152612bbe816125f2565b9050919050565b60006080820190508181036000830152612bde81612615565b9050612bed6020830186612510565b612bfa60408301856128e0565b612c0760608301846128e0565b949350505050565b60006020820190508181036000830152612c2881612638565b9050919050565b60006020820190508181036000830152612c488161265b565b9050919050565b60006020820190508181036000830152612c688161267e565b9050919050565b60006040820190508181036000830152612c88816126a1565b9050612c9760208301846128e0565b92915050565b60006060820190508181036000830152612cb6816126c4565b9050612cc56020830185612579565b612cd260408301846128e0565b9392505050565b60006020820190508181036000830152612cf2816126e7565b9050919050565b60006020820190508181036000830152612d128161270a565b9050919050565b60006080820190508181036000830152612d328161272d565b9050612d416020830186612510565b612d4e60408301856128e0565b612d5b60608301846128e0565b949350505050565b60006020820190508181036000830152612d7c81612750565b9050919050565b60006020820190508181036000830152612d9c81612773565b9050919050565b60006020820190508181036000830152612dbc81612796565b9050919050565b60006020820190508181036000830152612ddc816127b9565b9050919050565b60006060820190508181036000830152612dfc816127dc565b9050612e0b6020830185612579565b612e1860408301846128e0565b9392505050565b60006040820190508181036000830152612e38816127dc565b9050612e4760208301846128e0565b92915050565b60006020820190508181036000830152612e66816127ff565b9050919050565b600060a082019050612e826000830184612822565b92915050565b6000606082019050612e9d600083018561288a565b612eaa60408301846128e0565b9392505050565b6000608082019050612ec6600083018661288a565b612ed360408301856128e0565b612ee060608301846128e0565b949350505050565b6000602082019050612efd60008301846128e0565b92915050565b6000612f0d612f1e565b9050612f1982826131c3565b919050565b6000604051905090565b600067ffffffffffffffff821115612f4357612f426132a5565b5b612f4c826132d4565b9050602081019050919050565b600081519050919050565b600082825260208201905092915050565b600081905092915050565b6000612f8b826130fb565b9150612f96836130fb565b9250827fffffffffffffffffffffffffffffffffffffffffffffffffffffffffffffffff03821115612fcb57612fca613247565b5b828201905092915050565b6000612fe1826130fb565b9150612fec836130fb565b9250817fffffffffffffffffffffffffffffffffffffffffffffffffffffffffffffffff048311821515161561302557613024613247565b5b828202905092915050565b600061303b826130fb565b9150613046836130fb565b92508282101561305957613058613247565b5b828203905092915050565b600073ffffffffffffffffffffffffffffffffffffffff82169050919050565b6000819050919050565b6000613099826130db565b9050919050565b60006130ab826130db565b9050919050565b60008115159050919050565b6000819050919050565b60008190506130d6826136b2565b919050565b600073ffffffffffffffffffffffffffffffffffffffff82169050919050565b6000819050919050565b600061311082613129565b9050919050565b6000613122826130c8565b9050919050565b60006131348261313b565b9050919050565b6000613146826130db565b9050919050565b82818337600083830152505050565b60005b8381101561317a57808201518184015260208101905061315f565b83811115613189576000848401525b50505050565b60006131a261319d836132e5565b613064565b9050919050565b60006131bc6131b7836132e5565b613084565b9050919050565b6131cc826132d4565b810181811067ffffffffffffffff821117156131eb576131ea6132a5565b5b80604052505050565b60006131ff826130fb565b91507fffffffffffffffffffffffffffffffffffffffffffffffffffffffffffffffff82141561323257613231613247565b5b600182019050919050565b6000819050919050565b7f4e487b7100000000000000000000000000000000000000000000000000000000600052601160045260246000fd5b7f4e487b7100000000000000000000000000000000000000000000000000000000600052602160045260246000fd5b7f4e487b7100000000000000000000000000000000000000000000000000000000600052604160045260246000fd5b6000601f19601f8301169050919050565b60008160001c9050919050565b7f43616e6e6f742062696420616674657220646561646c696e6500000000000000600082015250565b7f5472616e73666572206261636b206465706f73697420746f2053550000000000600082015250565b7f4465706f7369742076616c756520697320746f6f206c6f770000000000000000600082015250565b7f596f7520617265206e6f7420616c6c6f77656420746f2064656c65746520746860008201527f6973206164766572746973656d656e7421000000000000000000000000000000602082015250565b7f52657665616c6564206269642076616c75657320646f6573206e6f74206d617460008201527f6368207769746820746865206465706f73697400000000000000000000000000602082015250565b7f4269642072657665616c696e6720726f756e642c206e6f2076616c696420626960008201527f6473000000000000000000000000000000000000000000000000000000000000602082015250565b7f4269642072657665616c696e6720726f756e6400000000000000000000000000600082015250565b7f54686973206163636f756e7420686173206e6f742062696420696e207468652060008201527f62696464696e6720726f756e6400000000000000000000000000000000000000602082015250565b7f496e76616c696420737461746500000000000000000000000000000000000000600082015250565b7f5472616e7366657220636f6e74726163742062616c616e636520746f20505500600082015250565b7f596f7520617265206e6f74207468652077696e6e6572206f662074686520616460008201527f766572746973656d656e74210000000000000000000000000000000000000000602082015250565b7f4269642076616c756520697320746f6f206c6f77000000000000000000000000600082015250565b7f4d7573742066696e6420612077696e6e6572206265666f72652073656e64696e60008201527f67206261636b206465706f736974730000000000000000000000000000000000602082015250565b7f2041637475616c2062696420616e642072657665616c696e672062696420646f60008201527f206e6f74206d6174636800000000000000000000000000000000000000000000602082015250565b7f42696464696e6720726f756e6400000000000000000000000000000000000000600082015250565b7f43616e6e6f7420706572666f726d207468697320616374696f6e206265666f7260008201527f652074686520646561646c696e65000000000000000000000000000000000000602082015250565b600481106136c3576136c2613276565b5b50565b6136cf8161308e565b81146136da57600080fd5b50565b6136e6816130be565b81146136f157600080fd5b50565b6004811061370157600080fd5b50565b61370d816130fb565b811461371857600080fd5b5056fe5468652068696768657374206269642077617320686967686572207468616e20746865206465706f7369742076616c75652e205472616e7366657272696e6720746865206465706f73697420746f205055a2646970667358221220891b933864e1ed4c3c681f6b1fbd8a6686fabab7fce135b498b2f64a415b6d1464736f6c63430008010033",
  "immutableReferences": {},
  "source": "// SPDX-License-Identifier: MIT\r\npragma solidity ^0.8.1;\r\nimport \"./Advertisement.sol\";\r\n\r\n//defining a new smart contract because state cannot be modified directly. \r\n//state of the contract is determined during the execution of the transactions.\r\n//TestAdvertisement contract inherits from Advertisement contract to test its functionalities.\r\ncontract TestAdvertisement is Advertisement {\r\n    constructor(\r\n        address payable _PU,\r\n        uint _bandwidth, \r\n        uint _minBidValue, \r\n        uint _depositValue\r\n    ) Advertisement (\r\n        _PU,\r\n        _bandwidth, \r\n        _minBidValue, \r\n        _depositValue\r\n    ) {}\r\n\r\n    // function to set the current state of the advertisement directly.\r\n    function setCurrentState(State newState) public {\r\n        advertisementInfo.currentState = newState;\r\n    }\r\n\r\n    //function to get the number of bidders from the stored array.\r\n    function getBidsLength() public view returns(uint256) {\r\n        return BidsAddresses.length;\r\n    }\r\n\r\n    //function to test finding the winner of the advertisement\r\n    function testFindWinner() public {\r\n        findWinner();\r\n    }\r\n\r\n    //function to test transferring back deposits to bidders\r\n    function testTransferBackDeposits() public {\r\n        transferBackDeposits();\r\n    }\r\n\r\n    //function to clear all bid addresses\r\n    function clearBidsAddresses() public {\r\n        delete BidsAddresses;\r\n    }\r\n\r\n    //function to test transferring the highest bid to the PU\r\n    function testTransferHighestBidToPU() public {\r\n        transferHighestBidToPU();\r\n    } \r\n}\r\n",
  "sourcePath": "C:\\Users\\Sampavi Sivakumaran\\Desktop\\FYP\\Blockchain_Based_Spectrum_Sharing_for_5G_and_Beyond\\contracts\\TestAdvertisement.sol",
  "compiler": {
    "name": "solc",
    "version": "0.8.1+commit.df193b15.Emscripten.clang"
  },
  "schemaVersion": "3.4.16",
  "updatedAt": "2024-05-09T03:45:54.260Z",
  "devdoc": {
    "kind": "dev",
    "methods": {},
    "version": 1
  },
  "userdoc": {
    "kind": "user",
    "methods": {},
    "version": 1
  }
}