{
  "contractName": "TestAuction",
  "abi": [
    {
      "inputs": [
        {
          "internalType": "address payable",
          "name": "_PU",
          "type": "address"
        },
        {
          "internalType": "uint256",
          "name": "_bandwidth",
          "type": "uint256"
        },
        {
          "internalType": "uint256",
          "name": "_minBidValue",
          "type": "uint256"
        },
        {
          "internalType": "uint256",
          "name": "_depositValue",
          "type": "uint256"
        }
      ],
      "stateMutability": "nonpayable",
      "type": "constructor"
    },
    {
      "anonymous": false,
      "inputs": [
        {
          "components": [
            {
              "internalType": "address",
              "name": "accountAddress",
              "type": "address"
            },
            {
              "internalType": "uint256",
              "name": "bid",
              "type": "uint256"
            }
          ],
          "indexed": false,
          "internalType": "struct Auction.Winner",
          "name": "winner",
          "type": "tuple"
        },
        {
          "indexed": false,
          "internalType": "uint256",
          "name": "contractBalance",
          "type": "uint256"
        },
        {
          "indexed": false,
          "internalType": "uint256",
          "name": "currentTime",
          "type": "uint256"
        }
      ],
      "name": "AuctionEnded",
      "type": "event"
    },
    {
      "anonymous": false,
      "inputs": [
        {
          "indexed": false,
          "internalType": "string",
          "name": "whichRound",
          "type": "string"
        },
        {
          "indexed": false,
          "internalType": "uint256",
          "name": "currentTime",
          "type": "uint256"
        }
      ],
      "name": "ClosedAuctionWithNoBids",
      "type": "event"
    },
    {
      "anonymous": false,
      "inputs": [
        {
          "indexed": false,
          "internalType": "string",
          "name": "whichRound",
          "type": "string"
        },
        {
          "indexed": false,
          "internalType": "enum Auction.State",
          "name": "state",
          "type": "uint8"
        },
        {
          "indexed": false,
          "internalType": "uint256",
          "name": "currentTime",
          "type": "uint256"
        }
      ],
      "name": "ClosedRound",
      "type": "event"
    },
    {
      "anonymous": false,
      "inputs": [
        {
          "components": [
            {
              "internalType": "enum Auction.State",
              "name": "currentState",
              "type": "uint8"
            },
            {
              "internalType": "address payable",
              "name": "PU",
              "type": "address"
            },
            {
              "internalType": "uint256",
              "name": "bandwidth",
              "type": "uint256"
            },
            {
              "internalType": "uint256",
              "name": "minBidValue",
              "type": "uint256"
            },
            {
              "internalType": "uint256",
              "name": "depositValue",
              "type": "uint256"
            },
            {
              "internalType": "uint256",
              "name": "BidsDeadline",
              "type": "uint256"
            },
            {
              "internalType": "uint256",
              "name": "BidsRevealDeadline",
              "type": "uint256"
            }
          ],
          "indexed": false,
          "internalType": "struct Auction.AuctionInfo",
          "name": "auctionInfo",
          "type": "tuple"
        },
        {
          "indexed": false,
          "internalType": "uint256",
          "name": "currentTime",
          "type": "uint256"
        }
      ],
      "name": "CreatedNewAuction",
      "type": "event"
    },
    {
      "anonymous": false,
      "inputs": [
        {
          "components": [
            {
              "internalType": "address",
              "name": "accountAddress",
              "type": "address"
            },
            {
              "internalType": "uint256",
              "name": "bid",
              "type": "uint256"
            }
          ],
          "indexed": false,
          "internalType": "struct Auction.Winner",
          "name": "winner",
          "type": "tuple"
        },
        {
          "indexed": false,
          "internalType": "uint256",
          "name": "currentTime",
          "type": "uint256"
        }
      ],
      "name": "FoundHighestBid",
      "type": "event"
    },
    {
      "anonymous": false,
      "inputs": [
        {
          "indexed": false,
          "internalType": "address",
          "name": "SU",
          "type": "address"
        },
        {
          "indexed": false,
          "internalType": "uint256",
          "name": "deposit",
          "type": "uint256"
        },
        {
          "indexed": false,
          "internalType": "uint256",
          "name": "currentTime",
          "type": "uint256"
        }
      ],
      "name": "ReceivedBid",
      "type": "event"
    },
    {
      "anonymous": false,
      "inputs": [
        {
          "indexed": false,
          "internalType": "address",
          "name": "SU",
          "type": "address"
        },
        {
          "indexed": false,
          "internalType": "uint256",
          "name": "bid",
          "type": "uint256"
        },
        {
          "indexed": false,
          "internalType": "uint256",
          "name": "UsageTime",
          "type": "uint256"
        },
        {
          "indexed": false,
          "internalType": "uint256",
          "name": "currentTime",
          "type": "uint256"
        }
      ],
      "name": "ReceivedBidReveal",
      "type": "event"
    },
    {
      "anonymous": false,
      "inputs": [
        {
          "indexed": false,
          "internalType": "address",
          "name": "retrievedBy",
          "type": "address"
        },
        {
          "indexed": false,
          "internalType": "uint256",
          "name": "currentTime",
          "type": "uint256"
        }
      ],
      "name": "RetrievedToken",
      "type": "event"
    },
    {
      "anonymous": false,
      "inputs": [
        {
          "indexed": false,
          "internalType": "string",
          "name": "context",
          "type": "string"
        },
        {
          "indexed": false,
          "internalType": "address",
          "name": "to",
          "type": "address"
        },
        {
          "indexed": false,
          "internalType": "uint256",
          "name": "value",
          "type": "uint256"
        },
        {
          "indexed": false,
          "internalType": "uint256",
          "name": "currentTime",
          "type": "uint256"
        }
      ],
      "name": "TransferEvent",
      "type": "event"
    },
    {
      "inputs": [
        {
          "internalType": "uint256",
          "name": "",
          "type": "uint256"
        }
      ],
      "name": "BidsAddresses",
      "outputs": [
        {
          "internalType": "address",
          "name": "",
          "type": "address"
        }
      ],
      "stateMutability": "view",
      "type": "function"
    },
    {
      "inputs": [],
      "name": "auctionInfo",
      "outputs": [
        {
          "internalType": "enum Auction.State",
          "name": "currentState",
          "type": "uint8"
        },
        {
          "internalType": "address payable",
          "name": "PU",
          "type": "address"
        },
        {
          "internalType": "uint256",
          "name": "bandwidth",
          "type": "uint256"
        },
        {
          "internalType": "uint256",
          "name": "minBidValue",
          "type": "uint256"
        },
        {
          "internalType": "uint256",
          "name": "depositValue",
          "type": "uint256"
        },
        {
          "internalType": "uint256",
          "name": "BidsDeadline",
          "type": "uint256"
        },
        {
          "internalType": "uint256",
          "name": "BidsRevealDeadline",
          "type": "uint256"
        }
      ],
      "stateMutability": "view",
      "type": "function"
    },
    {
      "inputs": [
        {
          "internalType": "uint256",
          "name": "BidReveal",
          "type": "uint256"
        },
        {
          "internalType": "uint256",
          "name": "minUsageTime",
          "type": "uint256"
        },
        {
          "internalType": "string",
          "name": "salt",
          "type": "string"
        }
      ],
      "name": "bidInBidRevealRound",
      "outputs": [],
      "stateMutability": "nonpayable",
      "type": "function"
    },
    {
      "inputs": [
        {
          "internalType": "bytes32",
          "name": "bid",
          "type": "bytes32"
        }
      ],
      "name": "bidInBiddingRound",
      "outputs": [],
      "stateMutability": "payable",
      "type": "function"
    },
    {
      "inputs": [
        {
          "internalType": "address",
          "name": "",
          "type": "address"
        }
      ],
      "name": "bids",
      "outputs": [
        {
          "internalType": "bool",
          "name": "existsBid",
          "type": "bool"
        },
        {
          "internalType": "bytes32",
          "name": "Bidding",
          "type": "bytes32"
        },
        {
          "internalType": "uint256",
          "name": "BidReveal",
          "type": "uint256"
        },
        {
          "internalType": "uint256",
          "name": "minUsageTime",
          "type": "uint256"
        },
        {
          "internalType": "bool",
          "name": "isBidRevealValid",
          "type": "bool"
        },
        {
          "internalType": "uint256",
          "name": "deposit",
          "type": "uint256"
        }
      ],
      "stateMutability": "view",
      "type": "function"
    },
    {
      "inputs": [],
      "name": "closeAuction",
      "outputs": [],
      "stateMutability": "nonpayable",
      "type": "function"
    },
    {
      "inputs": [],
      "name": "closeBiddingRound",
      "outputs": [],
      "stateMutability": "nonpayable",
      "type": "function"
    },
    {
      "inputs": [],
      "name": "deleteAuction",
      "outputs": [],
      "stateMutability": "nonpayable",
      "type": "function"
    },
    {
      "inputs": [],
      "name": "getAuctionInfo",
      "outputs": [
        {
          "internalType": "enum Auction.State",
          "name": "",
          "type": "uint8"
        },
        {
          "internalType": "address",
          "name": "",
          "type": "address"
        },
        {
          "internalType": "uint256",
          "name": "",
          "type": "uint256"
        },
        {
          "internalType": "uint256",
          "name": "",
          "type": "uint256"
        },
        {
          "internalType": "uint256",
          "name": "",
          "type": "uint256"
        },
        {
          "internalType": "uint256",
          "name": "",
          "type": "uint256"
        },
        {
          "internalType": "uint256",
          "name": "",
          "type": "uint256"
        }
      ],
      "stateMutability": "view",
      "type": "function"
    },
    {
      "inputs": [],
      "name": "getCurrentState",
      "outputs": [
        {
          "internalType": "enum Auction.State",
          "name": "",
          "type": "uint8"
        }
      ],
      "stateMutability": "view",
      "type": "function"
    },
    {
      "inputs": [],
      "name": "getTokenValidUntil",
      "outputs": [
        {
          "internalType": "uint256",
          "name": "",
          "type": "uint256"
        }
      ],
      "stateMutability": "view",
      "type": "function"
    },
    {
      "inputs": [],
      "name": "retrieveToken",
      "outputs": [
        {
          "components": [
            {
              "internalType": "address",
              "name": "winner",
              "type": "address"
            },
            {
              "internalType": "address",
              "name": "auctionContract",
              "type": "address"
            },
            {
              "internalType": "uint256",
              "name": "bandwidth",
              "type": "uint256"
            },
            {
              "internalType": "uint256",
              "name": "validUntil",
              "type": "uint256"
            },
            {
              "internalType": "bool",
              "name": "isSpent",
              "type": "bool"
            }
          ],
          "internalType": "struct Auction.Token",
          "name": "",
          "type": "tuple"
        }
      ],
      "stateMutability": "nonpayable",
      "type": "function"
    },
    {
      "inputs": [],
      "name": "winner",
      "outputs": [
        {
          "internalType": "address",
          "name": "accountAddress",
          "type": "address"
        },
        {
          "internalType": "uint256",
          "name": "bid",
          "type": "uint256"
        }
      ],
      "stateMutability": "view",
      "type": "function"
    },
    {
      "inputs": [
        {
          "internalType": "enum Auction.State",
          "name": "newState",
          "type": "uint8"
        }
      ],
      "name": "setCurrentState",
      "outputs": [],
      "stateMutability": "nonpayable",
      "type": "function"
    },
    {
      "inputs": [],
      "name": "getBidsLength",
      "outputs": [
        {
          "internalType": "uint256",
          "name": "",
          "type": "uint256"
        }
      ],
      "stateMutability": "view",
      "type": "function"
    },
    {
      "inputs": [],
      "name": "testFindWinner",
      "outputs": [],
      "stateMutability": "nonpayable",
      "type": "function"
    },
    {
      "inputs": [],
      "name": "testTransferBackDeposits",
      "outputs": [],
      "stateMutability": "nonpayable",
      "type": "function"
    },
    {
      "inputs": [],
      "name": "clearBidsAddresses",
      "outputs": [],
      "stateMutability": "nonpayable",
      "type": "function"
    },
    {
      "inputs": [],
      "name": "testTransferHighestBidToPU",
      "outputs": [],
      "stateMutability": "nonpayable",
      "type": "function"
    }
  ],
  "bytecode": "0x60806040523480156200001157600080fd5b5060405162003d6038038062003d60833981810160405281019062000037919062000287565b83838383336000806101000a81548173ffffffffffffffffffffffffffffffffffffffff021916908373ffffffffffffffffffffffffffffffffffffffff1602179055506040518060e0016040528060006003811115620000c1577f4e487b7100000000000000000000000000000000000000000000000000000000600052602160045260246000fd5b81526020018573ffffffffffffffffffffffffffffffffffffffff168152602001848152602001600184620000f79190620004b4565b81526020016001836200010b9190620004b4565b8152602001620151804262000121919062000457565b81526020016202a3004262000137919062000457565b815250600160008201518160000160006101000a81548160ff021916908360038111156200018e577f4e487b7100000000000000000000000000000000000000000000000000000000600052602160045260246000fd5b021790555060208201518160000160016101000a81548173ffffffffffffffffffffffffffffffffffffffff021916908373ffffffffffffffffffffffffffffffffffffffff16021790555060408201518160010155606082015181600201556080820151816003015560a0820151816004015560c082015181600501559050507fc932bfe1d2a8c99fe45058b82a3d6b37508c1a1eef86e5447bd1588121ab41756001426040516200024392919062000429565b60405180910390a15050505050505050620006d0565b6000815190506200026a816200069c565b92915050565b6000815190506200028181620006b6565b92915050565b600080600080608085870312156200029e57600080fd5b6000620002ae8782880162000259565b9450506020620002c18782880162000270565b9350506040620002d48782880162000270565b9250506060620002e78782880162000270565b91505092959194509250565b620002fe816200054c565b82525050565b6200030f816200059f565b82525050565b60e0820160008083015490506200032c81620005b3565b6200033b600086018262000304565b506200034781620005ef565b620003566020860182620002f3565b50600183015490506200036981620005d1565b62000378604086018262000407565b50600283015490506200038b81620005d1565b6200039a606086018262000407565b5060038301549050620003ad81620005d1565b620003bc608086018262000407565b5060048301549050620003cf81620005d1565b620003de60a086018262000407565b5060058301549050620003f181620005d1565b6200040060c086018262000407565b5050505050565b620004128162000595565b82525050565b620004238162000595565b82525050565b60006101008201905062000441600083018562000315565b6200045060e083018462000418565b9392505050565b6000620004648262000595565b9150620004718362000595565b9250827fffffffffffffffffffffffffffffffffffffffffffffffffffffffffffffffff03821115620004a957620004a86200060d565b5b828201905092915050565b6000620004c18262000595565b9150620004ce8362000595565b9250817fffffffffffffffffffffffffffffffffffffffffffffffffffffffffffffffff04831182151516156200050a57620005096200060d565b5b828202905092915050565b600073ffffffffffffffffffffffffffffffffffffffff82169050919050565b600060ff82169050919050565b6000819050919050565b6000620005598262000575565b9050919050565b6000819050620005708262000685565b919050565b600073ffffffffffffffffffffffffffffffffffffffff82169050919050565b6000819050919050565b6000620005ac8262000560565b9050919050565b6000620005ca620005c4836200066b565b62000535565b9050919050565b6000620005e8620005e2836200066b565b62000542565b9050919050565b600062000606620006008362000678565b62000515565b9050919050565b7f4e487b7100000000000000000000000000000000000000000000000000000000600052601160045260246000fd5b7f4e487b7100000000000000000000000000000000000000000000000000000000600052602160045260246000fd5b60008160001c9050919050565b60008160081c9050919050565b600481106200069957620006986200063c565b5b50565b620006a7816200054c565b8114620006b357600080fd5b50565b620006c18162000595565b8114620006cd57600080fd5b50565b61368080620006e06000396000f3fe6080604052600436106101145760003560e01c80635e0b788b116100a0578063c6eb7d4a11610064578063c6eb7d4a14610317578063cc689c551461032e578063d879914a14610359578063d94a350514610384578063dfbf53ae146103b557610114565b80635e0b788b1461024e57806362ea82db146102655780636db595e1146102a7578063736560e4146102be578063ae610d58146102fb57610114565b8063378252f2116100e7578063378252f21461019b578063378aa701146101b25780633e0869f5146101dd57806355d64d03146102065780635894dd6d1461023757610114565b8063066a168f14610119578063198b5d16146101425780631b347aae146101595780632bce14c614610184575b600080fd5b34801561012557600080fd5b50610140600480360381019061013b9190612419565b6103e1565b005b34801561014e57600080fd5b506101576107a7565b005b34801561016557600080fd5b5061016e6107b1565b60405161017b9190612d9a565b60405180910390f35b34801561019057600080fd5b50610199610b13565b005b3480156101a757600080fd5b506101b0610b1d565b005b3480156101be57600080fd5b506101c7610e5f565b6040516101d491906129ad565b60405180910390f35b3480156101e957600080fd5b5061020460048036038101906101ff91906123c7565b610e79565b005b34801561021257600080fd5b5061021b610ecf565b60405161022e97969594939291906129c8565b60405180910390f35b34801561024357600080fd5b5061024c610f2c565b005b34801561025a57600080fd5b5061026361117b565b005b34801561027157600080fd5b5061028c60048036038101906102879190612375565b61118b565b60405161029e9695949392919061294c565b60405180910390f35b3480156102b357600080fd5b506102bc6111e1565b005b3480156102ca57600080fd5b506102e560048036038101906102e091906123f0565b6111eb565b6040516102f2919061288c565b60405180910390f35b6103156004803603810190610310919061239e565b61122a565b005b34801561032357600080fd5b5061032c61150e565b005b34801561033a57600080fd5b506103436115da565b6040516103509190612e15565b60405180910390f35b34801561036557600080fd5b5061036e611649565b60405161037b9190612e15565b60405180910390f35b34801561039057600080fd5b50610399611656565b6040516103ac9796959493929190612a37565b60405180910390f35b3480156103c157600080fd5b506103ca6116ce565b6040516103d89291906128a7565b60405180910390f35b600180600381111561041c577f4e487b7100000000000000000000000000000000000000000000000000000000600052602160045260246000fd5b600160000160009054906101000a900460ff166003811115610467577f4e487b7100000000000000000000000000000000000000000000000000000000600052602160045260246000fd5b146104a7576040517f08c379a000000000000000000000000000000000000000000000000000000000815260040161049e90612c06565b60405180910390fd5b6001600501548042106104ef576040517f08c379a00000000000000000000000000000000000000000000000000000000081526004016104e690612af2565b60405180910390fd5b600960003373ffffffffffffffffffffffffffffffffffffffff1673ffffffffffffffffffffffffffffffffffffffff16815260200190815260200160002060000160009054906101000a900460ff1661057e576040517f08c379a000000000000000000000000000000000000000000000000000000000815260040161057590612be6565b60405180910390fd5b6001600201548510156105c6576040517f08c379a00000000000000000000000000000000000000000000000000000000081526004016105bd90612c90565b60405180910390fd5b60008585856040516020016105dd93929190612853565b60405160208183030381529060405280519060200120905080600960003373ffffffffffffffffffffffffffffffffffffffff1673ffffffffffffffffffffffffffffffffffffffff1681526020019081526020016000206001015414610679576040517f08c379a000000000000000000000000000000000000000000000000000000000815260040161067090612cd0565b60405180910390fd5b6001600960003373ffffffffffffffffffffffffffffffffffffffff1673ffffffffffffffffffffffffffffffffffffffff16815260200190815260200160002060040160006101000a81548160ff02191690831515021790555085600960003373ffffffffffffffffffffffffffffffffffffffff1673ffffffffffffffffffffffffffffffffffffffff1681526020019081526020016000206002018190555084600960003373ffffffffffffffffffffffffffffffffffffffff1673ffffffffffffffffffffffffffffffffffffffff168152602001908152602001600020600301819055507f270c4f52a30d5e536ebfac48bc6f06c044e6c40116d702e65f23823565452d73338787426040516107979493929190612907565b60405180910390a1505050505050565b6107af611700565b565b6107b961221e565b60028060038111156107f4577f4e487b7100000000000000000000000000000000000000000000000000000000600052602160045260246000fd5b600160000160009054906101000a900460ff16600381111561083f577f4e487b7100000000000000000000000000000000000000000000000000000000600052602160045260246000fd5b1461087f576040517f08c379a000000000000000000000000000000000000000000000000000000000815260040161087690612c06565b60405180910390fd5b6001600501548042116108c7576040517f08c379a00000000000000000000000000000000000000000000000000000000081526004016108be90612d7a565b60405180910390fd5b600760000160009054906101000a900473ffffffffffffffffffffffffffffffffffffffff1673ffffffffffffffffffffffffffffffffffffffff163373ffffffffffffffffffffffffffffffffffffffff161461095a576040517f08c379a000000000000000000000000000000000000000000000000000000000815260040161095190612c70565b60405180910390fd5b6003600160000160006101000a81548160ff021916908360038111156109a9577f4e487b7100000000000000000000000000000000000000000000000000000000600052602160045260246000fd5b02179055507f7ed3e08f4e01cb0fc3643e34bcfd45247dec68ed4414209bda9f5e5eab13d0fd33426040516109df9291906128a7565b60405180910390a1600a60003373ffffffffffffffffffffffffffffffffffffffff1673ffffffffffffffffffffffffffffffffffffffff1681526020019081526020016000206040518060a00160405290816000820160009054906101000a900473ffffffffffffffffffffffffffffffffffffffff1673ffffffffffffffffffffffffffffffffffffffff1673ffffffffffffffffffffffffffffffffffffffff1681526020016001820160009054906101000a900473ffffffffffffffffffffffffffffffffffffffff1673ffffffffffffffffffffffffffffffffffffffff1673ffffffffffffffffffffffffffffffffffffffff16815260200160028201548152602001600382015481526020016004820160009054906101000a900460ff1615151515815250509250505090565b610b1b611b82565b565b600160050154804211610b65576040517f08c379a0000000000000000000000000000000000000000000000000000000008152600401610b5c90612d7a565b60405180910390fd5b6001806003811115610ba0577f4e487b7100000000000000000000000000000000000000000000000000000000600052602160045260246000fd5b600160000160009054906101000a900460ff166003811115610beb577f4e487b7100000000000000000000000000000000000000000000000000000000600052602160045260246000fd5b14610c2b576040517f08c379a0000000000000000000000000000000000000000000000000000000008152600401610c2290612c06565b60405180910390fd5b6000805b600b80549050811015610d185760096000600b8381548110610c7a577f4e487b7100000000000000000000000000000000000000000000000000000000600052603260045260246000fd5b9060005260206000200160009054906101000a900473ffffffffffffffffffffffffffffffffffffffff1673ffffffffffffffffffffffffffffffffffffffff1673ffffffffffffffffffffffffffffffffffffffff16815260200190815260200160002060040160009054906101000a900460ff1615610d0557600182610d029190612ead565b91505b8080610d1090613121565b915050610c2f565b506000811415610db2576003600160000160006101000a81548160ff02191690836003811115610d71577f4e487b7100000000000000000000000000000000000000000000000000000000600052602160045260246000fd5b02179055507fe73a313df79df374a265d1ae8069419631a184236f3d97d468b9c2e5505b4e9942604051610da59190612b7c565b60405180910390a1610e5a565b6002600160000160006101000a81548160ff02191690836003811115610e01577f4e487b7100000000000000000000000000000000000000000000000000000000600052602160045260246000fd5b02179055507f3dbdd4835dda2d2ea64f4793b53cbfa0bd395cc2bdb266568ccfedbf2f9fde4b600160000160009054906101000a900460ff1642604051610e49929190612baa565b60405180910390a1610e59611700565b5b505050565b6000600160000160009054906101000a900460ff16905090565b80600160000160006101000a81548160ff02191690836003811115610ec7577f4e487b7100000000000000000000000000000000000000000000000000000000600052602160045260246000fd5b021790555050565b60018060000160009054906101000a900460ff16908060000160019054906101000a900473ffffffffffffffffffffffffffffffffffffffff16908060010154908060020154908060030154908060040154908060050154905087565b6000806003811115610f67577f4e487b7100000000000000000000000000000000000000000000000000000000600052602160045260246000fd5b600160000160009054906101000a900460ff166003811115610fb2577f4e487b7100000000000000000000000000000000000000000000000000000000600052602160045260246000fd5b14610ff2576040517f08c379a0000000000000000000000000000000000000000000000000000000008152600401610fe990612c06565b60405180910390fd5b60016004015480421161103a576040517f08c379a000000000000000000000000000000000000000000000000000000000815260040161103190612d7a565b60405180910390fd5b6000600b8054905014156110d8576003600160000160006101000a81548160ff02191690836003811115611097577f4e487b7100000000000000000000000000000000000000000000000000000000600052602160045260246000fd5b02179055507fe73a313df79df374a265d1ae8069419631a184236f3d97d468b9c2e5505b4e99426040516110cb9190612d4c565b60405180910390a1611177565b60018060000160006101000a81548160ff02191690836003811115611126577f4e487b7100000000000000000000000000000000000000000000000000000000600052602160045260246000fd5b02179055507f3dbdd4835dda2d2ea64f4793b53cbfa0bd395cc2bdb266568ccfedbf2f9fde4b600160000160009054906101000a900460ff164260405161116e929190612d10565b60405180910390a15b5050565b600b6000611189919061227b565b565b60096020528060005260406000206000915090508060000160009054906101000a900460ff16908060010154908060020154908060030154908060040160009054906101000a900460ff16908060050154905086565b6111e9611e3f565b565b600b81815481106111fb57600080fd5b906000526020600020016000915054906101000a900473ffffffffffffffffffffffffffffffffffffffff1681565b6000806003811115611265577f4e487b7100000000000000000000000000000000000000000000000000000000600052602160045260246000fd5b600160000160009054906101000a900460ff1660038111156112b0577f4e487b7100000000000000000000000000000000000000000000000000000000600052602160045260246000fd5b146112f0576040517f08c379a00000000000000000000000000000000000000000000000000000000081526004016112e790612c06565b60405180910390fd5b600160040154804210611338576040517f08c379a000000000000000000000000000000000000000000000000000000000815260040161132f90612af2565b60405180910390fd5b600160030154341015611380576040517f08c379a000000000000000000000000000000000000000000000000000000000815260040161137790612b5c565b60405180910390fd5b6040518060c0016040528060011515815260200184815260200160008152602001600081526020016000151581526020016001346113be9190612f03565b815250600960003373ffffffffffffffffffffffffffffffffffffffff1673ffffffffffffffffffffffffffffffffffffffff16815260200190815260200160002060008201518160000160006101000a81548160ff02191690831515021790555060208201518160010155604082015181600201556060820151816003015560808201518160040160006101000a81548160ff02191690831515021790555060a08201518160050155905050600b339080600181540180825580915050600190039060005260206000200160009091909190916101000a81548173ffffffffffffffffffffffffffffffffffffffff021916908373ffffffffffffffffffffffffffffffffffffffff1602179055507fb7a0ff6cc8dfcd966d5d6a3a6da8bd9690d9e2b641687f28ac0f0e28a47c8913333442604051611501939291906128d0565b60405180910390a1505050565b60008054906101000a900473ffffffffffffffffffffffffffffffffffffffff1673ffffffffffffffffffffffffffffffffffffffff163373ffffffffffffffffffffffffffffffffffffffff161461159c576040517f08c379a000000000000000000000000000000000000000000000000000000000815260040161159390612cf0565b60405180910390fd5b600160000160019054906101000a900473ffffffffffffffffffffffffffffffffffffffff1673ffffffffffffffffffffffffffffffffffffffff16ff5b6000600a6000600760000160009054906101000a900473ffffffffffffffffffffffffffffffffffffffff1673ffffffffffffffffffffffffffffffffffffffff1673ffffffffffffffffffffffffffffffffffffffff16815260200190815260200160002060030154905090565b6000600b80549050905090565b6000806000806000806000600160000160009054906101000a900460ff16600160000160019054906101000a900473ffffffffffffffffffffffffffffffffffffffff166001800154600160020154600160030154600160040154600160050154965096509650965096509650965090919293949596565b60078060000160009054906101000a900473ffffffffffffffffffffffffffffffffffffffff16908060010154905082565b600280600381111561173b577f4e487b7100000000000000000000000000000000000000000000000000000000600052602160045260246000fd5b600160000160009054906101000a900460ff166003811115611786577f4e487b7100000000000000000000000000000000000000000000000000000000600052602160045260246000fd5b146117c6576040517f08c379a00000000000000000000000000000000000000000000000000000000081526004016117bd90612c06565b60405180910390fd5b60008060005b600b80549050811015611955576000600b8281548110611815577f4e487b7100000000000000000000000000000000000000000000000000000000600052603260045260246000fd5b9060005260206000200160009054906101000a900473ffffffffffffffffffffffffffffffffffffffff169050600960008273ffffffffffffffffffffffffffffffffffffffff1673ffffffffffffffffffffffffffffffffffffffff16815260200190815260200160002060040160009054906101000a900460ff1661189c5750611942565b6000600960008373ffffffffffffffffffffffffffffffffffffffff1673ffffffffffffffffffffffffffffffffffffffff16815260200190815260200160002060030154600960008473ffffffffffffffffffffffffffffffffffffffff1673ffffffffffffffffffffffffffffffffffffffff1681526020019081526020016000206002015461192e9190612f03565b90508381111561193f578194508093505b50505b808061194d90613121565b9150506117cc565b5060405180604001604052808373ffffffffffffffffffffffffffffffffffffffff16815260200182815250600760008201518160000160006101000a81548173ffffffffffffffffffffffffffffffffffffffff021916908373ffffffffffffffffffffffffffffffffffffffff160217905550602082015181600101559050507ff759f57bf4b808b6e91a1c291d1cc81e47f24aa62e8cf7f6cc30b23822e9ac2b600742604051611a09929190612db5565b60405180910390a16040518060a001604052808373ffffffffffffffffffffffffffffffffffffffff1681526020013073ffffffffffffffffffffffffffffffffffffffff16815260200160018001548152602001626ebe0042611a6d9190612ead565b815260200160001515815250600a60008473ffffffffffffffffffffffffffffffffffffffff1673ffffffffffffffffffffffffffffffffffffffff16815260200190815260200160002060008201518160000160006101000a81548173ffffffffffffffffffffffffffffffffffffffff021916908373ffffffffffffffffffffffffffffffffffffffff16021790555060208201518160010160006101000a81548173ffffffffffffffffffffffffffffffffffffffff021916908373ffffffffffffffffffffffffffffffffffffffff160217905550604082015181600201556060820151816003015560808201518160040160006101000a81548160ff021916908315150217905550905050505050565b6002806003811115611bbd577f4e487b7100000000000000000000000000000000000000000000000000000000600052602160045260246000fd5b600160000160009054906101000a900460ff166003811115611c08577f4e487b7100000000000000000000000000000000000000000000000000000000600052602160045260246000fd5b14611c48576040517f08c379a0000000000000000000000000000000000000000000000000000000008152600401611c3f90612c06565b60405180910390fd5b600060076001015490506000600160000160019054906101000a900473ffffffffffffffffffffffffffffffffffffffff16905060006040518060400160405280601a81526020017f5472616e7366657220686967686573742062696420746f2050550000000000008152509050600160030154831115611ce75760016003015492506040518060800160405280605181526020016135fa6051913990505b7f7c4000a16d683bc6bd33d5882af0733a8a58704ed6a1fbaaa780a62b7af76d9581838542604051611d1c9493929190612aa6565b60405180910390a18173ffffffffffffffffffffffffffffffffffffffff166108fc849081150290604051600060405180830381858888f19350505050158015611d6a573d6000803e3d6000fd5b5060004790506000811115611dfc577f7c4000a16d683bc6bd33d5882af0733a8a58704ed6a1fbaaa780a62b7af76d95838242604051611dac93929190612c26565b60405180910390a18273ffffffffffffffffffffffffffffffffffffffff166108fc829081150290604051600060405180830381858888f19350505050158015611dfa573d6000803e3d6000fd5b505b7ff775d775211952fb6b87f2d722159db37561b0bb5fe510a7f4f8e80731a583e860074742604051611e3093929190612dde565b60405180910390a15050505050565b6002806003811115611e7a577f4e487b7100000000000000000000000000000000000000000000000000000000600052602160045260246000fd5b600160000160009054906101000a900460ff166003811115611ec5577f4e487b7100000000000000000000000000000000000000000000000000000000600052602160045260246000fd5b14611f05576040517f08c379a0000000000000000000000000000000000000000000000000000000008152600401611efc90612c06565b60405180910390fd5b600073ffffffffffffffffffffffffffffffffffffffff16600760000160009054906101000a900473ffffffffffffffffffffffffffffffffffffffff1673ffffffffffffffffffffffffffffffffffffffff161415611f9a576040517f08c379a0000000000000000000000000000000000000000000000000000000008152600401611f9190612cb0565b60405180910390fd5b60005b600b8054905081101561221a576000600b8281548110611fe6577f4e487b7100000000000000000000000000000000000000000000000000000000600052603260045260246000fd5b9060005260206000200160009054906101000a900473ffffffffffffffffffffffffffffffffffffffff1690506000600960008373ffffffffffffffffffffffffffffffffffffffff1673ffffffffffffffffffffffffffffffffffffffff1681526020019081526020016000206040518060c00160405290816000820160009054906101000a900460ff161515151581526020016001820154815260200160028201548152602001600382015481526020016004820160009054906101000a900460ff16151515158152602001600582015481525050905080608001516120cf575050612207565b6000600760000160009054906101000a900473ffffffffffffffffffffffffffffffffffffffff1673ffffffffffffffffffffffffffffffffffffffff168373ffffffffffffffffffffffffffffffffffffffff1614905080801561213c57508160a00151826040015110155b1561214957505050612207565b60008161215a578260a0015161217e565b8260600151836040015161216e9190612f03565b8360a0015161217d9190612f5d565b5b90507f7c4000a16d683bc6bd33d5882af0733a8a58704ed6a1fbaaa780a62b7af76d958482426040516121b393929190612b12565b60405180910390a18373ffffffffffffffffffffffffffffffffffffffff166108fc829081150290604051600060405180830381858888f19350505050158015612201573d6000803e3d6000fd5b50505050505b808061221290613121565b915050611f9d565b5050565b6040518060a00160405280600073ffffffffffffffffffffffffffffffffffffffff168152602001600073ffffffffffffffffffffffffffffffffffffffff16815260200160008152602001600081526020016000151581525090565b5080546000825590600052602060002090810190612299919061229c565b50565b5b808211156122b557600081600090555060010161229d565b5090565b60006122cc6122c784612e55565b612e30565b9050828152602081018484840111156122e457600080fd5b6122ef84828561307a565b509392505050565b600081359050612306816135a4565b92915050565b60008135905061231b816135bb565b92915050565b600081359050612330816135d2565b92915050565b600082601f83011261234757600080fd5b81356123578482602086016122b9565b91505092915050565b60008135905061236f816135e2565b92915050565b60006020828403121561238757600080fd5b6000612395848285016122f7565b91505092915050565b6000602082840312156123b057600080fd5b60006123be8482850161230c565b91505092915050565b6000602082840312156123d957600080fd5b60006123e784828501612321565b91505092915050565b60006020828403121561240257600080fd5b600061241084828501612360565b91505092915050565b60008060006060848603121561242e57600080fd5b600061243c86828701612360565b935050602061244d86828701612360565b925050604084013567ffffffffffffffff81111561246a57600080fd5b61247686828701612336565b9150509250925092565b61248981613032565b82525050565b61249881612fcd565b82525050565b6124a781612fbb565b82525050565b6124b681612fbb565b82525050565b6124c581612fdf565b82525050565b6124d481612fdf565b82525050565b6124e381612feb565b82525050565b6124f281613044565b82525050565b600061250382612e86565b61250d8185612e91565b935061251d818560208601613089565b61252681613201565b840191505092915050565b600061253c82612e86565b6125468185612ea2565b9350612556818560208601613089565b80840191505092915050565b600061256f601983612e91565b915061257a8261321f565b602082019050919050565b6000612592601b83612e91565b915061259d82613248565b602082019050919050565b60006125b5601883612e91565b91506125c082613271565b602082019050919050565b60006125d8602283612e91565b91506125e38261329a565b604082019050919050565b60006125fb601383612e91565b9150612606826132e9565b602082019050919050565b600061261e602d83612e91565b915061262982613312565b604082019050919050565b6000612641600d83612e91565b915061264c82613361565b602082019050919050565b6000612664601f83612e91565b915061266f8261338a565b602082019050919050565b6000612687602683612e91565b9150612692826133b3565b604082019050919050565b60006126aa601483612e91565b91506126b582613402565b602082019050919050565b60006126cd602f83612e91565b91506126d88261342b565b604082019050919050565b60006126f0602a83612e91565b91506126fb8261347a565b604082019050919050565b6000612713602b83612e91565b915061271e826134c9565b604082019050919050565b6000612736600d83612e91565b915061274182613518565b602082019050919050565b6000612759602e83612e91565b915061276482613541565b604082019050919050565b60a082016000820151612785600085018261249e565b506020820151612798602085018261249e565b5060408201516127ab604085018261281e565b5060608201516127be606085018261281e565b5060808201516127d160808501826124bc565b50505050565b6040820160008083015490506127ec816130bc565b6127f9600086018261249e565b506001830154905061280a816130d6565b612817602086018261281e565b5050505050565b61282781613028565b82525050565b61283681613028565b82525050565b61284d61284882613028565b61316a565b82525050565b600061285f828661283c565b60208201915061286f828561283c565b60208201915061287f8284612531565b9150819050949350505050565b60006020820190506128a160008301846124ad565b92915050565b60006040820190506128bc60008301856124ad565b6128c9602083018461282d565b9392505050565b60006060820190506128e560008301866124ad565b6128f2602083018561282d565b6128ff604083018461282d565b949350505050565b600060808201905061291c60008301876124ad565b612929602083018661282d565b612936604083018561282d565b612943606083018461282d565b95945050505050565b600060c08201905061296160008301896124cb565b61296e60208301886124da565b61297b604083018761282d565b612988606083018661282d565b61299560808301856124cb565b6129a260a083018461282d565b979650505050505050565b60006020820190506129c260008301846124e9565b92915050565b600060e0820190506129dd600083018a6124e9565b6129ea602083018961248f565b6129f7604083018861282d565b612a04606083018761282d565b612a11608083018661282d565b612a1e60a083018561282d565b612a2b60c083018461282d565b98975050505050505050565b600060e082019050612a4c600083018a6124e9565b612a5960208301896124ad565b612a66604083018861282d565b612a73606083018761282d565b612a80608083018661282d565b612a8d60a083018561282d565b612a9a60c083018461282d565b98975050505050505050565b60006080820190508181036000830152612ac081876124f8565b9050612acf6020830186612480565b612adc604083018561282d565b612ae9606083018461282d565b95945050505050565b60006020820190508181036000830152612b0b81612562565b9050919050565b60006080820190508181036000830152612b2b81612585565b9050612b3a6020830186612480565b612b47604083018561282d565b612b54606083018461282d565b949350505050565b60006020820190508181036000830152612b75816125a8565b9050919050565b60006040820190508181036000830152612b95816125cb565b9050612ba4602083018461282d565b92915050565b60006060820190508181036000830152612bc3816125ee565b9050612bd260208301856124e9565b612bdf604083018461282d565b9392505050565b60006020820190508181036000830152612bff81612611565b9050919050565b60006020820190508181036000830152612c1f81612634565b9050919050565b60006080820190508181036000830152612c3f81612657565b9050612c4e6020830186612480565b612c5b604083018561282d565b612c68606083018461282d565b949350505050565b60006020820190508181036000830152612c898161267a565b9050919050565b60006020820190508181036000830152612ca98161269d565b9050919050565b60006020820190508181036000830152612cc9816126c0565b9050919050565b60006020820190508181036000830152612ce9816126e3565b9050919050565b60006020820190508181036000830152612d0981612706565b9050919050565b60006060820190508181036000830152612d2981612729565b9050612d3860208301856124e9565b612d45604083018461282d565b9392505050565b60006040820190508181036000830152612d6581612729565b9050612d74602083018461282d565b92915050565b60006020820190508181036000830152612d938161274c565b9050919050565b600060a082019050612daf600083018461276f565b92915050565b6000606082019050612dca60008301856127d7565b612dd7604083018461282d565b9392505050565b6000608082019050612df360008301866127d7565b612e00604083018561282d565b612e0d606083018461282d565b949350505050565b6000602082019050612e2a600083018461282d565b92915050565b6000612e3a612e4b565b9050612e4682826130f0565b919050565b6000604051905090565b600067ffffffffffffffff821115612e7057612e6f6131d2565b5b612e7982613201565b9050602081019050919050565b600081519050919050565b600082825260208201905092915050565b600081905092915050565b6000612eb882613028565b9150612ec383613028565b9250827fffffffffffffffffffffffffffffffffffffffffffffffffffffffffffffffff03821115612ef857612ef7613174565b5b828201905092915050565b6000612f0e82613028565b9150612f1983613028565b9250817fffffffffffffffffffffffffffffffffffffffffffffffffffffffffffffffff0483118215151615612f5257612f51613174565b5b828202905092915050565b6000612f6882613028565b9150612f7383613028565b925082821015612f8657612f85613174565b5b828203905092915050565b600073ffffffffffffffffffffffffffffffffffffffff82169050919050565b6000819050919050565b6000612fc682613008565b9050919050565b6000612fd882613008565b9050919050565b60008115159050919050565b6000819050919050565b600081905061300382613590565b919050565b600073ffffffffffffffffffffffffffffffffffffffff82169050919050565b6000819050919050565b600061303d82613056565b9050919050565b600061304f82612ff5565b9050919050565b600061306182613068565b9050919050565b600061307382613008565b9050919050565b82818337600083830152505050565b60005b838110156130a757808201518184015260208101905061308c565b838111156130b6576000848401525b50505050565b60006130cf6130ca83613212565b612f91565b9050919050565b60006130e96130e483613212565b612fb1565b9050919050565b6130f982613201565b810181811067ffffffffffffffff82111715613118576131176131d2565b5b80604052505050565b600061312c82613028565b91507fffffffffffffffffffffffffffffffffffffffffffffffffffffffffffffffff82141561315f5761315e613174565b5b600182019050919050565b6000819050919050565b7f4e487b7100000000000000000000000000000000000000000000000000000000600052601160045260246000fd5b7f4e487b7100000000000000000000000000000000000000000000000000000000600052602160045260246000fd5b7f4e487b7100000000000000000000000000000000000000000000000000000000600052604160045260246000fd5b6000601f19601f8301169050919050565b60008160001c9050919050565b7f43616e6e6f742062696420616674657220646561646c696e6500000000000000600082015250565b7f5472616e73666572206261636b206465706f73697420746f2053550000000000600082015250565b7f4465706f7369742076616c756520697320746f6f206c6f770000000000000000600082015250565b7f4269642072657665616c696e6720726f756e642c206e6f2076616c696420626960008201527f6473000000000000000000000000000000000000000000000000000000000000602082015250565b7f4269642072657665616c696e6720726f756e6400000000000000000000000000600082015250565b7f54686973206163636f756e7420686173206e6f742062696420696e207468652060008201527f62696464696e6720726f756e6400000000000000000000000000000000000000602082015250565b7f496e76616c696420737461746500000000000000000000000000000000000000600082015250565b7f5472616e7366657220636f6e74726163742062616c616e636520746f20505500600082015250565b7f596f7520617265206e6f74207468652077696e6e6572206f662074686520617560008201527f6374696f6e210000000000000000000000000000000000000000000000000000602082015250565b7f4269642076616c756520697320746f6f206c6f77000000000000000000000000600082015250565b7f4d7573742066696e6420612077696e6e6572206265666f72652073656e64696e60008201527f67206261636b206465706f736974730000000000000000000000000000000000602082015250565b7f2041637475616c2062696420616e642072657665616c696e672062696420646f60008201527f206e6f74206d6174636800000000000000000000000000000000000000000000602082015250565b7f596f7520617265206e6f7420616c6c6f77656420746f2064656c65746520746860008201527f69732061756374696f6e21000000000000000000000000000000000000000000602082015250565b7f42696464696e6720726f756e6400000000000000000000000000000000000000600082015250565b7f43616e6e6f7420706572666f726d207468697320616374696f6e206265666f7260008201527f652074686520646561646c696e65000000000000000000000000000000000000602082015250565b600481106135a1576135a06131a3565b5b50565b6135ad81612fbb565b81146135b857600080fd5b50565b6135c481612feb565b81146135cf57600080fd5b50565b600481106135df57600080fd5b50565b6135eb81613028565b81146135f657600080fd5b5056fe5468652068696768657374206269642077617320686967686572207468616e20746865206465706f7369742076616c75652e205472616e7366657272696e6720746865206465706f73697420746f205055a2646970667358221220b89b45ccac37e3641119d258f97401fdd3b195d20d5850adbb7204ee0c4f23ab64736f6c63430008010033",
  "immutableReferences": {},
  "source": "// SPDX-License-Identifier: MIT\r\npragma solidity ^0.8.1;\r\nimport \"./Auction.sol\";\r\n\r\n//defining a new smart contract because state cannot be modified directly. \r\n//state of the contract is determined during the execution of the transactions.\r\n//TestAuction contract inherits from Auction contract to test its functionalities.\r\ncontract TestAuction is Auction {\r\n    constructor(\r\n        address payable _PU,\r\n        uint _bandwidth, \r\n        uint _minBidValue, \r\n        uint _depositValue\r\n    ) Auction (\r\n        _PU,\r\n        _bandwidth, \r\n        _minBidValue, \r\n        _depositValue\r\n    ) {}\r\n\r\n    // function to set the current state of the auction directly.\r\n    function setCurrentState(State newState) public {\r\n        auctionInfo.currentState = newState;\r\n    }\r\n\r\n    //function to get the number of bidders from the stored array.\r\n    function getBidsLength() public view returns(uint256) {\r\n        return BidsAddresses.length;\r\n    }\r\n\r\n    //function to test finding the winner of the auction\r\n    function testFindWinner() public {\r\n        findWinner();\r\n    }\r\n\r\n    //function to test transferring back deposits to bidders\r\n    function testTransferBackDeposits() public {\r\n        transferBackDeposits();\r\n    }\r\n\r\n    //function to clear all bid addresses\r\n    function clearBidsAddresses() public {\r\n        delete BidsAddresses;\r\n    }\r\n\r\n    //function to test transferring the highest bid to the PU\r\n    function testTransferHighestBidToPU() public {\r\n        transferHighestBidToPU();\r\n    } \r\n}\r\n",
  "sourcePath": "C:\\Users\\Asus\\Desktop\\Blockchain_Based_Spectrum_Sharing_for_5G_and_Beyond\\contracts\\TestAuction.sol",
  "compiler": {
    "name": "solc",
    "version": "0.8.1+commit.df193b15.Emscripten.clang"
  },
  "schemaVersion": "3.4.16",
  "updatedAt": "2024-05-08T06:28:41.670Z",
  "devdoc": {
    "kind": "dev",
    "methods": {},
    "version": 1
  },
  "userdoc": {
    "kind": "user",
    "methods": {},
    "version": 1
  }
}