{
  "contractName": "TestAuction",
  "abi": [
    {
      "inputs": [
        {
          "internalType": "address payable",
          "name": "_PU",
          "type": "address"
        },
        {
          "internalType": "uint256",
          "name": "_bandwidth",
          "type": "uint256"
        },
        {
          "internalType": "uint256",
          "name": "_minBidValue",
          "type": "uint256"
        },
        {
          "internalType": "uint256",
          "name": "_depositValue",
          "type": "uint256"
        }
      ],
      "stateMutability": "nonpayable",
      "type": "constructor"
    },
    {
      "anonymous": false,
      "inputs": [
        {
          "components": [
            {
              "internalType": "address",
              "name": "accountAddress",
              "type": "address"
            },
            {
              "internalType": "uint256",
              "name": "bid",
              "type": "uint256"
            }
          ],
          "indexed": false,
          "internalType": "struct Auction.Winner",
          "name": "winner",
          "type": "tuple"
        },
        {
          "indexed": false,
          "internalType": "uint256",
          "name": "contractBalance",
          "type": "uint256"
        },
        {
          "indexed": false,
          "internalType": "uint256",
          "name": "currentTime",
          "type": "uint256"
        }
      ],
      "name": "AuctionEnded",
      "type": "event"
    },
    {
      "anonymous": false,
      "inputs": [
        {
          "indexed": false,
          "internalType": "string",
          "name": "whichRound",
          "type": "string"
        },
        {
          "indexed": false,
          "internalType": "uint256",
          "name": "currentTime",
          "type": "uint256"
        }
      ],
      "name": "ClosedAuctionWithNoBids",
      "type": "event"
    },
    {
      "anonymous": false,
      "inputs": [
        {
          "indexed": false,
          "internalType": "string",
          "name": "whichRound",
          "type": "string"
        },
        {
          "indexed": false,
          "internalType": "enum Auction.State",
          "name": "state",
          "type": "uint8"
        },
        {
          "indexed": false,
          "internalType": "uint256",
          "name": "currentTime",
          "type": "uint256"
        }
      ],
      "name": "ClosedRound",
      "type": "event"
    },
    {
      "anonymous": false,
      "inputs": [
        {
          "components": [
            {
              "internalType": "enum Auction.State",
              "name": "currentState",
              "type": "uint8"
            },
            {
              "internalType": "address payable",
              "name": "PU",
              "type": "address"
            },
            {
              "internalType": "uint256",
              "name": "bandwidth",
              "type": "uint256"
            },
            {
              "internalType": "uint256",
              "name": "minBidValue",
              "type": "uint256"
            },
            {
              "internalType": "uint256",
              "name": "depositValue",
              "type": "uint256"
            },
            {
              "internalType": "uint256",
              "name": "BidsDeadline",
              "type": "uint256"
            },
            {
              "internalType": "uint256",
              "name": "BidsRevealDeadline",
              "type": "uint256"
            }
          ],
          "indexed": false,
          "internalType": "struct Auction.AuctionInfo",
          "name": "auctionInfo",
          "type": "tuple"
        },
        {
          "indexed": false,
          "internalType": "uint256",
          "name": "currentTime",
          "type": "uint256"
        }
      ],
      "name": "CreatedNewAuction",
      "type": "event"
    },
    {
      "anonymous": false,
      "inputs": [
        {
          "components": [
            {
              "internalType": "address",
              "name": "accountAddress",
              "type": "address"
            },
            {
              "internalType": "uint256",
              "name": "bid",
              "type": "uint256"
            }
          ],
          "indexed": false,
          "internalType": "struct Auction.Winner",
          "name": "winner",
          "type": "tuple"
        },
        {
          "indexed": false,
          "internalType": "uint256",
          "name": "currentTime",
          "type": "uint256"
        }
      ],
      "name": "FoundHighestBid",
      "type": "event"
    },
    {
      "anonymous": false,
      "inputs": [
        {
          "indexed": false,
          "internalType": "address",
          "name": "SU",
          "type": "address"
        },
        {
          "indexed": false,
          "internalType": "uint256",
          "name": "deposit",
          "type": "uint256"
        },
        {
          "indexed": false,
          "internalType": "uint256",
          "name": "currentTime",
          "type": "uint256"
        }
      ],
      "name": "ReceivedBid",
      "type": "event"
    },
    {
      "anonymous": false,
      "inputs": [
        {
          "indexed": false,
          "internalType": "address",
          "name": "SU",
          "type": "address"
        },
        {
          "indexed": false,
          "internalType": "uint256",
          "name": "bid",
          "type": "uint256"
        },
        {
          "indexed": false,
          "internalType": "uint256",
          "name": "UsageTime",
          "type": "uint256"
        },
        {
          "indexed": false,
          "internalType": "uint256",
          "name": "currentTime",
          "type": "uint256"
        }
      ],
      "name": "ReceivedBidReveal",
      "type": "event"
    },
    {
      "anonymous": false,
      "inputs": [
        {
          "indexed": false,
          "internalType": "address",
          "name": "retrievedBy",
          "type": "address"
        },
        {
          "indexed": false,
          "internalType": "uint256",
          "name": "currentTime",
          "type": "uint256"
        }
      ],
      "name": "RetrievedToken",
      "type": "event"
    },
    {
      "anonymous": false,
      "inputs": [
        {
          "indexed": false,
          "internalType": "string",
          "name": "context",
          "type": "string"
        },
        {
          "indexed": false,
          "internalType": "address",
          "name": "to",
          "type": "address"
        },
        {
          "indexed": false,
          "internalType": "uint256",
          "name": "value",
          "type": "uint256"
        },
        {
          "indexed": false,
          "internalType": "uint256",
          "name": "currentTime",
          "type": "uint256"
        }
      ],
      "name": "TransferEvent",
      "type": "event"
    },
    {
      "inputs": [
        {
          "internalType": "uint256",
          "name": "",
          "type": "uint256"
        }
      ],
      "name": "BidsAddresses",
      "outputs": [
        {
          "internalType": "address",
          "name": "",
          "type": "address"
        }
      ],
      "stateMutability": "view",
      "type": "function"
    },
    {
      "inputs": [],
      "name": "auctionInfo",
      "outputs": [
        {
          "internalType": "enum Auction.State",
          "name": "currentState",
          "type": "uint8"
        },
        {
          "internalType": "address payable",
          "name": "PU",
          "type": "address"
        },
        {
          "internalType": "uint256",
          "name": "bandwidth",
          "type": "uint256"
        },
        {
          "internalType": "uint256",
          "name": "minBidValue",
          "type": "uint256"
        },
        {
          "internalType": "uint256",
          "name": "depositValue",
          "type": "uint256"
        },
        {
          "internalType": "uint256",
          "name": "BidsDeadline",
          "type": "uint256"
        },
        {
          "internalType": "uint256",
          "name": "BidsRevealDeadline",
          "type": "uint256"
        }
      ],
      "stateMutability": "view",
      "type": "function"
    },
    {
      "inputs": [
        {
          "internalType": "uint256",
          "name": "BidReveal",
          "type": "uint256"
        },
        {
          "internalType": "uint256",
          "name": "minUsageTime",
          "type": "uint256"
        },
        {
          "internalType": "string",
          "name": "salt",
          "type": "string"
        }
      ],
      "name": "bidInBidRevealRound",
      "outputs": [],
      "stateMutability": "nonpayable",
      "type": "function"
    },
    {
      "inputs": [
        {
          "internalType": "bytes32",
          "name": "bid",
          "type": "bytes32"
        }
      ],
      "name": "bidInBiddingRound",
      "outputs": [],
      "stateMutability": "payable",
      "type": "function"
    },
    {
      "inputs": [
        {
          "internalType": "address",
          "name": "",
          "type": "address"
        }
      ],
      "name": "bids",
      "outputs": [
        {
          "internalType": "bool",
          "name": "existsBid",
          "type": "bool"
        },
        {
          "internalType": "bytes32",
          "name": "Bidding",
          "type": "bytes32"
        },
        {
          "internalType": "uint256",
          "name": "BidReveal",
          "type": "uint256"
        },
        {
          "internalType": "uint256",
          "name": "minUsageTime",
          "type": "uint256"
        },
        {
          "internalType": "bool",
          "name": "isBidRevealValid",
          "type": "bool"
        },
        {
          "internalType": "uint256",
          "name": "deposit",
          "type": "uint256"
        }
      ],
      "stateMutability": "view",
      "type": "function"
    },
    {
      "inputs": [],
      "name": "closeAuction",
      "outputs": [],
      "stateMutability": "nonpayable",
      "type": "function"
    },
    {
      "inputs": [],
      "name": "closeBiddingRound",
      "outputs": [],
      "stateMutability": "nonpayable",
      "type": "function"
    },
    {
      "inputs": [],
      "name": "deleteAuction",
      "outputs": [],
      "stateMutability": "nonpayable",
      "type": "function"
    },
    {
      "inputs": [],
      "name": "getAuctionInfo",
      "outputs": [
        {
          "internalType": "enum Auction.State",
          "name": "",
          "type": "uint8"
        },
        {
          "internalType": "address",
          "name": "",
          "type": "address"
        },
        {
          "internalType": "uint256",
          "name": "",
          "type": "uint256"
        },
        {
          "internalType": "uint256",
          "name": "",
          "type": "uint256"
        },
        {
          "internalType": "uint256",
          "name": "",
          "type": "uint256"
        },
        {
          "internalType": "uint256",
          "name": "",
          "type": "uint256"
        },
        {
          "internalType": "uint256",
          "name": "",
          "type": "uint256"
        }
      ],
      "stateMutability": "view",
      "type": "function"
    },
    {
      "inputs": [],
      "name": "getCurrentState",
      "outputs": [
        {
          "internalType": "enum Auction.State",
          "name": "",
          "type": "uint8"
        }
      ],
      "stateMutability": "view",
      "type": "function"
    },
    {
      "inputs": [],
      "name": "getTokenValidUntil",
      "outputs": [
        {
          "internalType": "uint256",
          "name": "",
          "type": "uint256"
        }
      ],
      "stateMutability": "view",
      "type": "function"
    },
    {
      "inputs": [],
      "name": "retrieveToken",
      "outputs": [
        {
          "components": [
            {
              "internalType": "address",
              "name": "winner",
              "type": "address"
            },
            {
              "internalType": "address",
              "name": "auctionContract",
              "type": "address"
            },
            {
              "internalType": "uint256",
              "name": "bandwidth",
              "type": "uint256"
            },
            {
              "internalType": "uint256",
              "name": "validUntil",
              "type": "uint256"
            },
            {
              "internalType": "bool",
              "name": "isSpent",
              "type": "bool"
            }
          ],
          "internalType": "struct Auction.Token",
          "name": "",
          "type": "tuple"
        }
      ],
      "stateMutability": "nonpayable",
      "type": "function"
    },
    {
      "inputs": [],
      "name": "winner",
      "outputs": [
        {
          "internalType": "address",
          "name": "accountAddress",
          "type": "address"
        },
        {
          "internalType": "uint256",
          "name": "bid",
          "type": "uint256"
        }
      ],
      "stateMutability": "view",
      "type": "function"
    },
    {
      "inputs": [
        {
          "internalType": "enum Auction.State",
          "name": "newState",
          "type": "uint8"
        }
      ],
      "name": "setCurrentState",
      "outputs": [],
      "stateMutability": "nonpayable",
      "type": "function"
    },
    {
      "inputs": [],
      "name": "getBidsLength",
      "outputs": [
        {
          "internalType": "uint256",
          "name": "",
          "type": "uint256"
        }
      ],
      "stateMutability": "view",
      "type": "function"
    },
    {
      "inputs": [],
      "name": "testFindWinner",
      "outputs": [],
      "stateMutability": "nonpayable",
      "type": "function"
    },
    {
      "inputs": [],
      "name": "testTransferBackDeposits",
      "outputs": [],
      "stateMutability": "nonpayable",
      "type": "function"
    },
    {
      "inputs": [],
      "name": "testTransferHighestBidToPU",
      "outputs": [],
      "stateMutability": "nonpayable",
      "type": "function"
    }
  ],
  "bytecode": "0x60806040523480156200001157600080fd5b5060405162003cca38038062003cca833981810160405281019062000037919062000287565b83838383336000806101000a81548173ffffffffffffffffffffffffffffffffffffffff021916908373ffffffffffffffffffffffffffffffffffffffff1602179055506040518060e0016040528060006003811115620000c1577f4e487b7100000000000000000000000000000000000000000000000000000000600052602160045260246000fd5b81526020018573ffffffffffffffffffffffffffffffffffffffff168152602001848152602001600184620000f79190620004b4565b81526020016001836200010b9190620004b4565b8152602001620151804262000121919062000457565b81526020016202a3004262000137919062000457565b815250600160008201518160000160006101000a81548160ff021916908360038111156200018e577f4e487b7100000000000000000000000000000000000000000000000000000000600052602160045260246000fd5b021790555060208201518160000160016101000a81548173ffffffffffffffffffffffffffffffffffffffff021916908373ffffffffffffffffffffffffffffffffffffffff16021790555060408201518160010155606082015181600201556080820151816003015560a0820151816004015560c082015181600501559050507fc932bfe1d2a8c99fe45058b82a3d6b37508c1a1eef86e5447bd1588121ab41756001426040516200024392919062000429565b60405180910390a15050505050505050620006d0565b6000815190506200026a816200069c565b92915050565b6000815190506200028181620006b6565b92915050565b600080600080608085870312156200029e57600080fd5b6000620002ae8782880162000259565b9450506020620002c18782880162000270565b9350506040620002d48782880162000270565b9250506060620002e78782880162000270565b91505092959194509250565b620002fe816200054c565b82525050565b6200030f816200059f565b82525050565b60e0820160008083015490506200032c81620005b3565b6200033b600086018262000304565b506200034781620005ef565b620003566020860182620002f3565b50600183015490506200036981620005d1565b62000378604086018262000407565b50600283015490506200038b81620005d1565b6200039a606086018262000407565b5060038301549050620003ad81620005d1565b620003bc608086018262000407565b5060048301549050620003cf81620005d1565b620003de60a086018262000407565b5060058301549050620003f181620005d1565b6200040060c086018262000407565b5050505050565b620004128162000595565b82525050565b620004238162000595565b82525050565b60006101008201905062000441600083018562000315565b6200045060e083018462000418565b9392505050565b6000620004648262000595565b9150620004718362000595565b9250827fffffffffffffffffffffffffffffffffffffffffffffffffffffffffffffffff03821115620004a957620004a86200060d565b5b828201905092915050565b6000620004c18262000595565b9150620004ce8362000595565b9250817fffffffffffffffffffffffffffffffffffffffffffffffffffffffffffffffff04831182151516156200050a57620005096200060d565b5b828202905092915050565b600073ffffffffffffffffffffffffffffffffffffffff82169050919050565b600060ff82169050919050565b6000819050919050565b6000620005598262000575565b9050919050565b6000819050620005708262000685565b919050565b600073ffffffffffffffffffffffffffffffffffffffff82169050919050565b6000819050919050565b6000620005ac8262000560565b9050919050565b6000620005ca620005c4836200066b565b62000535565b9050919050565b6000620005e8620005e2836200066b565b62000542565b9050919050565b600062000606620006008362000678565b62000515565b9050919050565b7f4e487b7100000000000000000000000000000000000000000000000000000000600052601160045260246000fd5b7f4e487b7100000000000000000000000000000000000000000000000000000000600052602160045260246000fd5b60008160001c9050919050565b60008160081c9050919050565b600481106200069957620006986200063c565b5b50565b620006a7816200054c565b8114620006b357600080fd5b50565b620006c18162000595565b8114620006cd57600080fd5b50565b6135ea80620006e06000396000f3fe6080604052600436106101095760003560e01c806362ea82db11610095578063c6eb7d4a11610064578063c6eb7d4a146102f5578063cc689c551461030c578063d879914a14610337578063d94a350514610362578063dfbf53ae1461039357610109565b806362ea82db146102435780636db595e114610285578063736560e41461029c578063ae610d58146102d957610109565b8063378252f2116100dc578063378252f214610190578063378aa701146101a75780633e0869f5146101d257806355d64d03146101fb5780635894dd6d1461022c57610109565b8063066a168f1461010e578063198b5d16146101375780631b347aae1461014e5780632bce14c614610179575b600080fd5b34801561011a57600080fd5b50610135600480360381019061013091906123a9565b6103bf565b005b34801561014357600080fd5b5061014c610785565b005b34801561015a57600080fd5b5061016361078f565b6040516101709190612d2a565b60405180910390f35b34801561018557600080fd5b5061018e610af1565b005b34801561019c57600080fd5b506101a5610afb565b005b3480156101b357600080fd5b506101bc610e3d565b6040516101c9919061293d565b60405180910390f35b3480156101de57600080fd5b506101f960048036038101906101f49190612357565b610e57565b005b34801561020757600080fd5b50610210610ead565b6040516102239796959493929190612958565b60405180910390f35b34801561023857600080fd5b50610241610f0a565b005b34801561024f57600080fd5b5061026a60048036038101906102659190612305565b611159565b60405161027c969594939291906128dc565b60405180910390f35b34801561029157600080fd5b5061029a6111af565b005b3480156102a857600080fd5b506102c360048036038101906102be9190612380565b6111b9565b6040516102d0919061281c565b60405180910390f35b6102f360048036038101906102ee919061232e565b6111f8565b005b34801561030157600080fd5b5061030a6114dc565b005b34801561031857600080fd5b506103216115a8565b60405161032e9190612da5565b60405180910390f35b34801561034357600080fd5b5061034c611617565b6040516103599190612da5565b60405180910390f35b34801561036e57600080fd5b50610377611624565b60405161038a97969594939291906129c7565b60405180910390f35b34801561039f57600080fd5b506103a861169c565b6040516103b6929190612837565b60405180910390f35b60018060038111156103fa577f4e487b7100000000000000000000000000000000000000000000000000000000600052602160045260246000fd5b600160000160009054906101000a900460ff166003811115610445577f4e487b7100000000000000000000000000000000000000000000000000000000600052602160045260246000fd5b14610485576040517f08c379a000000000000000000000000000000000000000000000000000000000815260040161047c90612bb6565b60405180910390fd5b6001600501548042106104cd576040517f08c379a00000000000000000000000000000000000000000000000000000000081526004016104c490612a82565b60405180910390fd5b600960003373ffffffffffffffffffffffffffffffffffffffff1673ffffffffffffffffffffffffffffffffffffffff16815260200190815260200160002060000160009054906101000a900460ff1661055c576040517f08c379a000000000000000000000000000000000000000000000000000000000815260040161055390612b2c565b60405180910390fd5b6001600201548510156105a4576040517f08c379a000000000000000000000000000000000000000000000000000000000815260040161059b90612c40565b60405180910390fd5b60008585856040516020016105bb939291906127e3565b60405160208183030381529060405280519060200120905080600960003373ffffffffffffffffffffffffffffffffffffffff1673ffffffffffffffffffffffffffffffffffffffff1681526020019081526020016000206001015414610657576040517f08c379a000000000000000000000000000000000000000000000000000000000815260040161064e90612b0c565b60405180910390fd5b6001600960003373ffffffffffffffffffffffffffffffffffffffff1673ffffffffffffffffffffffffffffffffffffffff16815260200190815260200160002060040160006101000a81548160ff02191690831515021790555085600960003373ffffffffffffffffffffffffffffffffffffffff1673ffffffffffffffffffffffffffffffffffffffff1681526020019081526020016000206002018190555084600960003373ffffffffffffffffffffffffffffffffffffffff1673ffffffffffffffffffffffffffffffffffffffff168152602001908152602001600020600301819055507f270c4f52a30d5e536ebfac48bc6f06c044e6c40116d702e65f23823565452d73338787426040516107759493929190612897565b60405180910390a1505050505050565b61078d6116ce565b565b6107976121ec565b60028060038111156107d2577f4e487b7100000000000000000000000000000000000000000000000000000000600052602160045260246000fd5b600160000160009054906101000a900460ff16600381111561081d577f4e487b7100000000000000000000000000000000000000000000000000000000600052602160045260246000fd5b1461085d576040517f08c379a000000000000000000000000000000000000000000000000000000000815260040161085490612bb6565b60405180910390fd5b6001600501548042116108a5576040517f08c379a000000000000000000000000000000000000000000000000000000000815260040161089c90612d0a565b60405180910390fd5b600760000160009054906101000a900473ffffffffffffffffffffffffffffffffffffffff1673ffffffffffffffffffffffffffffffffffffffff163373ffffffffffffffffffffffffffffffffffffffff1614610938576040517f08c379a000000000000000000000000000000000000000000000000000000000815260040161092f90612c20565b60405180910390fd5b6003600160000160006101000a81548160ff02191690836003811115610987577f4e487b7100000000000000000000000000000000000000000000000000000000600052602160045260246000fd5b02179055507f7ed3e08f4e01cb0fc3643e34bcfd45247dec68ed4414209bda9f5e5eab13d0fd33426040516109bd929190612837565b60405180910390a1600a60003373ffffffffffffffffffffffffffffffffffffffff1673ffffffffffffffffffffffffffffffffffffffff1681526020019081526020016000206040518060a00160405290816000820160009054906101000a900473ffffffffffffffffffffffffffffffffffffffff1673ffffffffffffffffffffffffffffffffffffffff1673ffffffffffffffffffffffffffffffffffffffff1681526020016001820160009054906101000a900473ffffffffffffffffffffffffffffffffffffffff1673ffffffffffffffffffffffffffffffffffffffff1673ffffffffffffffffffffffffffffffffffffffff16815260200160028201548152602001600382015481526020016004820160009054906101000a900460ff1615151515815250509250505090565b610af9611b50565b565b600160050154804211610b43576040517f08c379a0000000000000000000000000000000000000000000000000000000008152600401610b3a90612d0a565b60405180910390fd5b6001806003811115610b7e577f4e487b7100000000000000000000000000000000000000000000000000000000600052602160045260246000fd5b600160000160009054906101000a900460ff166003811115610bc9577f4e487b7100000000000000000000000000000000000000000000000000000000600052602160045260246000fd5b14610c09576040517f08c379a0000000000000000000000000000000000000000000000000000000008152600401610c0090612bb6565b60405180910390fd5b6000805b600b80549050811015610cf65760096000600b8381548110610c58577f4e487b7100000000000000000000000000000000000000000000000000000000600052603260045260246000fd5b9060005260206000200160009054906101000a900473ffffffffffffffffffffffffffffffffffffffff1673ffffffffffffffffffffffffffffffffffffffff1673ffffffffffffffffffffffffffffffffffffffff16815260200190815260200160002060040160009054906101000a900460ff1615610ce357600182610ce09190612e3d565b91505b8080610cee906130b1565b915050610c0d565b506000811415610d90576003600160000160006101000a81548160ff02191690836003811115610d4f577f4e487b7100000000000000000000000000000000000000000000000000000000600052602160045260246000fd5b02179055507fe73a313df79df374a265d1ae8069419631a184236f3d97d468b9c2e5505b4e9942604051610d839190612b4c565b60405180910390a1610e38565b6002600160000160006101000a81548160ff02191690836003811115610ddf577f4e487b7100000000000000000000000000000000000000000000000000000000600052602160045260246000fd5b02179055507f3dbdd4835dda2d2ea64f4793b53cbfa0bd395cc2bdb266568ccfedbf2f9fde4b600160000160009054906101000a900460ff1642604051610e27929190612b7a565b60405180910390a1610e376116ce565b5b505050565b6000600160000160009054906101000a900460ff16905090565b80600160000160006101000a81548160ff02191690836003811115610ea5577f4e487b7100000000000000000000000000000000000000000000000000000000600052602160045260246000fd5b021790555050565b60018060000160009054906101000a900460ff16908060000160019054906101000a900473ffffffffffffffffffffffffffffffffffffffff16908060010154908060020154908060030154908060040154908060050154905087565b6000806003811115610f45577f4e487b7100000000000000000000000000000000000000000000000000000000600052602160045260246000fd5b600160000160009054906101000a900460ff166003811115610f90577f4e487b7100000000000000000000000000000000000000000000000000000000600052602160045260246000fd5b14610fd0576040517f08c379a0000000000000000000000000000000000000000000000000000000008152600401610fc790612bb6565b60405180910390fd5b600160040154804211611018576040517f08c379a000000000000000000000000000000000000000000000000000000000815260040161100f90612d0a565b60405180910390fd5b6000600b8054905014156110b6576003600160000160006101000a81548160ff02191690836003811115611075577f4e487b7100000000000000000000000000000000000000000000000000000000600052602160045260246000fd5b02179055507fe73a313df79df374a265d1ae8069419631a184236f3d97d468b9c2e5505b4e99426040516110a99190612cdc565b60405180910390a1611155565b60018060000160006101000a81548160ff02191690836003811115611104577f4e487b7100000000000000000000000000000000000000000000000000000000600052602160045260246000fd5b02179055507f3dbdd4835dda2d2ea64f4793b53cbfa0bd395cc2bdb266568ccfedbf2f9fde4b600160000160009054906101000a900460ff164260405161114c929190612ca0565b60405180910390a15b5050565b60096020528060005260406000206000915090508060000160009054906101000a900460ff16908060010154908060020154908060030154908060040160009054906101000a900460ff16908060050154905086565b6111b7611e0d565b565b600b81815481106111c957600080fd5b906000526020600020016000915054906101000a900473ffffffffffffffffffffffffffffffffffffffff1681565b6000806003811115611233577f4e487b7100000000000000000000000000000000000000000000000000000000600052602160045260246000fd5b600160000160009054906101000a900460ff16600381111561127e577f4e487b7100000000000000000000000000000000000000000000000000000000600052602160045260246000fd5b146112be576040517f08c379a00000000000000000000000000000000000000000000000000000000081526004016112b590612bb6565b60405180910390fd5b600160040154804210611306576040517f08c379a00000000000000000000000000000000000000000000000000000000081526004016112fd90612a82565b60405180910390fd5b60016003015434101561134e576040517f08c379a000000000000000000000000000000000000000000000000000000000815260040161134590612aec565b60405180910390fd5b6040518060c00160405280600115158152602001848152602001600081526020016000815260200160001515815260200160013461138c9190612e93565b815250600960003373ffffffffffffffffffffffffffffffffffffffff1673ffffffffffffffffffffffffffffffffffffffff16815260200190815260200160002060008201518160000160006101000a81548160ff02191690831515021790555060208201518160010155604082015181600201556060820151816003015560808201518160040160006101000a81548160ff02191690831515021790555060a08201518160050155905050600b339080600181540180825580915050600190039060005260206000200160009091909190916101000a81548173ffffffffffffffffffffffffffffffffffffffff021916908373ffffffffffffffffffffffffffffffffffffffff1602179055507fb7a0ff6cc8dfcd966d5d6a3a6da8bd9690d9e2b641687f28ac0f0e28a47c89133334426040516114cf93929190612860565b60405180910390a1505050565b60008054906101000a900473ffffffffffffffffffffffffffffffffffffffff1673ffffffffffffffffffffffffffffffffffffffff163373ffffffffffffffffffffffffffffffffffffffff161461156a576040517f08c379a000000000000000000000000000000000000000000000000000000000815260040161156190612c80565b60405180910390fd5b600160000160019054906101000a900473ffffffffffffffffffffffffffffffffffffffff1673ffffffffffffffffffffffffffffffffffffffff16ff5b6000600a6000600760000160009054906101000a900473ffffffffffffffffffffffffffffffffffffffff1673ffffffffffffffffffffffffffffffffffffffff1673ffffffffffffffffffffffffffffffffffffffff16815260200190815260200160002060030154905090565b6000600b80549050905090565b6000806000806000806000600160000160009054906101000a900460ff16600160000160019054906101000a900473ffffffffffffffffffffffffffffffffffffffff166001800154600160020154600160030154600160040154600160050154965096509650965096509650965090919293949596565b60078060000160009054906101000a900473ffffffffffffffffffffffffffffffffffffffff16908060010154905082565b6002806003811115611709577f4e487b7100000000000000000000000000000000000000000000000000000000600052602160045260246000fd5b600160000160009054906101000a900460ff166003811115611754577f4e487b7100000000000000000000000000000000000000000000000000000000600052602160045260246000fd5b14611794576040517f08c379a000000000000000000000000000000000000000000000000000000000815260040161178b90612bb6565b60405180910390fd5b60008060005b600b80549050811015611923576000600b82815481106117e3577f4e487b7100000000000000000000000000000000000000000000000000000000600052603260045260246000fd5b9060005260206000200160009054906101000a900473ffffffffffffffffffffffffffffffffffffffff169050600960008273ffffffffffffffffffffffffffffffffffffffff1673ffffffffffffffffffffffffffffffffffffffff16815260200190815260200160002060040160009054906101000a900460ff1661186a5750611910565b6000600960008373ffffffffffffffffffffffffffffffffffffffff1673ffffffffffffffffffffffffffffffffffffffff16815260200190815260200160002060030154600960008473ffffffffffffffffffffffffffffffffffffffff1673ffffffffffffffffffffffffffffffffffffffff168152602001908152602001600020600201546118fc9190612e93565b90508381111561190d578194508093505b50505b808061191b906130b1565b91505061179a565b5060405180604001604052808373ffffffffffffffffffffffffffffffffffffffff16815260200182815250600760008201518160000160006101000a81548173ffffffffffffffffffffffffffffffffffffffff021916908373ffffffffffffffffffffffffffffffffffffffff160217905550602082015181600101559050507ff759f57bf4b808b6e91a1c291d1cc81e47f24aa62e8cf7f6cc30b23822e9ac2b6007426040516119d7929190612d45565b60405180910390a16040518060a001604052808373ffffffffffffffffffffffffffffffffffffffff1681526020013073ffffffffffffffffffffffffffffffffffffffff16815260200160018001548152602001626ebe0042611a3b9190612e3d565b815260200160001515815250600a60008473ffffffffffffffffffffffffffffffffffffffff1673ffffffffffffffffffffffffffffffffffffffff16815260200190815260200160002060008201518160000160006101000a81548173ffffffffffffffffffffffffffffffffffffffff021916908373ffffffffffffffffffffffffffffffffffffffff16021790555060208201518160010160006101000a81548173ffffffffffffffffffffffffffffffffffffffff021916908373ffffffffffffffffffffffffffffffffffffffff160217905550604082015181600201556060820151816003015560808201518160040160006101000a81548160ff021916908315150217905550905050505050565b6002806003811115611b8b577f4e487b7100000000000000000000000000000000000000000000000000000000600052602160045260246000fd5b600160000160009054906101000a900460ff166003811115611bd6577f4e487b7100000000000000000000000000000000000000000000000000000000600052602160045260246000fd5b14611c16576040517f08c379a0000000000000000000000000000000000000000000000000000000008152600401611c0d90612bb6565b60405180910390fd5b600060076001015490506000600160000160019054906101000a900473ffffffffffffffffffffffffffffffffffffffff16905060006040518060400160405280601a81526020017f5472616e7366657220686967686573742062696420746f2050550000000000008152509050600160030154831115611cb55760016003015492506040518060800160405280605181526020016135646051913990505b7f7c4000a16d683bc6bd33d5882af0733a8a58704ed6a1fbaaa780a62b7af76d9581838542604051611cea9493929190612a36565b60405180910390a18173ffffffffffffffffffffffffffffffffffffffff166108fc849081150290604051600060405180830381858888f19350505050158015611d38573d6000803e3d6000fd5b5060004790506000811115611dca577f7c4000a16d683bc6bd33d5882af0733a8a58704ed6a1fbaaa780a62b7af76d95838242604051611d7a93929190612bd6565b60405180910390a18273ffffffffffffffffffffffffffffffffffffffff166108fc829081150290604051600060405180830381858888f19350505050158015611dc8573d6000803e3d6000fd5b505b7ff775d775211952fb6b87f2d722159db37561b0bb5fe510a7f4f8e80731a583e860074742604051611dfe93929190612d6e565b60405180910390a15050505050565b6002806003811115611e48577f4e487b7100000000000000000000000000000000000000000000000000000000600052602160045260246000fd5b600160000160009054906101000a900460ff166003811115611e93577f4e487b7100000000000000000000000000000000000000000000000000000000600052602160045260246000fd5b14611ed3576040517f08c379a0000000000000000000000000000000000000000000000000000000008152600401611eca90612bb6565b60405180910390fd5b600073ffffffffffffffffffffffffffffffffffffffff16600760000160009054906101000a900473ffffffffffffffffffffffffffffffffffffffff1673ffffffffffffffffffffffffffffffffffffffff161415611f68576040517f08c379a0000000000000000000000000000000000000000000000000000000008152600401611f5f90612c60565b60405180910390fd5b60005b600b805490508110156121e8576000600b8281548110611fb4577f4e487b7100000000000000000000000000000000000000000000000000000000600052603260045260246000fd5b9060005260206000200160009054906101000a900473ffffffffffffffffffffffffffffffffffffffff1690506000600960008373ffffffffffffffffffffffffffffffffffffffff1673ffffffffffffffffffffffffffffffffffffffff1681526020019081526020016000206040518060c00160405290816000820160009054906101000a900460ff161515151581526020016001820154815260200160028201548152602001600382015481526020016004820160009054906101000a900460ff161515151581526020016005820154815250509050806080015161209d5750506121d5565b6000600760000160009054906101000a900473ffffffffffffffffffffffffffffffffffffffff1673ffffffffffffffffffffffffffffffffffffffff168373ffffffffffffffffffffffffffffffffffffffff1614905080801561210a57508160a00151826040015110155b15612117575050506121d5565b600081612128578260a0015161214c565b8260600151836040015161213c9190612e93565b8360a0015161214b9190612eed565b5b90507f7c4000a16d683bc6bd33d5882af0733a8a58704ed6a1fbaaa780a62b7af76d9584824260405161218193929190612aa2565b60405180910390a18373ffffffffffffffffffffffffffffffffffffffff166108fc829081150290604051600060405180830381858888f193505050501580156121cf573d6000803e3d6000fd5b50505050505b80806121e0906130b1565b915050611f6b565b5050565b6040518060a00160405280600073ffffffffffffffffffffffffffffffffffffffff168152602001600073ffffffffffffffffffffffffffffffffffffffff16815260200160008152602001600081526020016000151581525090565b600061225c61225784612de5565b612dc0565b90508281526020810184848401111561227457600080fd5b61227f84828561300a565b509392505050565b6000813590506122968161350e565b92915050565b6000813590506122ab81613525565b92915050565b6000813590506122c08161353c565b92915050565b600082601f8301126122d757600080fd5b81356122e7848260208601612249565b91505092915050565b6000813590506122ff8161354c565b92915050565b60006020828403121561231757600080fd5b600061232584828501612287565b91505092915050565b60006020828403121561234057600080fd5b600061234e8482850161229c565b91505092915050565b60006020828403121561236957600080fd5b6000612377848285016122b1565b91505092915050565b60006020828403121561239257600080fd5b60006123a0848285016122f0565b91505092915050565b6000806000606084860312156123be57600080fd5b60006123cc868287016122f0565b93505060206123dd868287016122f0565b925050604084013567ffffffffffffffff8111156123fa57600080fd5b612406868287016122c6565b9150509250925092565b61241981612fc2565b82525050565b61242881612f5d565b82525050565b61243781612f4b565b82525050565b61244681612f4b565b82525050565b61245581612f6f565b82525050565b61246481612f6f565b82525050565b61247381612f7b565b82525050565b61248281612fd4565b82525050565b600061249382612e16565b61249d8185612e21565b93506124ad818560208601613019565b6124b681613191565b840191505092915050565b60006124cc82612e16565b6124d68185612e32565b93506124e6818560208601613019565b80840191505092915050565b60006124ff601983612e21565b915061250a826131af565b602082019050919050565b6000612522601b83612e21565b915061252d826131d8565b602082019050919050565b6000612545601883612e21565b915061255082613201565b602082019050919050565b6000612568601d83612e21565b91506125738261322a565b602082019050919050565b600061258b602f83612e21565b915061259682613253565b604082019050919050565b60006125ae602283612e21565b91506125b9826132a2565b604082019050919050565b60006125d1601383612e21565b91506125dc826132f1565b602082019050919050565b60006125f4600d83612e21565b91506125ff8261331a565b602082019050919050565b6000612617601f83612e21565b915061262282613343565b602082019050919050565b600061263a602683612e21565b91506126458261336c565b604082019050919050565b600061265d601483612e21565b9150612668826133bb565b602082019050919050565b6000612680602f83612e21565b915061268b826133e4565b604082019050919050565b60006126a3602b83612e21565b91506126ae82613433565b604082019050919050565b60006126c6600d83612e21565b91506126d182613482565b602082019050919050565b60006126e9602e83612e21565b91506126f4826134ab565b604082019050919050565b60a082016000820151612715600085018261242e565b506020820151612728602085018261242e565b50604082015161273b60408501826127ae565b50606082015161274e60608501826127ae565b506080820151612761608085018261244c565b50505050565b60408201600080830154905061277c8161304c565b612789600086018261242e565b506001830154905061279a81613066565b6127a760208601826127ae565b5050505050565b6127b781612fb8565b82525050565b6127c681612fb8565b82525050565b6127dd6127d882612fb8565b6130fa565b82525050565b60006127ef82866127cc565b6020820191506127ff82856127cc565b60208201915061280f82846124c1565b9150819050949350505050565b6000602082019050612831600083018461243d565b92915050565b600060408201905061284c600083018561243d565b61285960208301846127bd565b9392505050565b6000606082019050612875600083018661243d565b61288260208301856127bd565b61288f60408301846127bd565b949350505050565b60006080820190506128ac600083018761243d565b6128b960208301866127bd565b6128c660408301856127bd565b6128d360608301846127bd565b95945050505050565b600060c0820190506128f1600083018961245b565b6128fe602083018861246a565b61290b60408301876127bd565b61291860608301866127bd565b612925608083018561245b565b61293260a08301846127bd565b979650505050505050565b60006020820190506129526000830184612479565b92915050565b600060e08201905061296d600083018a612479565b61297a602083018961241f565b61298760408301886127bd565b61299460608301876127bd565b6129a160808301866127bd565b6129ae60a08301856127bd565b6129bb60c08301846127bd565b98975050505050505050565b600060e0820190506129dc600083018a612479565b6129e9602083018961243d565b6129f660408301886127bd565b612a0360608301876127bd565b612a1060808301866127bd565b612a1d60a08301856127bd565b612a2a60c08301846127bd565b98975050505050505050565b60006080820190508181036000830152612a508187612488565b9050612a5f6020830186612410565b612a6c60408301856127bd565b612a7960608301846127bd565b95945050505050565b60006020820190508181036000830152612a9b816124f2565b9050919050565b60006080820190508181036000830152612abb81612515565b9050612aca6020830186612410565b612ad760408301856127bd565b612ae460608301846127bd565b949350505050565b60006020820190508181036000830152612b0581612538565b9050919050565b60006020820190508181036000830152612b258161255b565b9050919050565b60006020820190508181036000830152612b458161257e565b9050919050565b60006040820190508181036000830152612b65816125a1565b9050612b7460208301846127bd565b92915050565b60006060820190508181036000830152612b93816125c4565b9050612ba26020830185612479565b612baf60408301846127bd565b9392505050565b60006020820190508181036000830152612bcf816125e7565b9050919050565b60006080820190508181036000830152612bef8161260a565b9050612bfe6020830186612410565b612c0b60408301856127bd565b612c1860608301846127bd565b949350505050565b60006020820190508181036000830152612c398161262d565b9050919050565b60006020820190508181036000830152612c5981612650565b9050919050565b60006020820190508181036000830152612c7981612673565b9050919050565b60006020820190508181036000830152612c9981612696565b9050919050565b60006060820190508181036000830152612cb9816126b9565b9050612cc86020830185612479565b612cd560408301846127bd565b9392505050565b60006040820190508181036000830152612cf5816126b9565b9050612d0460208301846127bd565b92915050565b60006020820190508181036000830152612d23816126dc565b9050919050565b600060a082019050612d3f60008301846126ff565b92915050565b6000606082019050612d5a6000830185612767565b612d6760408301846127bd565b9392505050565b6000608082019050612d836000830186612767565b612d9060408301856127bd565b612d9d60608301846127bd565b949350505050565b6000602082019050612dba60008301846127bd565b92915050565b6000612dca612ddb565b9050612dd68282613080565b919050565b6000604051905090565b600067ffffffffffffffff821115612e0057612dff613162565b5b612e0982613191565b9050602081019050919050565b600081519050919050565b600082825260208201905092915050565b600081905092915050565b6000612e4882612fb8565b9150612e5383612fb8565b9250827fffffffffffffffffffffffffffffffffffffffffffffffffffffffffffffffff03821115612e8857612e87613104565b5b828201905092915050565b6000612e9e82612fb8565b9150612ea983612fb8565b9250817fffffffffffffffffffffffffffffffffffffffffffffffffffffffffffffffff0483118215151615612ee257612ee1613104565b5b828202905092915050565b6000612ef882612fb8565b9150612f0383612fb8565b925082821015612f1657612f15613104565b5b828203905092915050565b600073ffffffffffffffffffffffffffffffffffffffff82169050919050565b6000819050919050565b6000612f5682612f98565b9050919050565b6000612f6882612f98565b9050919050565b60008115159050919050565b6000819050919050565b6000819050612f93826134fa565b919050565b600073ffffffffffffffffffffffffffffffffffffffff82169050919050565b6000819050919050565b6000612fcd82612fe6565b9050919050565b6000612fdf82612f85565b9050919050565b6000612ff182612ff8565b9050919050565b600061300382612f98565b9050919050565b82818337600083830152505050565b60005b8381101561303757808201518184015260208101905061301c565b83811115613046576000848401525b50505050565b600061305f61305a836131a2565b612f21565b9050919050565b6000613079613074836131a2565b612f41565b9050919050565b61308982613191565b810181811067ffffffffffffffff821117156130a8576130a7613162565b5b80604052505050565b60006130bc82612fb8565b91507fffffffffffffffffffffffffffffffffffffffffffffffffffffffffffffffff8214156130ef576130ee613104565b5b600182019050919050565b6000819050919050565b7f4e487b7100000000000000000000000000000000000000000000000000000000600052601160045260246000fd5b7f4e487b7100000000000000000000000000000000000000000000000000000000600052602160045260246000fd5b7f4e487b7100000000000000000000000000000000000000000000000000000000600052604160045260246000fd5b6000601f19601f8301169050919050565b60008160001c9050919050565b7f43616e6e6f742062696420616674657220646561646c696e6500000000000000600082015250565b7f5472616e73666572206261636b206465706f73697420746f2053550000000000600082015250565b7f4465706f7369742076616c756520697320746f6f206c6f770000000000000000600082015250565b7f4f70656e2062696420616e642062696420646f206e6f74206d61746368000000600082015250565b7f54686973206163636f756e7420686173206e6f742062696464656e20696e207460008201527f68652068696464656e20726f756e640000000000000000000000000000000000602082015250565b7f4269642072657665616c696e6720726f756e642c206e6f2076616c696420626960008201527f6473000000000000000000000000000000000000000000000000000000000000602082015250565b7f4269642072657665616c696e6720726f756e6400000000000000000000000000600082015250565b7f496e76616c696420737461746500000000000000000000000000000000000000600082015250565b7f5472616e7366657220636f6e74726163742062616c616e636520746f20505500600082015250565b7f596f7520617265206e6f74207468652077696e6e6572206f662074686520617560008201527f6374696f6e210000000000000000000000000000000000000000000000000000602082015250565b7f4269642076616c756520697320746f6f206c6f77000000000000000000000000600082015250565b7f4d7573742066696e6420612077696e6e6572206265666f72652073656e64696e60008201527f67206261636b206465706f736974730000000000000000000000000000000000602082015250565b7f596f7520617265206e6f7420616c6c6f77656420746f2064656c65746520746860008201527f69732061756374696f6e21000000000000000000000000000000000000000000602082015250565b7f42696464696e6720726f756e6400000000000000000000000000000000000000600082015250565b7f43616e6e6f7420706572666f726d207468697320616374696f6e206265666f7260008201527f652074686520646561646c696e65000000000000000000000000000000000000602082015250565b6004811061350b5761350a613133565b5b50565b61351781612f4b565b811461352257600080fd5b50565b61352e81612f7b565b811461353957600080fd5b50565b6004811061354957600080fd5b50565b61355581612fb8565b811461356057600080fd5b5056fe5468652068696768657374206269642077617320686967686572207468616e20746865206465706f7369742076616c75652e205472616e7366657272696e6720746865206465706f73697420746f205055a2646970667358221220aed143cc9a0b87e698ede13fc97d48e9feccbd26ce222b35f21a6aee4d6a18e964736f6c63430008010033",
  "immutableReferences": {},
  "source": "// SPDX-License-Identifier: MIT\npragma solidity ^0.8.1;\nimport \"./Auction.sol\";\n\ncontract TestAuction is Auction {\n    constructor(\n        address payable _PU,\n        uint _bandwidth, \n        uint _minBidValue, \n        uint _depositValue\n    ) Auction (\n        _PU,\n        _bandwidth, \n        _minBidValue, \n        _depositValue\n    ) {}\n\n    function setCurrentState(State newState) public {\n        auctionInfo.currentState = newState;\n    }\n\n    function getBidsLength() public view returns(uint256) {\n        return BidsAddresses.length;\n    }\n\n    function testFindWinner() public {\n        findWinner();\n    }\n\n    function testTransferBackDeposits() public {\n        transferBackDeposits();\n    }\n\n    function testTransferHighestBidToPU() public {\n        transferHighestBidToPU();\n    }\n}\n",
  "sourcePath": "C:\\Users\\Sampavi Sivakumaran\\Desktop\\FYP\\Blockchain_Based_Spectrum_Sharing_for_5G_and_Beyond\\contracts\\TestAuction.sol",
  "compiler": {
    "name": "solc",
    "version": "0.8.1+commit.df193b15.Emscripten.clang"
  },
  "schemaVersion": "3.4.16",
  "updatedAt": "2024-05-06T02:39:07.591Z",
  "devdoc": {
    "kind": "dev",
    "methods": {},
    "version": 1
  },
  "userdoc": {
    "kind": "user",
    "methods": {},
    "version": 1
  }
}